:020000040800F2
:100000000000082491200008711E0008791E0008D5
:10001000811E0008891E0008911E000800000000D3
:100020000000000000000000000000003184000813
:10003000991E000800000000F1860008A71E0008B5
:10004000E5200008E5200008E5200008E52000087C
:10005000E5200008E5200008E5200008E52000086C
:10006000E5200008E5200008E5200008E52000085C
:10007000E5200008E5200008E5200008E52000084C
:10008000E5200008E5200008E5200008E52000083C
:10009000B51E0008E5200008E5200008E52000085E
:1000A000E5200008C91E0008E5200008E52000083A
:1000B000E5200008E5200008E5200008E52000080C
:1000C000E5200008E5200008E5200008E5200008FC
:1000D000E5200008E5200008E5200008E5200008EC
:1000E000E5200008E520000800000000E5200008E9
:1000F000E5200008E5200008E5200008E5200008CC
:10010000E5200008E5200008E5200008E5200008BB
:10011000DD1E0008E5200008E5200008E5200008B5
:10012000E5200008E5200008E5200008E52000089B
:10013000E5200008E5200008E5200008E52000088B
:10014000E5200008E5200008000000000000000095
:10015000E5200008E5200008E5200008E52000086B
:10016000E5200008E5200008E5200008E52000085B
:10017000E5200008F11E0008E5200008000000004E
:10018000E5200008E5200008E5200008E52000083B
:10019000E5200008E5200008E5200008E52000082B
:1001A000E5200008E5200008E5200008E52000081B
:1001B000E5200008E5200008E5200008E52000080B
:1001C000E5200008E5200008E5200008E5200008FB
:1001D000E5200008E5200008E5200008E5200008EB
:1001E000E5200008E5200008E5200008E5200008DB
:1001F000E5200008E5200008E5200008E5200008CB
:10020000E5200008E5200008E5200008E5200008BA
:10021000E5200008E5200008E5200008E5200008AA
:10022000E5200008E5200008E520000800000000A7
:10023000E5200008E5200008E5200008E52000088A
:10024000E5200008E5200008E5200008E52000087A
:10025000E5200008E5200008E5200008E52000086A
:10026000E5200008E5200008E5200008E52000085A
:10027000E5200008E5200008E5200008E52000084A
:10028000E5200008E5200008E52000080000000047
:08029000E5200008E52000084C
:1002A00010B5054C237833B9044B13B10448AFF3B0
:1002B00000800123237010BD3002002400000000E4
:1002C000A802020808B5034B1BB103490348AFF36A
:1002D000008008BD0000000034020024A8020208CB
:1002E00010F8012B11F8013B012A28BF9A42F7D0E0
:1002F000D01A7047034613F8012B002AFBD1181AB5
:1003000001387047000000000000000000000000FD
:1003100001F0FF01102A2BDB10F0070F08D010F8B6
:10032000013B013A8B422DD010F0070F42B3F6D1BA
:10033000F0B441EA012141EA014122F007047FF0D3
:1003400000070023F0E80256083C85EA010586EA2A
:10035000010685FA47F5A3FA87F586FA47F6A5FA66
:1003600087F68EB9EED1F0BC01F0FF0102F0070272
:1003700032B110F8013B013A83EA010313B1F8D11D
:100380000020704701387047002D06BF35460338FE
:10039000073815F0010F07D1013015F4807F02BF37
:1003A000013015F4C03F0130F0BC0138704700BF88
:1003B00080B400AF494BD3F88830484A43F4700307
:1003C000C2F88830454B1B69444A43F0100313615F
:1003D000434B1B6803F00F03062B07D8404B1B68E9
:1003E00023F00F033E4A43F0070313603D4B1B68A5
:1003F0003C4A43F0010313603A4B00221A61394B27
:100400001A683849384B13400B60354B1B6803F0B2
:100410000803002B07D0324B1B6823F00F03304A30
:1004200043F0070313602F4B00229A612D4B0022EB
:10043000DA612C4B00221A622A4B2C4A9A62294B11
:100440002B4ADA62274B2B4A1A63264B00225A6347
:10045000244B284A9A63234B0022DA63214B254A16
:100460001A64204B00225A641E4B1B681D4A23F459
:10047000802313601B4B00221A661F4B5B6A1E4AC7
:1004800043F4804353621D4B1A681D4B1340B3F174
:10049000005F02D21B4B01221A60124BD3F8D430FA
:1004A00003F48053002B13D10E4BD3F8D4300D4AF4
:1004B00043F48053C2F8D430134B43F2D2021A6093
:1004C000084BD3F8D430074A23F48053C2F8D43011
:1004D00000BFBD465DF8047B704700BF00ED00E043
:1004E00000200052004402587FEDF6EA00020202AA
:1004F0000000FF0180020101C00000580010005CF4
:100500000000FFFF088100510040005280B400AF9E
:100510000A4BDB6823F00603084A43F00203D3606A
:1005200000BF064B5B6803F40053002BF9D000BFFB
:1005300000BFBD465DF8047B704700BF004802580D
:1005400080B400AF044BDB681B0A03F007031846B6
:10055000BD465DF8047B704700ED00E080B483B0D9
:1005600000AF0346FB80B7F90630002B0BDBFB889E
:1005700003F01F020749B7F906305B09012000FAB2
:1005800002F241F8232000BF0C37BD465DF8047B22
:10059000704700BF00E100E080B483B000AF0346C5
:1005A0003960FB80B7F90630002B0ADB3B68DAB212
:1005B0000C49B7F906301201D2B20B4483F800237C
:1005C0000AE03B68DAB20849FB8803F00F03043BFA
:1005D0001201D2B20B441A7600BF0C37BD465DF84B
:1005E000047B704700E100E000ED00E080B489B0DA
:1005F00000AFF860B9607A60FB6803F00703FB6145
:10060000FB69C3F10703042B28BF0423BB61FB690B
:100610000433062B02D9FB69033B00E000237B6116
:100620004FF0FF32BB6902FA03F3DA43BB681A40AA
:100630007B699A404FF0FF317B6901FA03F3D9439C
:100640007B680B40134318462437BD465DF8047B96
:10065000704780B487B000AF786039603B68C3F3FF
:100660001303002B07D13B689B0E03F01F030122ED
:1006700002FA03F315E03B683B613B6993FAA3F38D
:10068000FB60FB687B617B69002B01D1202303E0C9
:100690007B69B3FA83F3DBB203F01F03012202FA92
:1006A00003F37A68D2691A437B68DA6100BF1C37AA
:1006B000BD465DF8047B704780B487B000AFF8603A
:1006C000B9607A60FB6830331A46BB681B0A9B002E
:1006D00003F00C0313447B617B691A68BB6803F069
:1006E0001F031F2101FA03F3DB431A407B689B0EB3
:1006F00003F01F01BB6803F01F0301FA03F31A4361
:100700007B691A6000BF1C37BD465DF8047B7047EB
:1007100080B483B000AF786039607B68DB6823F019
:1007200003023B681A437B68DA6000BF0C37BD46A2
:100730005DF8047B704780B487B000AFF860B960A3
:100740007A60FB6814331A46BB685B0E9B0003F0AB
:10075000040313447B617B691A68BB681B0D03F0BB
:100760001F03072101FA03F3DB431A40BB681B0D8B
:1007700003F01F03796801FA03F31A437B691A60D7
:1007800000BF1C37BD465DF8047B704780B485B060
:1007900000AFF860B9607A60FB68D3F8C020BB682E
:1007A000C3F31303DB431A407B6803F018030849C3
:1007B000D940BB680B40C3F313031A43FB68C3F86B
:1007C000C02000BF1437BD465DF8047B704700BFF2
:1007D000FFFF0F0080B483B000AF786039607B68A2
:1007E0001A69064B13403A681A437B681A6100BFC6
:1007F0000C37BD465DF8047B704700BFFCFBFFFF74
:1008000080B483B000AF78607B689A68044B134073
:100810007A68936000BF0C37BD465DF8047B704773
:10082000C0FFFF5F80B483B000AF78607B689A68D8
:10083000054B134043F080527B689A6000BF0C3731
:10084000BD465DF8047B7047C0FFFF6F80B483B086
:1008500000AF78607B689A68054B134043F0010253
:100860007B689A6000BF0C37BD465DF8047B70471B
:10087000C0FFFF7F80B483B000AF78607B681B68E7
:1008800003F00103012B01D1012300E000231846EE
:100890000C37BD465DF8047B704780B483B000AF71
:1008A00078607B681B6823F400327B681A6000BFA5
:1008B0000C37BD465DF8047B704780B483B000AF51
:1008C00078607B681B6823F400227B681A6000BF95
:1008D0000C37BD465DF8047B7047000080B485B0DE
:1008E00000AFF860B9607A60FB68DA68064B1340C5
:1008F000B9687A680A431A43FB68DA6000BF1437A4
:10090000BD465DF8047B704701F8FFFF80B483B0FB
:1009100000AF78607B68DB6823F400427B68DA60B4
:1009200000BF0C37BD465DF8047B704780B483B0D0
:1009300000AF78607B685B6843F000727B685A6048
:1009400000BF0C37BD465DF8047B704780B483B0B0
:1009500000AF78607B681B6843F001027B681A6017
:1009600000BF0C37BD465DF8047B704780B483B090
:1009700000AF786039607B68DB6823F460123B6805
:100980001A437B68DA6000BF0C37BD465DF8047B14
:10099000704780B483B000AF786039607B689B6833
:1009A00023F4F0723B681A437B689A6000BF0C37EF
:1009B000BD465DF8047B704780B483B000AF7860BB
:1009C0007B68DB6843F080427B68DA6000BF0C37ED
:1009D000BD465DF8047B704780B483B000AF78609B
:1009E0007B681B6843F001027B681A6000BF0C370C
:1009F000BD465DF8047B704780B483B000AF78607B
:100A00007B681B6823F000527B681A6000BF0C37BC
:100A1000BD465DF8047B704780B489B000AF786054
:100A200039607B680833FB60FB6853E8003FBB60BC
:100A3000BB6823F060423B685B071343FB617B6844
:100A40000833FA69BA617B617969BA6941E80023C0
:100A50003B613B69002BE4D100BF00BF2437BD469A
:100A60005DF8047B704780B489B000AF786039606E
:100A70007B680833FB60FB6853E8003FBB60BB68E2
:100A800023F060623B685B061343FB617B680833BD
:100A9000FA69BA617B617969BA6941E800233B610F
:100AA0003B69002BE4D100BF00BF2437BD465DF891
:100AB000047B704780B483B000AF78607B685B686C
:100AC00023F490427B685A607B689B6823F02A027B
:100AD0007B689A6000BF0C37BD465DF8047B7047A9
:100AE00080B483B000AF78607B68DB6903F40013E7
:100AF000B3F5001F01D1012300E0002318460C3795
:100B0000BD465DF8047B704780B483B000AF786069
:100B10007B68DB6903F48003B3F5800F01D1012307
:100B200000E0002318460C37BD465DF8047B704793
:100B300080B483B000AF7860054B5A6804497B6885
:100B400013434B6000BF0C37BD465DF8047B704714
:100B50000004005880B483B000AF786039607B68CF
:100B60003A689A6100BF0C37BD465DF8047B704758
:100B700080B483B000AF786039603B681A047B684A
:100B80009A6100BF0C37BD465DF8047B70470000DA
:100B900080B485B000AF78600A4BD3F8D8200949FB
:100BA0007B681343C1F8D830064BD3F8D8207B6854
:100BB0001340FB60FB6800BF1437BD465DF8047B43
:100BC000704700BF0044025880B485B000AF786021
:100BD0000A4BD3F8E02009497B681343C1F8E030A1
:100BE000064BD3F8E0207B681340FB60FB6800BF36
:100BF0001437BD465DF8047B704700BF00440258BF
:100C000080B485B000AF78600A4BD3F8E82009497A
:100C10007B681343C1F8E830064BD3F8E8207B68C3
:100C20001340FB60FB6800BF1437BD465DF8047BD2
:100C3000704700BF0044025880B485B000AF7860B0
:100C40000A4BD3F8F02009497B681343C1F8F03010
:100C5000064BD3F8F0207B681340FB60FB6800BFB5
:100C60001437BD465DF8047B704700BF004402584E
:100C700080B483B000AF78607B6801221A707B6813
:100C8000134A5A607B68134A9A607B68124ADA609A
:100C90007B680A221A747B680A225A747B681922BC
:100CA0009A747B681822DA747B6814221A757B6840
:100CB0000A22DA827B684FF480721A837B680022F2
:100CC000DA6100BF0C37BD465DF8047B704700BF9A
:100CD000C0020208CC020208D402020880B582B029
:100CE00000AF786010211348FFF734FF4FF4005134
:100CF0001148FFF73DFFC82005F062FF4FF4005197
:100D00000D48FFF727FF4FF4167005F059FF082133
:100D10000848FFF72DFF4FF4967005F051FF0821AA
:100D20000448FFF717FF4FF47A7005F049FF00BF42
:100D3000DCE700BF00000258000C025880B584B008
:100D400000AF786001F0B6FD0346002B19D007E034
:100D500002F08EFF0246FB7B1946104603F08AF82C
:100D600007F10F03184601F07DFD0346002BEFD17C
:100D700002F07EFF0346184603F09FF8002001F0C2
:100D8000A5FD0F4801F066FC0346002B13D00C486C
:100D900001F01CFC0346DBB2FB7302F075FF024658
:100DA000FB7B1946104603F065F802F06DFF034621
:100DB000184603F082F8012005F002FFC2E700BFE9
:100DC000004C0040B0B58AB000AF786001F08EFDF5
:100DD0000346002B2ED0002001F094FD1CF072FE83
:100DE000034687F8273097F82730002B1ED00821BC
:100DF0001248FFF7BDFE124B07F10C041D460FCD44
:100E00000FC495E8070003C422800234130C23703A
:100E100007F10C031846FFF76DFA03469AB207F183
:100E20000C03114618461CF015FE03E00821034888
:100E3000FFF790FE642005F0C3FEC7E700000258EC
:100E4000E002020880B582B000AF78601CF01AFDA5
:100E5000002005F011FE00BF0837BD4680BD000030
:100E600080B582B002AF0EF0A9FE00F083F800F06A
:100E7000FDF800F0F9FD00F057FD00F0A5FA00F0D4
:100E800007FB00F023F900F001FA00F0EBFB00F0A3
:100E90009BFC00F081FB1CF0F5FC01F055FC01F01F
:100EA0006BFB02F059FE2948FFF7E2FE274B0C22AC
:100EB0001A7026480DF07EFB0EF098F806214FF4CC
:100EC000FA700EF039F8FF23214A052103200EF0B5
:100ED00051FCFF231E4A052102200EF04BFCFF238C
:100EE0001B4A052101200EF045FC00230193042339
:100EF000009300234FF4A0621649174805F06DFCDB
:100F0000002301930423009300234FF4A0621349AC
:100F1000134805F062FC002301930623009300238D
:100F20004FF4A0620F49104805F057FC00230193CD
:100F30000423009300234FF4A0620C490C4805F0F1
:100F40004CFC05F0DDFE00BFFDE700BF643F04245C
:100F5000943F042450030208450E00085C03020875
:100F6000DD0C0008640302083D0D00087803020848
:100F7000C50D000880B59CB000AF07F124034C22DA
:100F8000002118461DF0AAFD3B1D20220021184615
:100F90001DF0A4FD022013F061F800233B60314BEB
:100FA000DB6A304A23F00103D3622E4BDB6A03F085
:100FB00001033B602C4B9B6923F440432A4A43F4D2
:100FC00080439361284B9B6903F440433B603B683B
:100FD00000BF254B9B6903F40053B3F5005FF8D1C4
:100FE00001237B624FF48033BB620223BB64022384
:100FF000FB6402233B650C237B650223BB65032353
:10100000FB6502233B660C237B660223BB66002341
:10101000FB6607F12403184613F08AF80346002BF9
:1010200001D000F07DFD3F237B600323BB600023E4
:10103000FB6000233B6100237B614023BB610023F5
:10104000FB6100233B623B1D0121184613F0CAFCE3
:101050000346002B01D000F063FD00BF7037BD4692
:1010600080BD00BF000400580048025880B5B0B0F1
:1010700000AF3B46C022002118461DF02FFD4FF463
:1010800000224FF00003C7E900230223BB600C23BA
:10109000FB6003233B6102237B610223BB61C0230E
:1010A000FB6120233B6200237B620023C7F8A4304E
:1010B0003B46184614F064F80346002B01D000F0BC
:1010C0002FFD00BFC037BD4680BD000080B594B085
:1010D00000AF07F1440300221A605A609A6007F1DA
:1010E0002C0300221A605A609A60DA601A615A6111
:1010F00007F11C0300221A605A609A60DA603B1DF7
:1011000000221A605A609A60DA601A615A612020DF
:10111000FFF73EFD0120FFF757FD40237B600323CF
:10112000BB6000237B613B1D1946504817F0BCF99A
:101130004FF04070FFF7FCFC00214D48FFF74AFBE1
:1011400000237B640023FB640023BB6407F144039A
:101150001946474817F058F80023FB6202233B6307
:1011600000237B634FF40053BB634FF480533B6415
:1011700007F12C0319463E4817F072F800213C484D
:10118000FFF7C6FA4FF48023FB6100233B6207F1AF
:101190001C031946374816F0DFFF3548FFF730FBD0
:1011A0003348FFF73FFB344B1B689B09334AA2FBD4
:1011B00003239A0913469B0013445B001A46304BE5
:1011C000A3FB0223DB083B6002E03B68013B3B6082
:1011D0003B68002BF9D1012206212548FFF76CFA64
:1011E000002201212248FFF7A6FA40F2FF720121F6
:1011F0001F48FFF7CBFA01211D48FFF72AFA214AC1
:101200000C211B48FFF758FA00221E491848FFF727
:1012100092FA40F2FF721B491548FFF7B7FA1949D5
:101220001348FFF716FA184A12211148FFF744FA3B
:10123000002215490E48FFF77EFA40F2FF7212496C
:101240000B48FFF7A3FA10490948FFF702FA0848CC
:10125000FFF7FCFA00BF0648FFF70CFB0346002B24
:10126000F9D000BF00BF5037BD4680BD0000025816
:10127000002002400023024000000024632D3E05B0
:10128000CDCCCCCC020030040800900C80B590B0DE
:1012900000AF07F1340300221A605A609A6007F128
:1012A0001C0300221A605A609A60DA601A615A615F
:1012B0003B1D00221A605A609A60DA601A615A6116
:1012C0002020FFF765FC0420FFF77EFC10237B60E5
:1012D0000323BB6000237B613B1D1946344817F094
:1012E000E3F800213348FFF775FA00237B630023FE
:1012F000FB630023BB6307F1340319462D4816F046
:1013000083FF0023FB6100233B6200237B624FF4D9
:101310000053BB624FF480533B6307F11C03194633
:10132000244816F09DFF00212248FFF7F1F92148DB
:10133000FFF766FA1F48FFF775FA1F4B1B689B09FA
:101340001E4AA2FB03239A0913469B0013445B0029
:101350001A461B4BA3FB0223DB083B6002E03B6801
:10136000013B3B603B68002BF9D1164A062111482E
:10137000FFF7A2F9002213490E48FFF7DCF940F20B
:10138000FF7210490B48FFF701FA0E490948FFF7B1
:1013900060F90848FFF75AFA00BF0648FFF76AFAF3
:1013A0000346002BF9D000BF00BF4037BD4680BDCB
:1013B000000802580021024000000024632D3E0571
:1013C000CDCCCCCC1000C01080B500AF2E4B2F4A36
:1013D0001A602D4B00229A602B4B0022DA602A4BB8
:1013E00000221A74284B00225A74274B00229A7448
:1013F000254B0A225A61244B01229A61224B082272
:10140000DA61214B01221A621F4B01225A621E4BE4
:1014100001229A621C4B0122DA621B4B01221A63E1
:10142000194B00225A63184B00229A63164B012273
:10143000DA63154B08221A64134B04225A64124BC8
:1014400000229A64104B0422DA640F4B00221A65C2
:101450000D4B04225A650C4B00229A650A4B002260
:10146000DA65094B08221A66074B00225A66064BBA
:1014700004229A6604480EF00DFD0346002B01D0AD
:1014800000F04EFB00BF80BD4C02002400A40040D1
:1014900080B5BEB000AF07F1DC0300221A605A60CD
:1014A0009A60DA601A615A619A6107F1C4030022F6
:1014B0001A605A609A60DA601A615A613B46C0222B
:1014C000002118461DF00AFB4FF008024FF0000300
:1014D000C7E900230023C7F884303B46184613F0C1
:1014E0004FFE0346002B01D000F01AFB0220FFF74D
:1014F0006BFBC023C7F8C4300223C7F8C8300023F1
:10150000C7F8CC300123C7F8D0300023C7F8D43057
:101510000423C7F8D83007F1C40319461B4816F056
:10152000C3FF4FF40010FFF76BFB1948FFF7FEF9FC
:10153000002200211648FFF7D1F91548FFF7E6F918
:101540001348FFF7BAF91248FFF7A7F90023C7F8C5
:10155000DC30104BC7F8E0300023C7F8E43000233C
:10156000C7F8E8300023C7F8EC300023C7F8F030A4
:101570000023C7F8F43007F1DC031946044817F0DC
:10158000A5F800BFF837BD4680BD00BF0004025873
:1015900000540040CE9F900080B5ADF5127D00AFA5
:1015A0002B4B2C4A1A602A4B00225A60284B0022EF
:1015B0009A60274B4FF40042DA60254B00221A61F3
:1015C000234B08225A6122480FF0E2FF0346002B0A
:1015D00001D000F0A5FA01221F4920480AF008F8BE
:1015E000034687F8473297F847320D2B17D107F19A
:1015F00044024FF40073002117480BF04BFA0346E6
:1016000087F8473297F84732002B1BD10122124945
:10161000124809F0EDFF034687F8473212E097F8C9
:101620004732002B0ED097F84732381D0C4A402124
:101630001DF0C2F802F028FB02463B1D1946104679
:1016400002F0CCFC00BF07F51277BD4680BD00BF9D
:10165000EC0200240070005284030208241E0024BF
:101660008803020880B5C0B000AF07F1D803282274
:10167000002118461DF032FA07F1C00300221A605B
:101680005A609A60DA601A615A6107F58073A3F5AF
:1016900080731846C0231A4600211DF01FFA07F573
:1016A0008073A3F580714FF480524FF00003C1E9BD
:1016B000002307F58073A3F5807300221A663B466A
:1016C000184613F05DFD0346002B01D000F028FA08
:1016D0004FF48050FFF7B0FA4020FFF775FA08206A
:1016E000FFF772FA4FF40063C7F8C0300223C7F85F
:1016F000C4300023C7F8C8300023C7F8CC3000231B
:10170000C7F8D0300523C7F8D43007F1C003194615
:101710002A4816F0C9FE8023C7F8C0300223C7F854
:10172000C4300023C7F8C8300023C7F8CC300023EA
:10173000C7F8D0300523C7F8D43007F1C0031946E5
:101740001F4816F0B1FE4FF4C123C7F8D8304FF44C
:101750008003C7F8DC300723C7F8E0300023C7F860
:10176000E4300023C7F8E8304FF08063C7F8EC306E
:101770004FF0A043C7F8F0300023C7F8F43000233F
:10178000C7F8F8300023C7F8FC3007F1D803194632
:101790000C4818F05DFB00210A48FFF7E7F800212C
:1017A0000848FFF7F6F80748FFF706F90548FFF77E
:1017B000CDF800BF07F58077BD4680BD0018025800
:1017C000000C02580030014080B5C0B000AF07F1F6
:1017D000D8032822002118461DF080F907F1C00324
:1017E00000221A605A609A60DA601A615A6107F53D
:1017F0008073A3F580731846C0231A4600211DF09C
:101800006DF907F58073A3F580714FF480524FF0A6
:101810000003C1E9002307F58073A3F5807300225C
:101820001A663B46184613F0ABFC0346002B01D06A
:1018300000F076F94FF48040FFF7E2F90820FFF757
:10184000C3F90420FFF7C0F90823C7F8C03002230A
:10185000C7F8C4300023C7F8C8300023C7F8CC301D
:101860000023C7F8D0300523C7F8D43007F1C003F0
:1018700019462A4816F018FE0623C7F8C03002237E
:10188000C7F8C4300023C7F8C8300023C7F8CC30ED
:101890000023C7F8D0300523C7F8D43007F1C003C0
:1018A00019461F4816F000FE0023C7F8D8304FF441
:1018B0008003C7F8DC300723C7F8E0300023C7F8FF
:1018C000E4300023C7F8E8304FF08063C7F8EC300D
:1018D0004FF0A043C7F8F0300023C7F8F4300023DE
:1018E000C7F8F8300023C7F8FC3007F1D8031946D1
:1018F0000C4818F0ADFA00210A48FFF737F800212C
:101900000848FFF746F80748FFF756F80548FFF77D
:101910001DF800BF07F58077BD4680BD000C02585A
:10192000000802580038004080B5BEB000AF07F193
:10193000D8032022002118461DF0D0F807F1C0037B
:1019400000221A605A609A60DA601A615A613B4656
:10195000C022002118461DF0C1F84FF002024FF0DE
:101960000003C7E900230023BB673B46184613F07A
:1019700007FC0346002B01D000F0D2F84FF4002002
:10198000FFF73EF90120FFF71FF90323C7F8C03026
:101990000223C7F8C4300023C7F8C8300023C7F8B3
:1019A000CC300023C7F8D0300823C7F8D43007F173
:1019B000C00319462A4816F077FDFEF7C1FD03461D
:1019C000002200211846FEF711FE03461946342076
:1019D000FEF7E2FD3420FEF7C1FD0023C7F8D83042
:1019E0004FF4E133C7F8DC300023C7F8E0300023C0
:1019F000C7F8E4300023C7F8E8300C23C7F8EC3010
:101A00000023C7F8F0300023C7F8F43007F1D803FB
:101A10001946144818F038FB1248FEF7EDFF002174
:101A20001048FEF7F9FF00210E48FFF71CF80D489B
:101A3000FFF740F80B48FEF7CFFF00BF0948FFF75C
:101A40004FF80346002BF9D00648FFF75DF8034630
:101A5000002BF3D000BF00BFF837BD4680BD00BFEC
:101A600000000258004C004080B586B000AF3B46F5
:101A700000221A605A609A60DA601A615A61042082
:101A8000FFF7A2F80220FFF79FF84020FFF79CF82D
:101A90000820FFF799F80120FFF796F84FF400515E
:101AA0001448FFF757F818211348FFF761F84FF46F
:101AB00000533B6001237B600023BB600023FB607D
:101AC00000233B613B4619460A4816F0EDFC1823FB
:101AD0003B6001237B600023BB600023FB6000238D
:101AE0003B613B461946044816F0DEFC00BF183740
:101AF000BD4680BD000C02580000025880B582B07F
:101B000000AF78607B681B68044A934201D10EF0F5
:101B100091F800BF0837BD4680BD00BF00000140FE
:101B200080B400AF72B600BF00BFFDE780B483B0E1
:101B300000AF0A4BD3F8F430084A43F00203C2F86E
:101B4000F430064BD3F8F43003F002037B607B687B
:101B500000BF0C37BD465DF8047B70470044025857
:101B600080B5BAB000AF786007F1D40300221A60E4
:101B70005A609A60DA601A6107F11003C0220021EE
:101B800018461CF0ABFF7B681B682B4A93424FD171
:101B90004FF400424FF00003C7E904234FF0805395
:101BA000C7F8803007F11003184613F0E9FA03462E
:101BB000002B01D0FFF7B4FF204BD3F8EC301F4AC5
:101BC00043F48073C2F8EC301C4BD3F8EC3003F4D0
:101BD0008073FB60FB68194BD3F8E030174A43F081
:101BE0000203C2F8E030154BD3F8E03003F00203F3
:101BF000BB60BB684FF44053C7F8D4300223C7F82A
:101C0000D8300023C7F8DC300023C7F8E0300923C0
:101C1000C7F8E43007F1D403194609480FF008FB70
:101C20000022052114200EF00DF914200EF024F9E5
:101C300000BFE837BD4680BD00A400400044025804
:101C40000004025880B5BCB000AF786007F1DC0337
:101C500000221A605A609A60DA601A6107F118036C
:101C6000C022002118461CF039FF7B681B684B4AD4
:101C7000934240F08F804FF480324FF00003C7E969
:101C800006230023BB6607F11803184613F078FA01
:101C90000346002B01D0FFF743FF414BD3F8D4306C
:101CA0003F4A43F48033C2F8D4303D4BD3F8D430AC
:101CB00003F480337B617B69394BD3F8E030384AD9
:101CC00043F00403C2F8E030354BD3F8E03003F0C2
:101CD00004033B613B69324BD3F8E030304A43F0B8
:101CE0000203C2F8E0302E4BD3F8E03003F00203D9
:101CF000FB60FB682A4BD3F8E030294A43F0080325
:101D0000C2F8E030264BD3F8E03003F00803BB60A4
:101D1000BB684FF4FE53C7F8DC300223C7F8E0304D
:101D20000023C7F8E4300323C7F8E8300C23C7F8D2
:101D3000EC3007F1DC0319461A480FF079FA4FF43A
:101D40004073C7F8DC300223C7F8E0300023C7F83F
:101D5000E4300323C7F8E8300C23C7F8EC3007F170
:101D6000DC03194610480FF063FA0423C7F8DC308F
:101D70000223C7F8E0300023C7F8E4300323C7F894
:101D8000E8300C23C7F8EC3007F1DC0319460748AC
:101D90000FF04EFA00BFF037BD4680BD0070005214
:101DA000004402580008025800040258000C02586F
:101DB00080B58EB000AF78607B680F2B42D80022D0
:101DC000796819200EF03EF819200EF055F8234AD4
:101DD0007B681360224BD3F8F030214A43F00103B3
:101DE000C2F8F0301E4BD3F8F03003F00103BB60B3
:101DF000BB6807F10C0207F110031146184613F0F7
:101E00007DF913F065F978637B6B164AA2FB032317
:101E10009B0C013B3B63144B144A1A60124B40F27B
:101E2000E732DA60104A3B6B53600F4B00221A61B5
:101E30000D4B00229A600C4815F0A0FE0346002BC3
:101E400007D101E0012305E0074815F0F9FE03463C
:101E500000E0012318463837BD4680BDD800002475
:101E60000044025883DE1B43640500240000014047
:101E700080B400AF00BFFDE780B400AF00BFFDE756
:101E800080B400AF00BFFDE780B400AF00BFFDE746
:101E900080B400AF00BFFDE780B400AF00BFBD4617
:101EA0005DF8047B704780B500AF06F055FC00BFBD
:101EB00080BD000080B500AF02480EF0ABFC00BF53
:101EC00080BD00BF4C02002480B500AF024815F071
:101ED0002FFF00BF80BD00BF6405002480B500AFA8
:101EE000024800F0CEFB00BF80BD00BF004C0040A8
:101EF00080B500AF024810F052FF00BF80BD00BFA8
:101F00003855042480B400AF01231846BD465DF85F
:101F1000047B704780B582B000AF786039601CF0F8
:101F20006DFE034616221A604FF0FF33184608373D
:101F3000BD4680BD80B582B000AF78604FF0FF3104
:101F40007868FFF7E7FF00BFFDE780B586B000AF18
:101F5000F860B9607A6000237B610AE0AFF300802B
:101F60000146BB685A1CBA60CAB21A707B69013359
:101F70007B617A697B689A42F0DB7B681846183788
:101F8000BD4680BD80B586B000AFF860B9607A60AC
:101F900000237B6109E0BB685A1CBA601B781846B5
:101FA000AFF300807B6901337B617A697B689A4279
:101FB000F1DB7B6818461837BD4680BD80B483B01E
:101FC00000AF78604FF0FF3318460C37BD465DF820
:101FD000047B704780B483B000AF786039603B68A1
:101FE0004FF400525A60002318460C37BD465DF886
:101FF000047B704780B483B000AF7860012318463B
:102000000C37BD465DF8047B704780B485B000AFE7
:10201000F860B9607A60002318461437BD465DF851
:10202000047B704780B586B000AF7860144A154BCA
:10203000D31A7B617B693B61134B1B68002B02D178
:10204000114B124A1A60104B1A687B6813443A69A4
:102050009A4207D21CF0D2FD03460C221A604FF0C0
:10206000FF3309E0084B1B68FB60074B1A687B686D
:102070001344054A1360FB6818461837BD4680BDF7
:102080000000082400040000B0050024885D04243A
:10209000DFF838D0FEF73AFAFEF78AF90C480D4916
:1020A0000D4A002302E0D458C4500433C4188C42B3
:1020B000F9D30A4A0A4C002301E013600432A24219
:1020C000FBD31CF0A1FDFEF7CBFE704700000824F7
:1020D00000000024300200243408030830020024E9
:1020E000885D0424FEE7000080B483B000AF786010
:1020F0007B689A68054B134043F004027B689A6042
:1021000000BF0C37BD465DF8047B7047C0FFFF7F02
:1021100080B483B000AF78607B681B6C9BB21846BC
:102120000C37BD465DF8047B704780B483B000AFC8
:1021300078607B681B6803F00403042B01D1012342
:1021400000E0002318460C37BD465DF8047B70475D
:1021500080B483B000AF78607B6804221A6000BF4F
:102160000C37BD465DF8047B7047000080B500AFBA
:102170000D48FFF7EDFF0C48FFF7B6FF00BF0A4818
:10218000FFF7D3FF0346002BF9D00748FFF7E0FF26
:102190000548FFF7BDFF03461A46044B1A80034B60
:1021A0001B88184680BD00BF00210240BA050024EC
:1021B00080B584B000AF0346FB711D48FFF7C8FF30
:1021C0001B48FFF791FF0023FB6015E000BF184894
:1021D000FFF7ABFF0346002BF9D01548FFF7B8FF18
:1021E0001348FFF795FF03461946124AFB6822F889
:1021F0001310FB680133FB60FB68022BE6DDFB7903
:10220000032B0CD0032B0DDC012B02D0022B03D0AF
:1022100008E0084B1B8807E0064B5B8804E0054B91
:102220009B8801E04FF6FF7318461037BD4680BD0E
:1022300000200240B405002480B483B000AF786071
:102240007B681B6843F400727B681A6000BF0C3720
:10225000BD465DF8047B704780B483B000AF786002
:102260007B685B6903F00203022B01D1012300E0CC
:10227000002318460C37BD465DF8047B704780B4D8
:1022800083B000AF78600B46FB707B682033FA7830
:102290001A7000BF0C37BD465DF8047B704780B5EF
:1022A00082B000AF78600B46FB7000BF7868FFF724
:1022B000D3FF0346002BF9D0FB7819467868FFF767
:1022C000DEFF7868FFF7B8FF00BF0837BD4680BD66
:1022D00080B483B000AF78607B68DB6903F00203F1
:1022E000022B01D1012300E0002318460C37BD4624
:1022F0005DF8047B704780B483B000AF78607B6882
:10230000DB6903F00403042B01D1012300E0002367
:1023100018460C37BD465DF8047B704780B483B027
:1023200000AF78607B68DB6903F00803082B01D1FC
:10233000012300E0002318460C37BD465DF8047BFE
:10234000704780B483B000AF78607B68DB6903F0CE
:102350002003202B01D1012300E0002318460C3775
:10236000BD465DF8047B704780B483B000AF7860F1
:102370007B68DB6903F08003802B01D1012300E03F
:10238000002318460C37BD465DF8047B704780B4C7
:1023900083B000AF78607B6802221A6200BF0C37FE
:1023A000BD465DF8047B704780B483B000AF7860B1
:1023B0007B6804221A6200BF0C37BD465DF8047BBF
:1023C000704780B483B000AF78607B6808221A62DF
:1023D00000BF0C37BD465DF8047B704780B489B000
:1023E00000AF78607B68FB60FB6853E8003FBB6030
:1023F000BB6843F02003FB617B68FA69BA617B61CB
:102400007969BA6941E800233B613B69002BE9D156
:1024100000BF00BF2437BD465DF8047B704780B421
:1024200089B000AF78607B68FB60FB6853E8003FD1
:10243000BB60BB6843F08003FB617B68FA69BA61EB
:102440007B617969BA6941E800233B613B69002BF4
:10245000E9D100BF00BF2437BD465DF8047B70475B
:1024600080B489B000AF78607B68FB60FB6853E89C
:10247000003FBB60BB6823F08003FB617B68FA69A7
:10248000BA617B617969BA6941E800233B613B69C4
:10249000002BE9D100BF00BF2437BD465DF8047BA7
:1024A000704780B483B000AF78607B681B6803F02E
:1024B0002003202B01D1012300E0002318460C3714
:1024C000BD465DF8047B704780B483B000AF786090
:1024D0007B681B6803F08003802B01D1012300E09F
:1024E000002318460C37BD465DF8047B704780B466
:1024F00083B000AF78607B685B6ADBB218460C374C
:10250000BD465DF8047B704780B483B000AF78604F
:102510000B46FB70FA787B689A6200BF0C37BD46A9
:102520005DF8047B7047000080B485B000AF786030
:102530000023FB6013E00F4AFB68642101FB03F3F7
:1025400013441B687A689A4206D1FB68642202FB36
:1025500003F3084A134406E0FB680133FB60FB68A1
:10256000002BE8DD002318461437BD465DF8047BD8
:10257000704700BF0800002480B582B002AF4FF45E
:10258000806300930A4B0B4A01210B480DF036FA89
:102590004FF480630093094B094A022109480DF06A
:1025A0002DFA0948FFF71AFF00231846BD4680BDE3
:1025B000BC0500249C0302080C000024BC09002474
:1025C000A80302083C000024004C004080B584B001
:1025D00000AF78607868FFF7A7FFF860FB68002B12
:1025E00002D14FF0FF330EE0FB68043307F10B021A
:1025F000114618460DF07BFA0346002B01D0FB7AFA
:1026000001E04FF0FF3318461037BD4680BD80B55E
:1026100084B000AF78600B46FB707868FFF784FFEA
:10262000F860FB68002B11D000BFFB683433FA78E8
:10263000114618460DF015FA034683F00103DBB28C
:10264000002BF2D17868FFF7EAFE00E000BF1037F8
:10265000BD4680BD80B584B000AF78607868FFF774
:1026600063FFF860FB68002B01D1002305E0FB68E5
:10267000043318460DF07CFA034618461037BD4661
:1026800080BD80B584B000AF78607868FFF74CFFFC
:10269000F860FB68002B53D07868FFF752FE0346C2
:1026A000002B2CD07868FFF7FCFE0346002B26D0C9
:1026B0007868FFF71CFF0346FB727868FFF72EFE71
:1026C0000346002B02D07868FFF77BFE7868FFF79F
:1026D000FFFD0346002B02D07868FFF758FE7868AC
:1026E000FFF709FE0346002B02D07868FFF75CFE77
:1026F000FB680433FA7A114618460DF0B2F978688F
:10270000FFF732FE0346002B1BD07868FFF7DCFE94
:102710000346002B15D0FB68343307F10A0211463B
:1027200018460DF0E4F90346002B05D0BB7A194694
:102730007868FFF7E9FE04E07868FFF791FE00E0B3
:1027400000BF1037BD4680BD80B582B002AF4FF4E8
:1027500000630093084B094A032109480DF04EF924
:102760004FF400630093074B074A042107480DF01C
:1027700045F900BFBD4680BDEC150024B403020836
:10278000EC1D0024BC0D0024BC030208BC15002471
:1027900080B582B000AF0346FB71FB79194604484F
:1027A0000DF05FF9034618460837BD4680BD00BFEF
:1027B000EC1D002480B582B000AF0346FB71FB79AD
:1027C000194604480DF04DF9034618460837BD4632
:1027D00080BD00BFBC15002480B584B000AF786018
:1027E00039600023FB600023BB600FE07A68BB68A0
:1027F00013441B781846FFF7CBFF0346002B02D08B
:10280000FB680133FB60BB680133BB60BA683B689F
:102810009A42EBD3FB6818461037BD4680BD80B5A1
:1028200084B000AF786039600023FB600023BB6098
:102830000FE07A68BB6813441B781846FFF7BAFFAD
:102840000346002B02D0FB680133FB60BB680133F9
:10285000BB60BA683B689A42EBD3FB6818461037F6
:10286000BD4680BD80B582B000AF7860796804480D
:102870000DF03DF9034618460837BD4680BD00BF40
:10288000BC15002480B400AF034B01221A7000BFB6
:10289000BD465DF8047B70471C1E002480B400AF69
:1028A000034B01221A7000BFBD465DF8047B7047E0
:1028B0001D1E002480B400AF034B1B78DBB218460A
:1028C000BD465DF8047B70471C1E002480B483B0B5
:1028D00000AF0346FB71044AFB79137000BF0C374D
:1028E000BD465DF8047B70471C1E002480B400AF19
:1028F000034B1B78DBB21846BD465DF8047B70477E
:102900001D1E002480B483B000AF0346FB71044A4F
:10291000FB79137000BF0C37BD465DF8047B704730
:102920001D1E002480B584B000AF786039603B681C
:10293000002B02D07B68002B01D101230BE039680A
:102940007868FFF749FFF860FA683B689A420CBF65
:1029500001230023DBB218461037BD4680BD0000BE
:1029600080B400AFBFF34F8F00BF064BDB6803F4AA
:10297000E0620449044B1343CB60BFF34F8F00BFA9
:1029800000BFFDE700ED00E00400FA0580B5C6B029
:1029900002AF07F58873A3F58673186007F588738F
:1029A000A3F586731968314809F0CFFC034687F810
:1029B0000F3197F80F31002B02D097F80F3150E00C
:1029C0002B492A4809F032FD034687F80F3197F862
:1029D0000F31002B3AD1264B9B7D002B36D0254959
:1029E0002548FDF77DFC0346002B2DD023492248C6
:1029F000FDF776FC0346002B26D007F58873A3F578
:102A0000867307F10C001C4A00921B681C4A4FF4A5
:102A100080711BF0D1FE164B1B7A03F01003002BC4
:102A20000CD007F10C031846FFF7B0FF034687F8F8
:102A30000F3197F80F31002BC2D007E007F10C03DC
:102A4000184609F07FFDBBE700BFB9E7074809F06A
:102A5000D5FC07F58873A3F58673186809F072FD35
:102A60000346184607F58877BD4680BD88220024B6
:102A7000B8220024C4030208CE220024C80302089E
:102A8000CC03020880B588B000AFF860B9607A6006
:102A900007F11403074A0A2118461BF08DFE07F1BF
:102AA00014031946F86801F099FA00BF2037BD46B3
:102AB00080BD00BFCC05020880B584B000AFF860CF
:102AC000B9607A60FFF74CFF80B59CB002AFF86048
:102AD000B9607A60B86801F079FB0346A7F8663000
:102AE000B7F86630012B04D83449F86801F076FA5B
:102AF00060E00121B86801F033FB38660221B86854
:102B000001F02EFBF8653B6E002B02D0FB6D002B15
:102B100004D12A49F86801F061FA4BE00022002153
:102B2000386E1BF00DFDB86500220021F86D1BF01A
:102B300007FD7865BB6D002B08DBBB6DFF2B05DC4B
:102B40007B6D002B02DB7B6DFF2B04DD1C49F868DD
:102B500001F044FA2EE0BB6D87F853307B6D87F8A7
:102B6000523097F8522097F85310002300934FF4F7
:102B70007A7302200BF01CFB0346124A1360114BC0
:102B80001B68002B04D11049F86801F027FA11E006
:102B900097F8532097F8523007F11000009313462E
:102BA0000A4A40211BF008FE07F110031946F86895
:102BB00001F014FA6837BD4680BD00BFD405020895
:102BC000F0050208201E002418060208400602082C
:102BD00080B5C8B002AF07F58C73A3F58673186093
:102BE00007F58C73A3F58873196007F58C73A3F54B
:102BF0008A731A6007F58C73A3F58873186801F05F
:102C0000E5FA0346A7F80A31B7F80A31022B08D8CB
:102C100007F58C73A3F58673D549186801F0DEF9C2
:102C2000A2E107F58C73A3F588730121186801F000
:102C300097FAC7F8040107F58C73A3F5887302218E
:102C4000186801F08DFAC7F8000100220021D7F8BA
:102C500004011BF075FCC7F8FC0000220021D7F826
:102C600000011BF06DFCC7F8F800D7F8FC30002B12
:102C70000BDBD7F8FC30FF2B07DCD7F8F830002B44
:102C800003DBD7F8F830FF2B08DD07F58C73A3F5CD
:102C90008673B849186801F0A1F965E1D7F8FC30EE
:102CA00087F8F730D7F8F83087F8F6300023C7F800
:102CB00014310323A7F8123125E0B7F8122107F5E4
:102CC0008C73A3F588731146186801F049FAC7F8A8
:102CD000D800D7F8D800FDF70DFB0246D7F814311D
:102CE0001344C7F81431B7F81221B7F80A319A42E1
:102CF00004D0D7F814310133C7F81431B7F81231C2
:102D00000133A7F81231B7F81221B7F80A319A4205
:102D1000D3D9D7F81431002B08D107F58C73A3F55C
:102D200086739549186801F059F91DE14FF47A73DB
:102D3000C7F8F03097F8F62097F8F71000230093C3
:102D4000D7F8F03002200BF033FAC7F8EC00D7F8D0
:102D5000EC30002B08D107F58C73A3F586738749F7
:102D6000186801F03BF9FFE0D7F814010AF07CFE87
:102D7000C7F8E800D7F8E830002B0CD1D7F8EC0002
:102D80000BF0B1F907F58C73A3F586737C491868CD
:102D900001F024F9E8E007F58C73A3F588730321AB
:102DA000186801F0DDF9C7F8E400D7F8E400FDF792
:102DB000A1FAC7F8E000D7F8E03003F00103002BD8
:102DC00010D007F58C73A3F586736E49186801F06F
:102DD00005F9D7F8EC000BF086F9D7F8E8000AF00F
:102DE000DFFEC1E0D7F8E0305B089AB2D7F8E830F0
:102DF0005A810023C7F80C3144E0D7F80C315B004E
:102E0000D7F8E42013441B7887F89430D7F80C31B6
:102E10005B000133D7F8E42013441B7887F8953022
:102E2000002387F896300023C7F8903007F190020E
:102E300007F19403544918461BF016FD0346012B75
:102E400010D007F58C73A3F586735049186801F00C
:102E5000C5F8D7F8EC000BF046F9D7F8E8000AF00F
:102E60009FFE81E0D7F89030D9B2D7F8E820D7F8A4
:102E70000C31134410330A461A70D7F80C31013361
:102E8000C7F80C31D7F8E8305B891A46D7F80C310F
:102E90009342B2D34FF47A72D7F8E810D7F8EC0027
:102EA0000BF0D6FC0346002B10D1D7F8E8000AF04F
:102EB00077FED7F8EC000BF016F907F58C73A3F545
:102EC00086733349186801F089F84DE04FF47A7140
:102ED000D7F8EC000BF0B2FBC7F8DC00D7F8DC3019
:102EE000002B22D0D7F8DC305B891946D7F8DC30CC
:102EF0005B891A46D7F8DC30103307F110000193D4
:102F000000920B46234A80211BF056FC07F1100269
:102F100007F58C73A3F586731146186801F05EF807
:102F2000D7F8DC000AF03CFE07E007F58C73A3F548
:102F300086731949186801F051F8D7F8EC000BF0C6
:102F4000D2F8D7F8E8305B8907F19800134A40219E
:102F50001BF032FC07F1980207F58C73A3F586731A
:102F60001146186801F03AF807F58C77BD4680BD28
:102F70005C06020884060208A4060208B4060208D9
:102F8000C8060208E00602080C070208100702083B
:102F900024070208340702084C07020868070208E1
:102FA00080B584B000AFF860B9607A60064B1B68EA
:102FB00018460BF098F80549F86801F00FF800BFC3
:102FC0001037BD4680BD00BF201E002478070208D0
:102FD00080B59CB002AFF860B9607A60B86801F063
:102FE000F5F80346A7F86630B7F86630002B04D131
:102FF0002749F86800F0F2FF47E00121B86801F0C6
:10300000AFF8386600220021386E1BF099FAF86597
:10301000FB6D002B02DDFB6D032B04DD1D49F86801
:1030200000F0DCFF31E0FB6DDBB21846FFF7C0F8C3
:103030000346A7F85A30B7F85A304FF6FF7293425A
:1030400004D11549F86800F0C9FF1EE0B7F85A30FE
:1030500040F6E44203FB02F2104B1344104A82FB99
:1030600003121A44D213DB17D31A7B6507F114003D
:103070007B6D0093FB6D0B4A40211BF09DFB07F11C
:1030800014031946F86800F0A9FF6837BD4680BDF3
:1030900084070208A4070208C0070208F4010CFE16
:1030A00001800080DC07020880B596B000AFF860B0
:1030B000B9607A60FFF75AF80346A7F85630B7F8B8
:1030C000562013465B0113440E4A82FB03121A4436
:1030D000D213DB17D31A40F2252202FB03F33B6520
:1030E00007F110003B6D084A40211BF065FB07F11A
:1030F00010031946F86800F071FF00BF5837BD464D
:1031000080BD00BF018000800008020880B584B047
:1031100000AFF860B9607A60AA210348FFF7BFF8F2
:1031200000BF1037BD4680BD0038004080B596B066
:1031300000AFF860B9607A60B86801F047F80346FC
:10314000A7F85630B7F85630002B04D11949F86863
:1031500000F044FF2BE00121B86801F001F8386568
:10316000386D09F097FA03461A46134B1A70124B42
:103170001B78002B0DD107F110003B6D0F4A402149
:103180001BF01AFB07F110031946F86800F026FF40
:103190000DE0094B1B7807F11000094A40211BF094
:1031A0000BFB07F110031946F86800F017FF5837BA
:1031B000BD4680BD28080208842200244808020871
:1031C0006008020880B596B000AFF860B9607A6018
:1031D000B86800F0FBFF0346A7F85630B7F8563042
:1031E000002B04D11A49F86800F0F8FE2DE0012107
:1031F000B86800F0B5FF38650A22396D154808F047
:1032000041FA03461A46144B1A70134B1B78002BD5
:103210000DD107F110003B6D104A40211BF0CCFA94
:1032200007F110031946F86800F0D8FE0DE00A4BCC
:103230001B7807F110000A4A40211BF0BDFA07F184
:1032400010031946F86800F0C9FE5837BD4680BD26
:10325000780802085C2000248422002494080208D4
:10326000A808020880B5A2B002AFF860B9607A6021
:10327000B86800F0ABFF0346A7F87430B7F87430B5
:10328000022B04D85849F86800F0A8FEA9E00023F2
:10329000FB670023BB670223A7F8763021E0B7F86D
:1032A00076301946B86800F05BFFB8664F49B86ED3
:1032B000FDF716F80346002B02D10123FB670BE054
:1032C0004B49B86EFDF70CF80346002B02D10023E2
:1032D000FB6701E0BB6EBB67B7F876300133A7F838
:1032E0007630B7F87620B7F874309A42D7D9BB6FEA
:1032F000002B04D13F49F86800F070FE71E0032113
:10330000B86800F02DFF38670121B86800F028FF89
:10331000F866FB6F002B32D00A22396F364808F06E
:10332000B1F903461A46354B1A70344B1B78002B03
:1033300010D0324B1B7807F1180000933B6F304AD6
:1033400050211BF039FA07F118031946F86800F00C
:1033500045FE46E0F86EFCF7CDFF024607F1140388
:10336000F96E254808F04BFC07F1140302222549A9
:10337000214808F044FC204808F028FE31E03222C1
:10338000396F1D4808F07EF903461A461B4B1A7028
:103390001A4B1B78002B10D0184B1B7807F1180024
:1033A00000933B6F164A50211BF006FA07F11803F1
:1033B0001946F86800F012FE13E0F86EFCF79AFF69
:1033C000024607F11403F96E0B4808F018FC07F1E8
:1033D000140302220B49084808F011FC064808F0C3
:1033E000F5FD8037BD4680BDBC080208E408020830
:1033F000E8080208EC0802085C200024842200246B
:10340000040902082409020880B5C6B000AF07F518
:103410008C73A3F58673186007F58C73A3F5887316
:10342000196007F58C73A3F58A731A6007F58C731E
:10343000A3F58873186800F0C9FE0346A7F8163193
:10344000B7F81631002B08D107F58C73A3F58673F6
:103450003249186800F0C2FD5BE007F58C73A3F5F4
:1034600088730121186800F07BFEC7F81001012263
:10347000D7F810112A4808F005F903461A46294BD7
:103480001A70284B1B78002B12D007F11000D7F8C8
:103490001031254A80211BF08FF907F1100207F542
:1034A0008C73A3F586731146186800F097FD30E021
:1034B00007F190011D4B7F22194808F06DFA034671
:1034C0001A46184B1A70174B1B78002B16D1174B46
:1034D0001B68002B12D0154B1B6803F58C733B4403
:1034E000002203F8882C07F1900207F58C73A3F5EE
:1034F00086731146186800F071FDD9E7084808F096
:1035000065FD07F58C73A3F586730949186800F00B
:1035100065FD07F58C77BD4680BD00BF2809020810
:103520005C200024842200243C090208D0230024CB
:103530002409020880B5ADF55A7D02AF07F558732E
:10354000A3F55573186007F55873A3F55673196002
:1035500007F55873A3F557731A6007F55873A3F569
:103560005673186800F032FE0346A7F85E33B7F8CA
:103570005E33002B25D007F55873A3F55673012150
:10358000186800F0EDFDC7F85803D7F85833002B42
:103590000ED0D7F858331B78002B09D007F51570DB
:1035A000D7F85833524A4FF480711BF005F910E0F8
:1035B00007F515734F4A4FF4807118461BF0FCF85D
:1035C00007E007F515734B4A4FF4807118461BF05E
:1035D000F3F807F515731946474808F0B6FE034699
:1035E00087F8573397F85733002B17D097F857338E
:1035F00007F5157207F58A70009313463F4A4FF49A
:10360000A0711BF0D9F807F58A7207F55873A3F576
:1036100055731146186800F0E1FC64E007F11403EB
:103620004FF48071184608F03BFD0346002B09D18A
:1036300007F1140307F58A70314A4FF4A0711BF0AB
:10364000BBF807E007F58A732E4A4FF4A0711846BD
:103650001BF0B2F807F58A7207F55873A3F5557396
:103660001146186800F0BAFC2749234808F0DEFE2E
:10367000034687F8573397F85733002B30D1224B46
:103680009B7D002B2CD0204B1B7A03F00603002BD4
:1036900024D11D4B1B7A03F01003002B08D007F533
:1036A0008A701A4B1A4A4FF4A0711BF085F80AE091
:1036B000154B1B6807F58A70144A0092154A4FF49F
:1036C000A0711BF079F807F58A7207F55873A3F516
:1036D00055731146186800F081FCC5E700BFC3E7C9
:1036E000054808F08BFE07F55877BD4680BD00BF42
:1036F00064090208C4030208882200246809020839
:103700008409020894090208B8220024CE22002469
:10371000AC090208C409020880B5A8B000AFF8607F
:10372000B9607A60B86800F051FD0346A7F89E3092
:10373000B7F89E30002B03D1124808F067FC1EE05A
:103740000121B86800F00CFDC7F89800D7F8980080
:1037500008F05CFC034687F8973097F89730002B09
:103760000DD007F11400D7F89830074A80211BF0DC
:1037700023F807F114031946F86800F02FFCA0376E
:10378000BD4680BDD4090208D809020880B5C4B07E
:1037900000AF07F58873A3F58273186007F5887387
:1037A000A3F58473196007F58873A3F586731A600F
:1037B00007F110034FF48071184608F071FC0346BE
:1037C000002B12D107F1100207F58873A3F582735D
:1037D0001146186800F002FC07F58873A3F58273A0
:1037E0000849186800F0FAFB07E007F58873A3F5AD
:1037F00082730549186800F0F1FB00BF07F5887770
:10380000BD4680BD24090208FC09020880B5CCB081
:1038100002AF07F59473A3F58E73186007F59473E0
:10382000A3F59073196007F59473A3F592731A606A
:1038300007F59473A3F59073186800F0C7FC03466E
:10384000A7F81831B7F81831002B08D107F5947391
:10385000A3F58E739749186800F0C0FB26E100239A
:10386000C7F824310023C7F820310023C7F81C31E2
:103870000123A7F81A312CE0B7F81A2107F5947341
:10388000A3F590731146186800F06AFCC7F81001A0
:103890008949D7F81001FCF723FD0346002B03D11B
:1038A0000123C7F824310FE08449D7F81001FCF751
:1038B00017FD0346002B03D10123C7F8203103E095
:1038C000D7F81031C7F81C31B7F81A310133A7F80F
:1038D0001A31B7F81A21B7F818319A42CCD9D7F86B
:1038E0001C31002B08D107F59473A3F58E7374492E
:1038F000186800F073FBD9E07249D7F81C0108F092
:10390000DEFD034687F8173197F81731042B18D1DD
:10391000D7F82031002B40F0C88007F11000D7F80D
:103920001C31694A4FF480711AF046FF07F110020A
:1039300007F59473A3F58E731146186800F04EFBDB
:10394000B3E097F81731002B16D097F8173107F12D
:1039500010000093D7F81C315C4A4FF480711AF0C4
:103960002BFF07F1100207F59473A3F58E73114630
:10397000186800F033FB99E0524B1B7A03F01003F8
:10398000002B6CD0D7F82431002B26D0D7F81C019F
:10399000FEF7FCFF034687F8173197F81731002B25
:1039A00000F08480D7F82031002B7FD197F81731B1
:1039B00007F110000093D7F81C31454A4FF480718D
:1039C0001AF0FAFE07F1100207F59473A3F58E734F
:1039D0001146186800F002FB68E0D7F81C0108F0F7
:1039E000B1FD034687F8173197F81731072B17D128
:1039F000D7F82431002B13D107F11000D7F81C3170
:103A0000344A4FF480711AF0D7FE07F1100207F51F
:103A10009473A3F58E731146186800F0DFFA45E041
:103A200097F81731002B41D0D7F82031002B3DD12A
:103A300097F8173107F110000093D7F81C31244A8A
:103A40004FF480711AF0B8FE07F1100207F5947375
:103A5000A3F58E731146186800F0C0FA26E0D7F877
:103A60001C0108F06FFD034687F8173197F81731EE
:103A7000002B1BD0D7F82031002B17D197F8173126
:103A800007F110000093D7F81C31114A4FF48071F0
:103A90001AF092FE07F1100207F59473A3F58E73E6
:103AA0001146186800F09AFA00E000BF07F5947715
:103AB000BD4680BD200A0208400A0208440A0208E6
:103AC000480A0208B8220024600A0208940A020880
:103AD000B40A0208D80A020880B400AF024B1846A4
:103AE000BD465DF8047B70474C1A020880B400AFF5
:103AF00011231846BD465DF8047B704780B584B03D
:103B000000AF78600B46FB70FB78FB7302E001208E
:103B100003F056F807F10F030121184619F09AFF38
:103B20000346012BF3D000BF00BF1037BD4680BD58
:103B300080B584B000AF78600B46FB70FB78FB73F8
:103B4000FB7B19460348FEF762FD00BF1037BD46F8
:103B500080BD00BF004C004080B582B000AF00F0D7
:103B60009FF878607B68394ADA607B684FF40062BE
:103B70001A827B6810229A807B684022DA807B68F8
:103B800080221A817B6820225A817B6801229A74E4
:103B90007B682F4A1A60FFF79FFF02467B685A61D5
:103BA000FFF7A4FF03461A467B681A83786800F083
:103BB000D2F80346274A1360264B1B68002B01D11D
:103BC00001233EE0234B1B68234A1A6000F068F88B
:103BD00038603B68214ADA603B684FF400621A8221
:103BE0003B6810229A803B684022DA803B68802242
:103BF0001A813B6820225A813B6801229A743B68F3
:103C0000174A1A60FFF768FF02463B685A61FFF7E0
:103C10006DFF03461A463B681A83386800F09BF82C
:103C20000346104A13600F4B1B68002B01D1012380
:103C300007E00C4B1B680C4A1A600C4B01221A70EF
:103C4000002318460837BD4680BD00BFD42300249A
:103C5000080B0208D4330024FD3A0008D42B0024BA
:103C6000180B0208D8330024313B0008DC33002451
:103C700080B400AF034B1B681846BD465DF8047B5B
:103C8000704700BFD433002480B400AF034B1B68DF
:103C90001846BD465DF8047B704700BFD83300244A
:103CA00080B400AF114B40229A80104B4022DA8042
:103CB0000E4B80221A810D4B0022DA600B4B002242
:103CC0001A820A4B08225A81084B01229A74074B28
:103CD000074A1A60054B00221A83044B00225A61DE
:103CE000024B1846BD465DF8047B7047E033002464
:103CF000440B020880B485B000AF78607B685B69D4
:103D0000002B02D17B685B8900E00023FB817B688C
:103D10009B8803339A087B68DB8803339B081A442B
:103D20007B681B8903339B08D118FA8913465B0013
:103D30001344DB0003339B08CA18FB8903339B0839
:103D4000134412339BB29B009BB218461437BD46F6
:103D50005DF8047B704780B588B000AF78600023C1
:103D6000FB617868FFF7C6FF0346BB610023FB7564
:103D70007B68DB68002B05D07B681B8A1A46BB6911
:103D8000934201D9002371E07B68DB683B61BA692B
:103D9000002138691AF0A2FE3B69FB613B691033D0
:103DA0003B61FB693A69DA603B6938333B61FB6927
:103DB000DB68FB60FB683A691A617B689B880333A8
:103DC00023F003033A6913443B61FB683A69DA6103
:103DD0007B68DB88033323F003033A6913443B61B8
:103DE0007B685A69FB685A627B681A8BFB689A8504
:103DF0007B681A8BFB68DA85FB683A695A607B68D6
:103E00001A89FB681A81FB7D002B08D0FB6893F8A8
:103E1000333043F00403DAB2FB6883F833207B6865
:103E20009B7C002B08D0FB6893F8333043F02003D1
:103E3000DAB2FB6883F833207B689A88FB681A83C0
:103E4000FB6800229A82FB680022DA827B68DA88AB
:103E5000FB685A84FB68002283F832207B681A686A
:103E6000FB681A60FB6800229A86FB6918462037B7
:103E7000BD4680BD80B584B000AF78600B46FB7056
:103E80007B68DB68FB60FB681033FA7811461846E4
:103E900000F08AFF034683F00103DBB2002B08D059
:103EA000FB6893F8333043F00103DAB2FB6883F820
:103EB000332000BF1037BD4680BD80B584B000AF51
:103EC00078607B681B68002B00F083807B68DB6870
:103ED000FB60FB6893F8333003F00203002B55D1ED
:103EE000FB6893F8333043F00203DAB2FB6883F8DF
:103EF0003320FB681B681946786800F07EFE45E0B9
:103F0000FB681033184600F027FF0346FB72FB687E
:103F100093F8333003F00803002B05D0FB7A1946E1
:103F2000786800F0F5F92AE0FB6893F832301B2B33
:103F30000CD1FB7A5B2B09D1FB6893F8333043F04B
:103F40000803DAB2FB6883F8332018E0FB7A1846DE
:103F500000F0AAFE0346002B05D0FB7A19467868CC
:103F600000F086FA0BE0FB7A184600F0BDFE03462F
:103F7000002B04D0FB7A1946786800F027FA78689D
:103F800000F012FDFB68FA7A83F83220FB681033E8
:103F9000184600F0C0FE0346002BB1D1FB6893F831
:103FA000333003F00103002B14D0FB6800221A8485
:103FB000FB68DB69FA68128C134400221A70FB68F4
:103FC00093F8333023F00103DAB2FB6883F833202F
:103FD00000E000BF1037BD4680BD000080B584B052
:103FE00000AF786039607B681B68002B3ED07B682F
:103FF000DB68FB60FB689B8E7B81FB6893F833304A
:1040000003F01003002B02D1786800F0C1FDFB68BB
:104010007A899A863968786800F0EFFD154B1B683D
:104020001946786800F0E9FDFB6893F8333003F037
:104030001003002B1BD1FB681B681946786800F041
:10404000DCFDFB68DB691946786800F0D6FDFB688B
:104050001A8CFB681A86FB689B8E002219467868CA
:1040600000F0ECFD786800F09FFC00E000BF103726
:10407000BD4680BD6C00002480B588B000AF78607C
:104080007B68002B66D0354BFB600023FB77002359
:10409000BB770023BB6100237B6147E07B69013371
:1040A0007B61BB7F002B02D00023BB7729E0FB7C28
:1040B0005C2B02D10123BB7738E0FB7C222B10D193
:1040C000FB7F002B14BF01230023DBB283F001032D
:1040D000DBB2FB77FB7F03F00103FB770023FB746C
:1040E0000FE0FB7F83F00103DBB2002B09D0FB7CE8
:1040F0001946F8681AF0FAFC0346002B01D0002399
:10410000FB74FB7C002B09D1BB69002B0EDDBB6966
:10411000013B7A6813441B78002B07D0BB697A688F
:104120001344FA7C1A70BB690133BB617B697A68FE
:1041300013441B78FB74FB7C002BAFD1BB697A68FE
:10414000134400221A70BB6901337A6813440022B9
:104150001A7000E000BF2037BD4680BD480B020842
:1041600080B584B000AF78600B467B807B881946B1
:10417000786800F020FF0346FB81FB894FF6FF7251
:10418000934203D0FB897A68134400E00023184669
:104190001037BD4680BD80B584B000AF78600B4657
:1041A0007B807B881946786800F005FF0346FB8119
:1041B000FB894FF6FF72934203D0FB897A68134460
:1041C00000E0002318461037BD4680BD80B485B09E
:1041D00000AF78607B68002B03D07B681B78002BD6
:1041E00001D1002319E00023FB6001237B81FB68E0
:1041F0007A6813441B78002B09D1FB6801337A6875
:1042000013441B78002B06D07B8901337B81FB682C
:104210000133FB60EBE700BF7B8918461437BD46CE
:104220005DF8047B7047000080B586B000AF786011
:104230000B46FB707B68DB683B613B699B89002B0D
:104240005FD0FB78002B05D03B695A893B699B897D
:104250009A4256D0FB7883F00103DBB2002B03D0E7
:104260003B695B89002B4CD0786800F091FC3B697E
:104270001B681946786800F0C0FCFB78002B06D05C
:104280003B695B8901339AB23B695A8105E03B691E
:104290005B89013B9AB23B695A813B691A1D3B69B4
:1042A0005B891946104600F00DFE78617B69002B92
:1042B00001D1164B7B617869FCF71CF80346FB8142
:1042C0003B69DB69FA89796918461AF0C4FC3B69D5
:1042D000DA69FB89134400221A703B69FA891A844F
:1042E0003B69DB691946786800F087FC3B691A8CEA
:1042F0003B691A863B6900229A86786800F054FB75
:1043000000E000BF1837BD4680BD00BF4C0B02085F
:1043100090B585B000AF78600B46FB707B68DB68BA
:10432000FB60FB783F2B48D9FB787E2B45D8FB6898
:1043300093F8333023F00803DAB2FB6883F83320B4
:10434000FB78412B02D0FB78422B09D1FB78412B23
:104350000CBF01230023DBB219467868FFF764FF26
:10436000FB78432B0FD1FB689B8E002B0BD0FB6897
:104370009B8E013B9AB2FB689A86124B1B681946CA
:10438000786800F03AFCFB78442B16D1FB689B8ED2
:104390001C46FB68DB691846FBF7ACFF03469C42F2
:1043A0000BD2FB689B8E01339AB2FB689A86064B50
:1043B0001B681946786800F020FC00BF1437BD4622
:1043C00090BD00BF700000247400002480B584B04C
:1043D00000AF78600B46FB707B68DB68FB60FB68B6
:1043E0001B8C0233FA68528C93423BDAFB68DB6920
:1043F0001846FBF77FFF0246FB689B8ED31ABB6013
:10440000FB68DA69BB680133D018FB68DA69BB68FE
:10441000D118FB689B8E01331A461AF045FBFB68E6
:104420001B8C01339AB2FB681A84FB681B8E013324
:104430009AB2FB681A86FB68DA69BB681344FA789B
:104440001A70FB689B8E002B05D0084B1B68194621
:10445000786800F0D2FB7B681B68FA7811467868B0
:10446000984700E000BF1037BD4680BD80000024A3
:1044700080B584B000AF78600B46FB707B68DB686A
:10448000FB60FB6893F832300D2B02D1FB780A2BCE
:1044900078D0FB6893F832300A2B02D1FB780D2BD1
:1044A00070D0FB780D2B02D0FB780A2B29D17868CD
:1044B00000F0DCFA354B1B681946786800F09DFB6C
:1044C000FB681B8C002B02D0786800F065F8FB6855
:1044D00000221A84FB68DB69FA68128C13440022FC
:1044E0001A70FB6800221A86FB6800225A81FB685A
:1044F00000229A86FB681B681946786800F07DFBED
:1045000041E0FB78082B02D0FB787F2B33D1FB688E
:104510001B8C1A46FB689B8ED31A002B2BDD1C4B81
:104520001B681946786800F068FB1A4B1B6819462F
:10453000786800F062FBFB68DB691846FBF7DAFE7F
:104540000246FB689B8ED31ABB60FB68DA69BB68C6
:10455000013BD018FB68DA69BB68D118FB689B8EF9
:1045600001331A461AF0A0FAFB681B8C013B9AB281
:10457000FB681A8407E0FB78092B04D1786800F007
:1045800075FA00E000BF1037BD4680BD6C00002406
:10459000740000248400002490B58FB000AF7860D0
:1045A0007B68DB68BB61012387F8373000233B63FE
:1045B0000DE0BB69DA693B6B13441B78202B03D0F9
:1045C000002387F8373008E03B6B01333B63BB695E
:1045D0001B8C1A463B6B9342EBDB97F83730002B72
:1045E00040F0FA80BB691A1DBB69DB6919461046A9
:1045F00000F004FC0023FB620023BB62002387F869
:10460000273000233B6230E0BB69DA693B6A134420
:104610001B78FB75FB7D202B0FD1BB6A002B05D1CE
:10462000BB69DA693B6A134400221A70FB6A002BEB
:1046300018D0012387F8273014E0FB6A002B05D13E
:10464000BB69DA693B6A1344FB620BE0BB6A002B6F
:1046500008D197F82730002B04D0BB69DA693B6A90
:104660001344BB623B6A01333B62BB691B8C1A4635
:104670003B6A9342C8DBBB69DA69BB691B8C0133B7
:10468000134400221A70FB6A002B00F0A78000235D
:10469000FB6172E0BB69596AFA6913465B00134417
:1046A000DB000B445B681946F86AFBF719FE03460A
:1046B000002B5FD1BB69596AFA6913465B0013444A
:1046C000DB000B445B69002B5ED0BB69596AFA6959
:1046D00013465B001344DB000B441B7B002B02D012
:1046E000B86AFFF7C9FCBB6993F8333043F0100395
:1046F000DAB2BB6983F83320BB6A002B1AD0394980
:10470000B86AFBF7EDFD0346002B06D03649B86AC0
:10471000FBF7E6FD0346002B0CD1BB69596AFA6929
:1047200013465B001344DB000B441946786800F025
:104730005DF815E0BB69596AFA6913465B001344DA
:10474000DB000B445C69BB69596AFA6913465B007C
:104750001344DB000B441B691A46B96A7868A0470A
:10476000BB6993F8333023F01003DAB2BB6983F8E6
:10477000332034E0FB690133FB61BB699B8D1A4632
:10478000FB69934286DB00E000BF7B685B68002B1F
:104790001DD0FB6AFB60BB6A3B61BB6993F8333099
:1047A00043F01003DAB2BB6983F833207B685B689F
:1047B00007F10C02114678689847BB6993F83330CB
:1047C00023F01003DAB2BB6983F8332007E0F96AFB
:1047D000786800F05FFE02E000BF00E000BF3C37F9
:1047E000BD4690BD500B0208540B020880B582B044
:1047F00000AF786039603B689B68002B10D07B6805
:104800001B680921786898473B689B681946786857
:1048100000F0F3F9044B1B681946786800F0EDF9D5
:1048200000BF0837BD4680BD6C00002480B58EB047
:1048300000AFF860B9607A6000233B610023BB825F
:104840000023FB827868FBF755FD7862BB68DB6864
:104850003B623B6A9B8D002B02D07B6A002B08D108
:10486000FB681A4607F1100393E8030082E803008F
:1048700095E000237B6383E03B6A596A7A6B1346B9
:104880005B001344DB000B445B68FB61F869FBF7DA
:1048900031FDB8613B6A9A6A7B6B13441A783B6AB4
:1048A000996A7B6B0B4422F00102D2B21A70BA698A
:1048B0007B6A9A425ED3012387F833300023FB6280
:1048C00010E07A68FB6A13441A78F969FB6A0B44B2
:1048D0001B789A4203D0002387F8333006E0FB6A46
:1048E0000133FB62FA6A7B6A9A42EAD397F8333063
:1048F00083F00103DBB2002B3ED13B6A9A6A7B6BEB
:1049000013441A783B6A996A7B6B0B4442F00102AC
:10491000D2B21A70FB8A002B04D0BB8A1A46BB693C
:10492000934202D2BB699BB2BB82FB8A01339BB22A
:10493000FB82FB8A012B02D1FB693B611DE03B6AD4
:104940001B8CBB6210E03A69BB6A13441A78F969A0
:10495000BB6A0B441B789A4203D0BB6A9BB2BB82F2
:104960000BE0BB6A0133BB62BB8A1A46BB6A934247
:10497000E9D302E000BF00E000BF7B6B01337B6343
:104980003B6A9B8D1A467B6B9342FFF675AFFB68C3
:104990001A4607F1100393E8030082E80300F86861
:1049A0003837BD4680BD000080B588B000AF786064
:1049B0007B68DB687B617B6993F8333003F020030D
:1049C000002B4AD07B69DA6907F10C037968184635
:1049D000FFF72CFF7B8A002B02D17B691B8C3B826B
:1049E000204B1B681946786800F007F97B699B8E9D
:1049F00001221946786800F021F97B691B8CFB6164
:104A00000BE07B681B68F968FA690A441278114662
:104A100078689847FB690133FB613B8A1A46FB695A
:104A20009342EED33B8ABB6107E07B681B68202181
:104A300078689847BB690133BB617B691B8E1A4656
:104A4000BB699342F1D33A8A7B691A86064B1B688D
:104A50001946786800F0D1F800E000BF2037BD4665
:104A600080BD00BF780000247C00002480B588B0A1
:104A700000AF78607B68DB68BB61BB69DA6907F10E
:104A80000C0379681846FFF7D1FE7B8A002B78D09B
:104A90007B8A012B04D03A8ABB691B8C9A4231D99C
:104AA000BB69DB69F9683A8A18461AF0D4F87B8A40
:104AB000012B09D1BB69DB693A8A134420221A70A1
:104AC0003B8A01339BB23B82BB69DB693A8A134460
:104AD00000221A70BB69DB69BA69128C1146BA6987
:104AE000928E8A1A13441946786800F086F83A8A3A
:104AF000BB691A84BB691A8CBB691A86BB69002220
:104B00009A863FE0786800F043F80023FB6121E0DB
:104B1000BB699A6AFB6913441B7803F00103002BFD
:104B200014D0BB69596AFA6913465B001344DB0071
:104B30000B445B687B617969786800F05EF8134B21
:104B40001B681946786800F058F800E000BFFB6960
:104B50000133FB61BB699B8D1A46FB699342D7DB2E
:104B6000BB691B681946786800F047F8BB69DB69C8
:104B70001946786800F041F8BB691A8CBB691A863F
:104B800000E000BF2037BD4680BD00BF6C000024A0
:104B900090B587B000AF78607B68DB683B613B69AC
:104BA0001B8E1C463B691B681846FBF7A3FB03469C
:104BB0002344FB607B681B680D21786898470023BD
:104BC0007B6107E07B681B682021786898477B69D8
:104BD00001337B617A69FB689A42F3D37B681B6877
:104BE0000D21786898473B6900221A863B690022AC
:104BF0009A8600BF1C37BD4690BD80B584B000AF1B
:104C0000786039603868FBF775FBB8600023FB609B
:104C10000BE07B681B683968FA680A441278114611
:104C200078689847FB680133FB60FA68BB689A4272
:104C3000EFD300BF00BF1037BD4680BD80B586B042
:104C400000AF78600B467B8013467B707B88002B1F
:104C500020D007F10C0300221A605A601A727B7888
:104C6000002B04D00D4B1B6802331B7803E00C4B68
:104C70001B6802331B78FB757A88FB7D07F10C00FB
:104C8000084919F0CFFD07F10C0319467868FFF7C2
:104C9000B4FF00E000BF1837BD4680BD700000249F
:104CA000740000245C0B020880B483B000AF03469C
:104CB000FB71FB790D2B0BD0FB790A2B08D0FB790C
:104CC000082B05D0FB79092B02D0FB797F2B01D172
:104CD000012300E0002303F00103DBB218460C3788
:104CE000BD465DF8047B704780B483B000AF0346D7
:104CF000FB71FB791F2B04D9FB797E2B01D8012393
:104D000000E0002303F00103DBB218460C37BD4678
:104D10005DF8047B704780B483B000AF78607B6837
:104D2000DA887B689B889A4206D37B68DA887B683E
:104D30009B88D31A9BB209E07B681A897B689B88A1
:104D4000D31A9AB27B68DB8813449BB218460C379F
:104D5000BD465DF8047B704780B485B000AF7860D5
:104D60000023FB737B689A887B68DB889A4214D0A7
:104D70007B681B687A68928813441B78FB737B6896
:104D80009B8801339BB27A681289B3FBF2F101FB75
:104D900002F29B1A9AB27B689A80FB7B1846143702
:104DA000BD465DF8047B704780B485B000AF786085
:104DB0000B46FB707B68DB8801339BB27A681289F3
:104DC000B3FBF2F101FB02F29B1AFB817B689B882B
:104DD000FA899A420BD07B681B687A68D2881344A0
:104DE000FA781A707B68FA89DA80012300E00023E0
:104DF00018461437BD465DF8047B704780B588B00F
:104E000000AF786039603868FBF774FAB8617B6886
:104E10009B881A46BB6901339A4201D200234DE0B8
:104E20003968786800F06AF824E07B681B891946C5
:104E3000786800F047F878617869FBF75BFA3861C9
:104E40007B681B687A69D31A1A463B69134401339D
:104E5000FB617B689B881A46FB69D31AFB60BB69C0
:104E60000133FA689A420AD27B681B89013B9AB2E5
:104E70007B681A817B681B89002BD6D100E000BFBC
:104E80007B681B89002B0AD07B681A68BB690133D9
:104E9000D0187B681B68FA69194619F005FE7B6813
:104EA0001868BB6901331A46396819F0D4FE7B686B
:104EB0001B8901339AB27B681A8101231846203777
:104EC000BD4680BD80B582B000AF78600B467B8068
:104ED0007B88002B04D07B681B897A889A4201D991
:104EE000002307E07B681B687A8811461846FFF7A5
:104EF00037F9034618460837BD4680BD80B586B0F1
:104F000000AF786039603B68002B4CD07B681B8910
:104F1000002B48D000237B6101237B8213E07B6858
:104F20001B687A8A11461846FFF735F978613968A7
:104F30007869FBF7D5F90346002B0AD000237B6183
:104F40007B8A01337B827B681B897A8A9A42E6D905
:104F500000E000BF7B69002B27D07B681B89013BE9
:104F60009AB27B681A817A8A7B681B8901339A42DC
:104F70001DD07869FBF7BEF9F8607B689B881946FD
:104F8000FB6801337A691A447B681B68D31ACB1A11
:104F9000BB60FB6801337A691344BA6819467869C3
:104FA00019F082FD04E000BF02E000BF00E000BF96
:104FB0001837BD4680BD80B485B000AF78600B4621
:104FC0007B807B68002B02D07B88002B02D14FF6C0
:104FD000FF7328E00023FB810123BB81BA897B8812
:104FE0009A4213D0FB897A6813441B78002B09D1AD
:104FF000BB890133BB81FB8901337A6813441B7879
:10500000002B05D0FB890133FB81E7E700BF00E0FF
:1050100000BFFB897A6813441B78002B01D0FB8901
:1050200001E04FF6FF7318461437BD465DF8047B68
:10503000704780B586B000AFF860B9607A60002331
:105040007B6110E07B699B00BA6813441B681946BA
:10505000F868FBF745F90346002B01D17B6908E0AE
:105060007B6901337B617A697B689A42EADB4FF0A6
:10507000FF3318461837BD4680BD000080B586B0A6
:1050800000AFF860B9607A60B868FBF733F903469F
:105090003B61B968F868FFF7B0FD00237B6106E06B
:1050A0000849F868FFF7A9FD7B6901337B617A68DD
:1050B0003B69D31A7A699A42F2DB00BF00BF183706
:1050C000BD4680BD480B02082DE9F04395B000AF06
:1050D000F860B9607A60FB68DB687B637B6B9B8DF3
:1050E000002B0AD18C49F868FFF787FD8B4B1B68B2
:1050F0001946F868FFF781FDBAE1B868FFF766F86E
:1051000003467B867B8E002B40F0F6806B461E4666
:105110002023BB62BB6A013B7B62BB6A00229846CC
:1051200091464FF000024FF000034FEA491343EA63
:10513000D8634FEA4812BB6A00221C4615464FF05E
:1051400000024FF000036B0143EAD4636201BB6AC3
:105150009B000733DB08DB00ADEB030D6B4603332D
:105160009B089B003B620023FB640023BB642DE093
:105170007B6B596ABA6C13465B001344DB000B442B
:105180001B68002B09D07B6B596ABA6C13465B0015
:105190001344DB000B441B6800E0614BBB61FA6CFD
:1051A000396AB869FFF745FF78617B69002B0ADA35
:1051B000FA6CBB6A9A4206DAFB6C5A1CFA643A6AC9
:1051C000B96942F82310BB6C0133BB647B6B9B8DC8
:1051D0001A46BB6C9342CBDB00237B6485E05149CC
:1051E000F868FFF70AFD3B6A7A6C53F822301946DB
:1051F000F868FFF702FD4C49F868FFF7FEFC474BE3
:105200001B681946F868FFF7F8FC00233B645DE073
:105210007B6B596A3A6C13465B001344DB000B440A
:105220001B68002B09D07B6B596A3A6C13465B00F4
:105230001344DB000B441B6800E0394BFB613B6A05
:105240007A6C53F822301946F869FBF749F803469F
:10525000002B38D13549F868FFF7CFFC7B6B596AD2
:105260003A6C13465B001344DB000B445B6810226E
:105270001946F868FFF702FF2D49F868FFF7BDFCF3
:105280007B6B596A3A6C13465B001344DB000B449A
:105290009B68002B0DD07B6B596A3A6C13465B0000
:1052A0001344DB000B449B681946F868FFF7A5FC24
:1052B00003E02049F868FFF7A0FC184B1B6819466B
:1052C000F868FFF79AFC3B6C01333B647B6B9B8D6A
:1052D0001A463B6C93429BDB104B1B681946F868DF
:1052E000FFF78BFC7B6C01337B647A6CFB6C9A421E
:1052F000FFF675AFB546BBE07B8E012B40F0AE806C
:105300000121B868FEF72CFFF862002387F83F30D0
:105310000023BB638FE000BF640B02086C00002415
:105320007C0B02088C0B0208900B0208940B0208FD
:105330009C0B0208A00B02087B6B596ABA6B1346E0
:105340005B001344DB000B445B68F96A1846FAF70C
:10535000C7FF0346002B6BD1012387F83F30464936
:10536000F868FFF74AFC7B6B596ABA6B13465B001F
:105370001344DB000B445B681946F868FFF73DFCFB
:105380003E4B1B681946F868FFF737FC3C49F86844
:10539000FFF733FC7B6B596ABA6B13465B0013440F
:1053A000DB000B441B68002B09D07B6B596ABA6B7E
:1053B00013465B001344DB000B441B6800E0314BD9
:1053C0001946F868FFF719FC2C4B1B681946F8685A
:1053D000FFF713FC7B6B596ABA6B13465B001344EF
:1053E000DB000B449B68002B17D02749F868FFF7B8
:1053F00004FC7B6B596ABA6B13465B001344DB00F9
:105400000B449B681946F868FFF7F7FB1B4B1B68BA
:105410001946F868FFF7F1FB14E01C49F868FFF73C
:10542000ECFB164B1B681946F868FFF7E6FB09E032
:10543000BB6B0133BB637B6B9B8D1A46BB6B93428B
:10544000FFF67AAF97F83F3083F00103DBB2002B11
:105450000ED0F96AF86800F01DF809E00C49F86808
:10546000FFF7CBFB054B1B681946F868FFF7C5FB38
:105470005437BD46BDE8F083AC0B02086C00002435
:10548000B80B02087C0B0208C40B0208A00B020830
:10549000CC0B020880B582B000AF786039600B4950
:1054A0007868FFF7AAFB39687868FFF7A6FB084918
:1054B0007868FFF7A2FB074B1B6819467868FFF76F
:1054C0009CFB00BF0837BD4680BD00BFFC0B020837
:1054D000100C02086C00002480B483B000AF786028
:1054E0007B6803F108027B685A607B684FF0FF32EB
:1054F0009A607B6803F108027B68DA607B6803F1DD
:1055000008027B681A617B6800221A6000BF0C37B2
:10551000BD465DF8047B704780B483B000AF78600F
:105520007B6800221A6100BF0C37BD465DF8047B22
:10553000704780B485B000AF786039607B685B6885
:10554000FB603B68FA685A60FB689A683B689A603F
:10555000FB689B683A685A60FB683A689A603B68E7
:105560007A681A617B681B685A1C7B681A6000BFE6
:105570001437BD465DF8047B704780B485B000AF3A
:10558000786039603B681B68BB60BB68B3F1FF3F64
:1055900003D17B681B69FB600CE07B680833FB6010
:1055A00002E0FB685B68FB60FB685B681B68BA68CD
:1055B0009A42F6D2FB685A683B685A603B685B685F
:1055C0003A689A603B68FA689A60FB683A685A6081
:1055D0003B687A681A617B681B685A1C7B681A6092
:1055E00000BF1437BD465DF8047B704780B485B0BA
:1055F00000AF78607B681B69FB607B685B687A68DA
:1056000092689A607B689B687A6852685A60FB6807
:105610005B687A689A4203D17B689A68FB685A6033
:105620007B6800221A61FB681B685A1EFB681A60BF
:10563000FB681B6818461437BD465DF8047B70474D
:1056400080B586B000AF7860396001237B617B68EC
:105650003B613B69002B0DD14FF0500372B683F3D1
:105660001188BFF36F8FBFF34F8F62B6FB6000BF2F
:1056700000BFFDE73B69002B5DD03B69DB6B002B76
:1056800059D03B691A6C3B69DB6B0021A3FB0223F9
:10569000002B00D001210B46002B4CD102F0C2FFA1
:1056A0003B691A683B69DB6B3969096C01FB03F3E1
:1056B0001A443B699A603B6900229A633B691A6805
:1056C0003B695A603B691A683B69DB6B013B39698E
:1056D000096C01FB03F31A443B69DA603B69FF2262
:1056E00083F844203B69FF2283F845203B68002B68
:1056F00014D13B691B69002B1AD03B691033184643
:1057000001F078FE0346002B12D0174B4FF0805269
:105710001A60BFF34F8FBFF36F8F09E03B691033FF
:105720001846FFF7D9FE3B6924331846FFF7D4FE2D
:1057300002F0AEFF01E000237B617B69002B0DD1FD
:105740004FF0500372B683F31188BFF36F8FBFF32E
:105750004F8F62B6BB6000BF00BFFDE77B69184694
:105760001837BD4680BD00BF04ED00E080B58CB0A9
:1057700002AFF860B9607A603B6000237B623B68EF
:10578000002B0DD14FF0500372B683F31188BFF395
:105790006F8FBFF34F8F62B63B6200BF00BFFDE764
:1057A000FB68002B33D03B68002B30D07B68002B8C
:1057B00002D0BB68002B2AD07B68002B02D1BB68CB
:1057C000002B24D150237B617B69502B0DD04FF0EF
:1057D000500372B683F31188BFF36F8FBFF34F8FFF
:1057E00062B6FB6100BF00BFFDE77B693B687B627F
:1057F0007B6A012283F8462097F830207B6A009369
:1058000013467A68B968F86800F06CF810E07B6AB3
:10581000002B0DD14FF0500372B683F31188BFF304
:105820006F8FBFF34F8F62B6BB6100BF00BFFDE754
:105830007B6A18462837BD4680BD80B58AB002AF66
:10584000F860B9601346FB710023FB61FB68002B15
:1058500032D00021BA68FB68A3FB0223002B00D0E2
:1058600001210B46002B27D1FB68BA6802FB03F32A
:1058700013F1510F20D8FB68BA6802FB03F3BB6138
:10588000BB695033184603F001F8F861FB69002B3F
:1058900023D0FB697B617B6950337B61FB6900220C
:1058A00083F84620FA79FB69009313467A69B96850
:1058B000F86800F017F810E0FB69002B0DD14FF0ED
:1058C000500372B683F31188BFF36F8FBFF34F8F0E
:1058D00062B63B6100BF00BFFDE7FB691846203799
:1058E000BD4680BD80B584B000AFF860B9607A6015
:1058F000FB70BB68002B03D1BB69BA691A6002E078
:10590000BB697A681A60BB69FA68DA63BB69BA680E
:105910001A640121B869FFF793FEBB69FA7883F82E
:105920004C2000BF1037BD4680BD000080B58EB052
:1059300000AFF860B9607A603B6000237B63FB686E
:105940003B633B6B002B0DD14FF0500372B683F3DA
:105950001188BFF36F8FBFF34F8F62B6BB6200BF7A
:1059600000BFFDE7BB68002B03D13B6B1B6C002B1A
:1059700001D1012300E00023002B0DD14FF0500393
:1059800072B683F31188BFF36F8FBFF34F8F62B688
:105990007B6200BF00BFFDE73B68022B03D13B6B7E
:1059A000DB6B012B01D1012300E00023002B0DD183
:1059B0004FF0500372B683F31188BFF36F8FBFF3BC
:1059C0004F8F62B63B6200BF00BFFDE701F042FFB0
:1059D0000346002B02D17B68002B01D1012300E09C
:1059E0000023002B0DD14FF0500372B683F31188C2
:1059F000BFF36F8FBFF34F8F62B6FB6100BF00BF75
:105A0000FDE702F00FFE3B6B9A6B3B6BDB6B9A4240
:105A100002D33B68022B29D13A68B968386B00F091
:105A20003EFCF8623B6B5B6A002B10D03B6B24336F
:105A3000184601F0DFFC0346002B13D03F4B4FF01C
:105A400080521A60BFF34F8FBFF36F8F0AE0FB6A7B
:105A5000002B07D0394B4FF080521A60BFF34F8FA5
:105A6000BFF36F8F02F014FE012363E07B68002B0D
:105A700003D102F00DFE00235CE07B6B002B06D10E
:105A800007F11403184601F091FD01237B6302F036
:105A9000FFFD01F07DF902F0C5FD3B6B93F844304A
:105AA0005BB2B3F1FF3F03D13B6B002283F844208C
:105AB0003B6B93F845305BB2B3F1FF3F03D13B6BD7
:105AC000002283F8452002F0E3FD3A1D07F114039C
:105AD0001146184601F080FD0346002B24D1386B97
