:020000040800F2
:100000000000082491200008711E0008791E0008D5
:10001000811E0008891E0008911E000800000000D3
:10002000000000000000000000000000A17E0008A9
:10003000991E00080000000061810008A71E00084A
:10004000E5200008E5200008E5200008E52000087C
:10005000E5200008E5200008E5200008E52000086C
:10006000E5200008E5200008E5200008E52000085C
:10007000E5200008E5200008E5200008E52000084C
:10008000E5200008E5200008E5200008E52000083C
:10009000B51E0008E5200008E5200008E52000085E
:1000A000E5200008C91E0008E5200008E52000083A
:1000B000E5200008E5200008E5200008E52000080C
:1000C000E5200008E5200008E5200008E5200008FC
:1000D000E5200008E5200008E5200008E5200008EC
:1000E000E5200008E520000800000000E5200008E9
:1000F000E5200008E5200008E5200008E5200008CC
:10010000E5200008E5200008E5200008E5200008BB
:10011000DD1E0008E5200008E5200008E5200008B5
:10012000E5200008E5200008E5200008E52000089B
:10013000E5200008E5200008E5200008E52000088B
:10014000E5200008E5200008000000000000000095
:10015000E5200008E5200008E5200008E52000086B
:10016000E5200008E5200008E5200008E52000085B
:10017000E5200008F11E0008E5200008000000004E
:10018000E5200008E5200008E5200008E52000083B
:10019000E5200008E5200008E5200008E52000082B
:1001A000E5200008E5200008E5200008E52000081B
:1001B000E5200008E5200008E5200008E52000080B
:1001C000E5200008E5200008E5200008E5200008FB
:1001D000E5200008E5200008E5200008E5200008EB
:1001E000E5200008E5200008E5200008E5200008DB
:1001F000E5200008E5200008E5200008E5200008CB
:10020000E5200008E5200008E5200008E5200008BA
:10021000E5200008E5200008E5200008E5200008AA
:10022000E5200008E5200008E520000800000000A7
:10023000E5200008E5200008E5200008E52000088A
:10024000E5200008E5200008E5200008E52000087A
:10025000E5200008E5200008E5200008E52000086A
:10026000E5200008E5200008E5200008E52000085A
:10027000E5200008E5200008E5200008E52000084A
:10028000E5200008E5200008E52000080000000047
:08029000E5200008E52000084C
:1002A00010B5054C237833B9044B13B10448AFF3B0
:1002B00000800123237010BD3002002400000000E4
:1002C000B0FA010808B5034B1BB103490348AFF36B
:1002D000008008BD0000000034020024B0FA0108CC
:1002E00010F8012B11F8013B012A28BF9A42F7D0E0
:1002F000D01A7047034613F8012B002AFBD1181AB5
:1003000001387047000000000000000000000000FD
:1003100001F0FF01102A2BDB10F0070F08D010F8B6
:10032000013B013A8B422DD010F0070F42B3F6D1BA
:10033000F0B441EA012141EA014122F007047FF0D3
:1003400000070023F0E80256083C85EA010586EA2A
:10035000010685FA47F5A3FA87F586FA47F6A5FA66
:1003600087F68EB9EED1F0BC01F0FF0102F0070272
:1003700032B110F8013B013A83EA010313B1F8D11D
:100380000020704701387047002D06BF35460338FE
:10039000073815F0010F07D1013015F4807F02BF37
:1003A000013015F4C03F0130F0BC0138704700BF88
:1003B00080B400AF494BD3F88830484A43F4700307
:1003C000C2F88830454B1B69444A43F0100313615F
:1003D000434B1B6803F00F03062B07D8404B1B68E9
:1003E00023F00F033E4A43F0070313603D4B1B68A5
:1003F0003C4A43F0010313603A4B00221A61394B27
:100400001A683849384B13400B60354B1B6803F0B2
:100410000803002B07D0324B1B6823F00F03304A30
:1004200043F0070313602F4B00229A612D4B0022EB
:10043000DA612C4B00221A622A4B2C4A9A62294B11
:100440002B4ADA62274B2B4A1A63264B00225A6347
:10045000244B284A9A63234B0022DA63214B254A16
:100460001A64204B00225A641E4B1B681D4A23F459
:10047000802313601B4B00221A661F4B5B6A1E4AC7
:1004800043F4804353621D4B1A681D4B1340B3F174
:10049000005F02D21B4B01221A60124BD3F8D430FA
:1004A00003F48053002B13D10E4BD3F8D4300D4AF4
:1004B00043F48053C2F8D430134B43F2D2021A6093
:1004C000084BD3F8D430074A23F48053C2F8D43011
:1004D00000BFBD465DF8047B704700BF00ED00E043
:1004E00000200052004402587FEDF6EA00020202AA
:1004F0000000FF0180020101C00000580010005CF4
:100500000000FFFF088100510040005280B400AF9E
:100510000A4BDB6823F00603084A43F00203D3606A
:1005200000BF064B5B6803F40053002BF9D000BFFB
:1005300000BFBD465DF8047B704700BF004802580D
:1005400080B400AF044BDB681B0A03F007031846B6
:10055000BD465DF8047B704700ED00E080B483B0D9
:1005600000AF0346FB80B7F90630002B0BDBFB889E
:1005700003F01F020749B7F906305B09012000FAB2
:1005800002F241F8232000BF0C37BD465DF8047B22
:10059000704700BF00E100E080B483B000AF0346C5
:1005A0003960FB80B7F90630002B0ADB3B68DAB212
:1005B0000C49B7F906301201D2B20B4483F800237C
:1005C0000AE03B68DAB20849FB8803F00F03043BFA
:1005D0001201D2B20B441A7600BF0C37BD465DF84B
:1005E000047B704700E100E000ED00E080B489B0DA
:1005F00000AFF860B9607A60FB6803F00703FB6145
:10060000FB69C3F10703042B28BF0423BB61FB690B
:100610000433062B02D9FB69033B00E000237B6116
:100620004FF0FF32BB6902FA03F3DA43BB681A40AA
:100630007B699A404FF0FF317B6901FA03F3D9439C
:100640007B680B40134318462437BD465DF8047B96
:10065000704780B487B000AF786039603B68C3F3FF
:100660001303002B07D13B689B0E03F01F030122ED
:1006700002FA03F315E03B683B613B6993FAA3F38D
:10068000FB60FB687B617B69002B01D1202303E0C9
:100690007B69B3FA83F3DBB203F01F03012202FA92
:1006A00003F37A68D2691A437B68DA6100BF1C37AA
:1006B000BD465DF8047B704780B487B000AFF8603A
:1006C000B9607A60FB6830331A46BB681B0A9B002E
:1006D00003F00C0313447B617B691A68BB6803F069
:1006E0001F031F2101FA03F3DB431A407B689B0EB3
:1006F00003F01F01BB6803F01F0301FA03F31A4361
:100700007B691A6000BF1C37BD465DF8047B7047EB
:1007100080B483B000AF786039607B68DB6823F019
:1007200003023B681A437B68DA6000BF0C37BD46A2
:100730005DF8047B704780B487B000AFF860B960A3
:100740007A60FB6814331A46BB685B0E9B0003F0AB
:10075000040313447B617B691A68BB681B0D03F0BB
:100760001F03072101FA03F3DB431A40BB681B0D8B
:1007700003F01F03796801FA03F31A437B691A60D7
:1007800000BF1C37BD465DF8047B704780B485B060
:1007900000AFF860B9607A60FB68D3F8C020BB682E
:1007A000C3F31303DB431A407B6803F018030849C3
:1007B000D940BB680B40C3F313031A43FB68C3F86B
:1007C000C02000BF1437BD465DF8047B704700BFF2
:1007D000FFFF0F0080B483B000AF786039607B68A2
:1007E0001A69064B13403A681A437B681A6100BFC6
:1007F0000C37BD465DF8047B704700BFFCFBFFFF74
:1008000080B483B000AF78607B689A68044B134073
:100810007A68936000BF0C37BD465DF8047B704773
:10082000C0FFFF5F80B483B000AF78607B689A68D8
:10083000054B134043F080527B689A6000BF0C3731
:10084000BD465DF8047B7047C0FFFF6F80B483B086
:1008500000AF78607B689A68054B134043F0010253
:100860007B689A6000BF0C37BD465DF8047B70471B
:10087000C0FFFF7F80B483B000AF78607B681B68E7
:1008800003F00103012B01D1012300E000231846EE
:100890000C37BD465DF8047B704780B483B000AF71
:1008A00078607B681B6823F400327B681A6000BFA5
:1008B0000C37BD465DF8047B704780B483B000AF51
:1008C00078607B681B6823F400227B681A6000BF95
:1008D0000C37BD465DF8047B7047000080B485B0DE
:1008E00000AFF860B9607A60FB68DA68064B1340C5
:1008F000B9687A680A431A43FB68DA6000BF1437A4
:10090000BD465DF8047B704701F8FFFF80B483B0FB
:1009100000AF78607B68DB6823F400427B68DA60B4
:1009200000BF0C37BD465DF8047B704780B483B0D0
:1009300000AF78607B685B6843F000727B685A6048
:1009400000BF0C37BD465DF8047B704780B483B0B0
:1009500000AF78607B681B6843F001027B681A6017
:1009600000BF0C37BD465DF8047B704780B483B090
:1009700000AF786039607B68DB6823F460123B6805
:100980001A437B68DA6000BF0C37BD465DF8047B14
:10099000704780B483B000AF786039607B689B6833
:1009A00023F4F0723B681A437B689A6000BF0C37EF
:1009B000BD465DF8047B704780B483B000AF7860BB
:1009C0007B68DB6843F080427B68DA6000BF0C37ED
:1009D000BD465DF8047B704780B483B000AF78609B
:1009E0007B681B6843F001027B681A6000BF0C370C
:1009F000BD465DF8047B704780B483B000AF78607B
:100A00007B681B6823F000527B681A6000BF0C37BC
:100A1000BD465DF8047B704780B489B000AF786054
:100A200039607B680833FB60FB6853E8003FBB60BC
:100A3000BB6823F060423B685B071343FB617B6844
:100A40000833FA69BA617B617969BA6941E80023C0
:100A50003B613B69002BE4D100BF00BF2437BD469A
:100A60005DF8047B704780B489B000AF786039606E
:100A70007B680833FB60FB6853E8003FBB60BB68E2
:100A800023F060623B685B061343FB617B680833BD
:100A9000FA69BA617B617969BA6941E800233B610F
:100AA0003B69002BE4D100BF00BF2437BD465DF891
:100AB000047B704780B483B000AF78607B685B686C
:100AC00023F490427B685A607B689B6823F02A027B
:100AD0007B689A6000BF0C37BD465DF8047B7047A9
:100AE00080B483B000AF78607B68DB6903F40013E7
:100AF000B3F5001F01D1012300E0002318460C3795
:100B0000BD465DF8047B704780B483B000AF786069
:100B10007B68DB6903F48003B3F5800F01D1012307
:100B200000E0002318460C37BD465DF8047B704793
:100B300080B483B000AF7860054B5A6804497B6885
:100B400013434B6000BF0C37BD465DF8047B704714
:100B50000004005880B483B000AF786039607B68CF
:100B60003A689A6100BF0C37BD465DF8047B704758
:100B700080B483B000AF786039603B681A047B684A
:100B80009A6100BF0C37BD465DF8047B70470000DA
:100B900080B485B000AF78600A4BD3F8D8200949FB
:100BA0007B681343C1F8D830064BD3F8D8207B6854
:100BB0001340FB60FB6800BF1437BD465DF8047B43
:100BC000704700BF0044025880B485B000AF786021
:100BD0000A4BD3F8E02009497B681343C1F8E030A1
:100BE000064BD3F8E0207B681340FB60FB6800BF36
:100BF0001437BD465DF8047B704700BF00440258BF
:100C000080B485B000AF78600A4BD3F8E82009497A
:100C10007B681343C1F8E830064BD3F8E8207B68C3
:100C20001340FB60FB6800BF1437BD465DF8047BD2
:100C3000704700BF0044025880B485B000AF7860B0
:100C40000A4BD3F8F02009497B681343C1F8F03010
:100C5000064BD3F8F0207B681340FB60FB6800BFB5
:100C60001437BD465DF8047B704700BF004402584E
:100C700080B483B000AF78607B6801221A707B6813
:100C8000134A5A607B68134A9A607B68124ADA609A
:100C90007B680A221A747B680A225A747B681922BC
:100CA0009A747B681822DA747B6814221A757B6840
:100CB0000A22DA827B684FF480721A837B680022F2
:100CC000DA6100BF0C37BD465DF8047B704700BF9A
:100CD000C8FA0108D4FA0108DCFA010880B582B02C
:100CE00000AF786010211348FFF734FF4FF4005134
:100CF0001148FFF73DFFC82005F09AFC4FF4005162
:100D00000D48FFF727FF4FF4167005F091FC0821FE
:100D10000848FFF72DFF4FF4967005F089FC082175
:100D20000448FFF717FF4FF47A7005F081FC00BF0D
:100D3000DCE700BF00000258000C025880B584B008
:100D400000AF786001F0B6FD0346002B19D007E034
:100D500002F0C6FC0246FB7B1946104602F0C2FDBB
:100D600007F10F03184601F07DFD0346002BEFD17C
:100D700002F0B6FC0346184602F0D7FD002001F051
:100D8000A5FD0F4801F066FC0346002B13D00C486C
:100D900001F01CFC0346DBB2FB7302F0ADFC024623
:100DA000FB7B1946104602F09DFD02F0A5FC0346B0
:100DB000184602F0BAFD012005F03AFCC2E700BF78
:100DC000004C0040B0B58AB000AF786001F08EFDF5
:100DD0000346002B2ED0002001F094FD1CF076FA83
:100DE000034687F8273097F82730002B1ED00821BC
:100DF0001248FFF7BDFE124B07F10C041D460FCD44
:100E00000FC495E8070003C422800234130C23703A
:100E100007F10C031846FFF76DFA03469AB207F183
:100E20000C03114618461CF019FA03E00821034888
:100E3000FFF790FE642005F0FBFBC7E700000258B7
:100E4000E8FA010880B582B000AF78601CF01EF9A6
:100E5000002005F049FB00BF0837BD4680BD0000FB
:100E600080B582B002AF0EF0ADFA00F083F800F06A
:100E7000FDF800F0F9FD00F057FD00F0A5FA00F0D4
:100E800007FB00F023F900F001FA00F0EBFB00F0A3
:100E90009BFC00F081FB1CF0F9F801F055FC01F01F
:100EA0006BFB02F091FB2948FFF7E2FE274B0C2277
:100EB0001A7026480CF082FF0DF09CFC06214FF4BE
:100EC000FA700DF03DFCFF23214A052103200EF0AE
:100ED00055F8FF231E4A052102200EF04FF8FF238C
:100EE0001B4A052101200EF049F800230193042339
:100EF000009300234FF4A0621649174805F0A5F9A6
:100F0000002301930423009300234FF4A0621349AC
:100F1000134805F09AF90023019306230093002358
:100F20004FF4A0620F49104805F08FF90023019398
:100F30000423009300234FF4A0620C490C4805F0F1
:100F400084F905F015FC00BFFDE700BF183E04243E
:100F5000483E042458FB0108450E000864FB0108C4
:100F6000DD0C00086CFB01083D0D000880FB01084A
:100F7000C50D000880B59CB000AF07F124034C22DA
:100F8000002118461DF0AEF93B1D20220021184615
:100F90001DF0A8F9022012F065FC00233B60314BE4
:100FA000DB6A304A23F00103D3622E4BDB6A03F085
:100FB00001033B602C4B9B6923F440432A4A43F4D2
:100FC00080439361284B9B6903F440433B603B683B
:100FD00000BF254B9B6903F40053B3F5005FF8D1C4
:100FE00001237B624FF48033BB620223BB64022384
:100FF000FB6402233B650C237B650223BB65032353
:10100000FB6502233B660C237B660223BB66002341
:10101000FB6607F12403184612F08EFC0346002BF2
:1010200001D000F07DFD3F237B600323BB600023E4
:10103000FB6000233B6100237B614023BB610023F5
:10104000FB6100233B623B1D0121184613F0CEF8E3
:101050000346002B01D000F063FD00BF7037BD4692
:1010600080BD00BF000400580048025880B5B0B0F1
:1010700000AF3B46C022002118461DF033F94FF463
:1010800000224FF00003C7E900230223BB600C23BA
:10109000FB6003233B6102237B610223BB61C0230E
:1010A000FB6120233B6200237B620023C7F8A4304E
:1010B0003B46184613F068FC0346002B01D000F0B5
:1010C0002FFD00BFC037BD4680BD000080B594B085
:1010D00000AF07F1440300221A605A609A6007F1DA
:1010E0002C0300221A605A609A60DA601A615A6111
:1010F00007F11C0300221A605A609A60DA603B1DF7
:1011000000221A605A609A60DA601A615A612020DF
:10111000FFF73EFD0120FFF757FD40237B600323CF
:10112000BB6000237B613B1D1946504816F0C0FD93
:101130004FF04070FFF7FCFC00214D48FFF74AFBE1
:1011400000237B640023FB640023BB6407F144039A
:101150001946474816F05CFC0023FB6202233B6300
:1011600000237B634FF40053BB634FF480533B6415
:1011700007F12C0319463E4816F076FC00213C4846
:10118000FFF7C6FA4FF48023FB6100233B6207F1AF
:101190001C031946374816F0E3FB3548FFF730FBD0
:1011A0003348FFF73FFB344B1B689B09334AA2FBD4
:1011B00003239A0913469B0013445B001A46304BE5
:1011C000A3FB0223DB083B6002E03B68013B3B6082
:1011D0003B68002BF9D1012206212548FFF76CFA64
:1011E000002201212248FFF7A6FA40F2FF720121F6
:1011F0001F48FFF7CBFA01211D48FFF72AFA214AC1
:101200000C211B48FFF758FA00221E491848FFF727
:1012100092FA40F2FF721B491548FFF7B7FA1949D5
:101220001348FFF716FA184A12211148FFF744FA3B
:10123000002215490E48FFF77EFA40F2FF7212496C
:101240000B48FFF7A3FA10490948FFF702FA0848CC
:10125000FFF7FCFA00BF0648FFF70CFB0346002B24
:10126000F9D000BF00BF5037BD4680BD0000025816
:10127000002002400023024000000024632D3E05B0
:10128000CDCCCCCC020030040800900C80B590B0DE
:1012900000AF07F1340300221A605A609A6007F128
:1012A0001C0300221A605A609A60DA601A615A615F
:1012B0003B1D00221A605A609A60DA601A615A6116
:1012C0002020FFF765FC0420FFF77EFC10237B60E5
:1012D0000323BB6000237B613B1D1946344816F095
:1012E000E7FC00213348FFF775FA00237B630023F6
:1012F000FB630023BB6307F1340319462D4816F046
:1013000087FB0023FB6100233B6200237B624FF4D9
:101310000053BB624FF480533B6307F11C03194633
:10132000244816F0A1FB00212248FFF7F1F92148DB
:10133000FFF766FA1F48FFF775FA1F4B1B689B09FA
:101340001E4AA2FB03239A0913469B0013445B0029
:101350001A461B4BA3FB0223DB083B6002E03B6801
:10136000013B3B603B68002BF9D1164A062111482E
:10137000FFF7A2F9002213490E48FFF7DCF940F20B
:10138000FF7210490B48FFF701FA0E490948FFF7B1
:1013900060F90848FFF75AFA00BF0648FFF76AFAF3
:1013A0000346002BF9D000BF00BF4037BD4680BDCB
:1013B000000802580021024000000024632D3E0571
:1013C000CDCCCCCC1000C01080B500AF2E4B2F4A36
:1013D0001A602D4B00229A602B4B0022DA602A4BB8
:1013E00000221A74284B00225A74274B00229A7448
:1013F000254B0A225A61244B01229A61224B082272
:10140000DA61214B01221A621F4B01225A621E4BE4
:1014100001229A621C4B0122DA621B4B01221A63E1
:10142000194B00225A63184B00229A63164B012273
:10143000DA63154B08221A64134B04225A64124BC8
:1014400000229A64104B0422DA640F4B00221A65C2
:101450000D4B04225A650C4B00229A650A4B002260
:10146000DA65094B08221A66074B00225A66064BBA
:1014700004229A6604480EF011F90346002B01D0AD
:1014800000F04EFB00BF80BD4C02002400A40040D1
:1014900080B5BEB000AF07F1DC0300221A605A60CD
:1014A0009A60DA601A615A619A6107F1C4030022F6
:1014B0001A605A609A60DA601A615A613B46C0222B
:1014C000002118461CF00EFF4FF008024FF00003F9
:1014D000C7E900230023C7F884303B46184613F0C1
:1014E00053FA0346002B01D000F01AFB0220FFF74D
:1014F0006BFBC023C7F8C4300223C7F8C8300023F1
:10150000C7F8CC300123C7F8D0300023C7F8D43057
:101510000423C7F8D83007F1C40319461B4816F056
:10152000C7FB4FF40010FFF76BFB1948FFF7FEF9FC
:10153000002200211648FFF7D1F91548FFF7E6F918
:101540001348FFF7BAF91248FFF7A7F90023C7F8C5
:10155000DC30104BC7F8E0300023C7F8E43000233C
:10156000C7F8E8300023C7F8EC300023C7F8F030A4
:101570000023C7F8F43007F1DC031946044816F0DD
:10158000A9FC00BFF837BD4680BD00BF000402586B
:1015900000540040CE9F900080B5ADF5127D00AFA5
:1015A0002B4B2C4A1A602A4B00225A60284B0022EF
:1015B0009A60274B4FF40042DA60254B00221A61F3
:1015C000234B08225A6122480FF0E6FB0346002B0A
:1015D00001D000F0A5FA01221F49204809F0F6FCCD
:1015E000034687F8473297F847320D2B17D107F19A
:1015F00044024FF40073002117480AF04FFE0346DF
:1016000087F8473297F84732002B1BD10122124945
:10161000124809F0DBFC034687F8473212E097F8DE
:101620004732002B0ED097F84732381D0C4A402124
:101630001CF0C6FC02F060F802463B1D194610463D
:1016400002F004FA00BF07F51277BD4680BD00BF67
:10165000EC020024007000528CFB0108241E0024C0
:1016600090FB010880B5C0B000AF07F1D803282275
:10167000002118461CF036FE07F1C00300221A6054
:101680005A609A60DA601A615A6107F58073A3F5AF
:1016900080731846C0231A4600211CF023FE07F56C
:1016A0008073A3F580714FF480524FF00003C1E9BD
:1016B000002307F58073A3F5807300221A663B466A
:1016C000184613F061F90346002B01D000F028FA08
:1016D0004FF48050FFF7B0FA4020FFF775FA08206A
:1016E000FFF772FA4FF40063C7F8C0300223C7F85F
:1016F000C4300023C7F8C8300023C7F8CC3000231B
:10170000C7F8D0300523C7F8D43007F1C003194615
:101710002A4816F0CDFA8023C7F8C0300223C7F854
:10172000C4300023C7F8C8300023C7F8CC300023EA
:10173000C7F8D0300523C7F8D43007F1C0031946E5
:101740001F4816F0B5FA4FF4C123C7F8D8304FF44C
:101750008003C7F8DC300723C7F8E0300023C7F860
:10176000E4300023C7F8E8304FF08063C7F8EC306E
:101770004FF0A043C7F8F0300023C7F8F43000233F
:10178000C7F8F8300023C7F8FC3007F1D803194632
:101790000C4817F061FF00210A48FFF7E7F8002125
:1017A0000848FFF7F6F80748FFF706F90548FFF77E
:1017B000CDF800BF07F58077BD4680BD0018025800
:1017C000000C02580030014080B5C0B000AF07F1F6
:1017D000D8032822002118461CF084FD07F1C0031D
:1017E00000221A605A609A60DA601A615A6107F53D
:1017F0008073A3F580731846C0231A4600211CF09D
:1018000071FD07F58073A3F580714FF480524FF09E
:101810000003C1E9002307F58073A3F5807300225C
:101820001A663B46184613F0AFF80346002B01D06A
:1018300000F076F94FF48040FFF7E2F90820FFF757
:10184000C3F90420FFF7C0F90823C7F8C03002230A
:10185000C7F8C4300023C7F8C8300023C7F8CC301D
:101860000023C7F8D0300523C7F8D43007F1C003F0
:1018700019462A4816F01CFA0623C7F8C03002237E
:10188000C7F8C4300023C7F8C8300023C7F8CC30ED
:101890000023C7F8D0300523C7F8D43007F1C003C0
:1018A00019461F4816F004FA0023C7F8D8304FF441
:1018B0008003C7F8DC300723C7F8E0300023C7F8FF
:1018C000E4300023C7F8E8304FF08063C7F8EC300D
:1018D0004FF0A043C7F8F0300023C7F8F4300023DE
:1018E000C7F8F8300023C7F8FC3007F1D8031946D1
:1018F0000C4817F0B1FE00210A48FFF737F8002125
:101900000848FFF746F80748FFF756F80548FFF77D
:101910001DF800BF07F58077BD4680BD000C02585A
:10192000000802580038004080B5BEB000AF07F193
:10193000D8032022002118461CF0D4FC07F1C00374
:1019400000221A605A609A60DA601A615A613B4656
:10195000C022002118461CF0C5FC4FF002024FF0D7
:101960000003C7E900230023BB673B46184613F07A
:101970000BF80346002B01D000F0D2F84FF4002002
:10198000FFF73EF90120FFF71FF90323C7F8C03026
:101990000223C7F8C4300023C7F8C8300023C7F8B3
:1019A000CC300023C7F8D0300823C7F8D43007F173
:1019B000C00319462A4816F07BF9FEF7C1FD03461D
:1019C000002200211846FEF711FE03461946342076
:1019D000FEF7E2FD3420FEF7C1FD0023C7F8D83042
:1019E0004FF4E133C7F8DC300023C7F8E0300023C0
:1019F000C7F8E4300023C7F8E8300C23C7F8EC3010
:101A00000023C7F8F0300023C7F8F43007F1D803FB
:101A10001946144817F03CFF1248FEF7EDFF00216D
:101A20001048FEF7F9FF00210E48FFF71CF80D489B
:101A3000FFF740F80B48FEF7CFFF00BF0948FFF75C
:101A40004FF80346002BF9D00648FFF75DF8034630
:101A5000002BF3D000BF00BFF837BD4680BD00BFEC
:101A600000000258004C004080B586B000AF3B46F5
:101A700000221A605A609A60DA601A615A61042082
:101A8000FFF7A2F80220FFF79FF84020FFF79CF82D
:101A90000820FFF799F80120FFF796F84FF400515E
:101AA0001448FFF757F818211348FFF761F84FF46F
:101AB00000533B6001237B600023BB600023FB607D
:101AC00000233B613B4619460A4816F0F1F81823FB
:101AD0003B6001237B600023BB600023FB6000238D
:101AE0003B613B461946044816F0E2F800BF183740
:101AF000BD4680BD000C02580000025880B582B07F
:101B000000AF78607B681B68044A934201D10DF0F6
:101B100095FC00BF0837BD4680BD00BF00000140F6
:101B200080B400AF72B600BF00BFFDE780B483B0E1
:101B300000AF0A4BD3F8F430084A43F00203C2F86E
:101B4000F430064BD3F8F43003F002037B607B687B
:101B500000BF0C37BD465DF8047B70470044025857
:101B600080B5BAB000AF786007F1D40300221A60E4
:101B70005A609A60DA601A6107F11003C0220021EE
:101B800018461CF0AFFB7B681B682B4A93424FD171
:101B90004FF400424FF00003C7E904234FF0805395
:101BA000C7F8803007F11003184612F0EDFE034627
:101BB000002B01D0FFF7B4FF204BD3F8EC301F4AC5
:101BC00043F48073C2F8EC301C4BD3F8EC3003F4D0
:101BD0008073FB60FB68194BD3F8E030174A43F081
:101BE0000203C2F8E030154BD3F8E03003F00203F3
:101BF000BB60BB684FF44053C7F8D4300223C7F82A
:101C0000D8300023C7F8DC300023C7F8E0300923C0
:101C1000C7F8E43007F1D403194609480EF00CFF69
:101C20000022052114200DF011FD14200DF028FDD7
:101C300000BFE837BD4680BD00A400400044025804
:101C40000004025880B5BCB000AF786007F1DC0337
:101C500000221A605A609A60DA601A6107F118036C
:101C6000C022002118461CF03DFB7B681B684B4AD4
:101C7000934240F08F804FF480324FF00003C7E969
:101C800006230023BB6607F11803184612F07CFEFA
:101C90000346002B01D0FFF743FF414BD3F8D4306C
:101CA0003F4A43F48033C2F8D4303D4BD3F8D430AC
:101CB00003F480337B617B69394BD3F8E030384AD9
:101CC00043F00403C2F8E030354BD3F8E03003F0C2
:101CD00004033B613B69324BD3F8E030304A43F0B8
:101CE0000203C2F8E0302E4BD3F8E03003F00203D9
:101CF000FB60FB682A4BD3F8E030294A43F0080325
:101D0000C2F8E030264BD3F8E03003F00803BB60A4
:101D1000BB684FF4FE53C7F8DC300223C7F8E0304D
:101D20000023C7F8E4300323C7F8E8300C23C7F8D2
:101D3000EC3007F1DC0319461A480EF07DFE4FF433
:101D40004073C7F8DC300223C7F8E0300023C7F83F
:101D5000E4300323C7F8E8300C23C7F8EC3007F170
:101D6000DC03194610480EF067FE0423C7F8DC3088
:101D70000223C7F8E0300023C7F8E4300323C7F894
:101D8000E8300C23C7F8EC3007F1DC0319460748AC
:101D90000EF052FE00BFF037BD4680BD007000520D
:101DA000004402580008025800040258000C02586F
:101DB00080B58EB000AF78607B680F2B42D80022D0
:101DC000796819200DF042FC19200DF059FC234AC6
:101DD0007B681360224BD3F8F030214A43F00103B3
:101DE000C2F8F0301E4BD3F8F03003F00103BB60B3
:101DF000BB6807F10C0207F110031146184612F0F8
:101E000081FD12F069FD78637B6B164AA2FB032308
:101E10009B0C013B3B63144B144A1A60124B40F27B
:101E2000E732DA60104A3B6B53600F4B00221A61B5
:101E30000D4B00229A600C4815F0A4FA0346002BC3
:101E400007D101E0012305E0074815F0FDFA03463C
:101E500000E0012318463837BD4680BDD800002475
:101E60000044025883DE1B43640500240000014047
:101E700080B400AF00BFFDE780B400AF00BFFDE756
:101E800080B400AF00BFFDE780B400AF00BFFDE746
:101E900080B400AF00BFFDE780B400AF00BFBD4617
:101EA0005DF8047B704780B500AF06F08DF900BF88
:101EB00080BD000080B500AF02480EF0AFF800BF53
:101EC00080BD00BF4C02002480B500AF024815F071
:101ED00033FB00BF80BD00BF6405002480B500AFA8
:101EE000024800F0CEFB00BF80BD00BF004C0040A8
:101EF00080B500AF024810F056FB00BF80BD00BFA8
:101F0000EC53042480B400AF01231846BD465DF8AD
:101F1000047B704780B582B000AF786039601CF0F8
:101F200071FA034616221A604FF0FF33184608373D
:101F3000BD4680BD80B582B000AF78604FF0FF3104
:101F40007868FFF7E7FF00BFFDE780B586B000AF18
:101F5000F860B9607A6000237B610AE0AFF300802B
:101F60000146BB685A1CBA60CAB21A707B69013359
:101F70007B617A697B689A42F0DB7B681846183788
:101F8000BD4680BD80B586B000AFF860B9607A60AC
:101F900000237B6109E0BB685A1CBA601B781846B5
:101FA000AFF300807B6901337B617A697B689A4279
:101FB000F1DB7B6818461837BD4680BD80B483B01E
:101FC00000AF78604FF0FF3318460C37BD465DF820
:101FD000047B704780B483B000AF786039603B68A1
:101FE0004FF400525A60002318460C37BD465DF886
:101FF000047B704780B483B000AF7860012318463B
:102000000C37BD465DF8047B704780B485B000AFE7
:10201000F860B9607A60002318461437BD465DF851
:10202000047B704780B586B000AF7860144A154BCA
:10203000D31A7B617B693B61134B1B68002B02D178
:10204000114B124A1A60104B1A687B6813443A69A4
:102050009A4207D21CF0D6F903460C221A604FF0C0
:10206000FF3309E0084B1B68FB60074B1A687B686D
:102070001344054A1360FB6818461837BD4680BDF7
:102080000000082400040000B0050024405C042483
:10209000DFF838D0FEF73AFAFEF78AF90C480D4916
:1020A0000D4A002302E0D458C4500433C4188C42B3
:1020B000F9D30A4A0A4C002301E013600432A24219
:1020C000FBD31CF0A5F9FEF7CBFE704700000824F7
:1020D0000000002430020024D8FE02083002002450
:1020E0003C5C0424FEE7000080B483B000AF78605D
:1020F0007B689A68054B134043F004027B689A6042
:1021000000BF0C37BD465DF8047B7047C0FFFF7F02
:1021100080B483B000AF78607B681B6C9BB21846BC
:102120000C37BD465DF8047B704780B483B000AFC8
:1021300078607B681B6803F00403042B01D1012342
:1021400000E0002318460C37BD465DF8047B70475D
:1021500080B483B000AF78607B6804221A6000BF4F
:102160000C37BD465DF8047B7047000080B500AFBA
:102170000D48FFF7EDFF0C48FFF7B6FF00BF0A4818
:10218000FFF7D3FF0346002BF9D00748FFF7E0FF26
:102190000548FFF7BDFF03461A46044B1A80034B60
:1021A0001B88184680BD00BF00210240BA050024EC
:1021B00080B584B000AF0346FB711D48FFF7C8FF30
:1021C0001B48FFF791FF0023FB6015E000BF184894
:1021D000FFF7ABFF0346002BF9D01548FFF7B8FF18
:1021E0001348FFF795FF03461946124AFB6822F889
:1021F0001310FB680133FB60FB68022BE6DDFB7903
:10220000032B0CD0032B0DDC012B02D0022B03D0AF
:1022100008E0084B1B8807E0064B5B8804E0054B91
:102220009B8801E04FF6FF7318461037BD4680BD0E
:1022300000200240B405002480B483B000AF786071
:102240007B681B6843F400727B681A6000BF0C3720
:10225000BD465DF8047B704780B483B000AF786002
:102260007B685B6903F00203022B01D1012300E0CC
:10227000002318460C37BD465DF8047B704780B4D8
:1022800083B000AF78600B46FB707B682033FA7830
:102290001A7000BF0C37BD465DF8047B704780B5EF
:1022A00082B000AF78600B46FB7000BF7868FFF724
:1022B000D3FF0346002BF9D0FB7819467868FFF767
:1022C000DEFF7868FFF7B8FF00BF0837BD4680BD66
:1022D00080B483B000AF78607B68DB6903F00203F1
:1022E000022B01D1012300E0002318460C37BD4624
:1022F0005DF8047B704780B483B000AF78607B6882
:10230000DB6903F00403042B01D1012300E0002367
:1023100018460C37BD465DF8047B704780B483B027
:1023200000AF78607B68DB6903F00803082B01D1FC
:10233000012300E0002318460C37BD465DF8047BFE
:10234000704780B483B000AF78607B68DB6903F0CE
:102350002003202B01D1012300E0002318460C3775
:10236000BD465DF8047B704780B483B000AF7860F1
:102370007B68DB6903F08003802B01D1012300E03F
:10238000002318460C37BD465DF8047B704780B4C7
:1023900083B000AF78607B6802221A6200BF0C37FE
:1023A000BD465DF8047B704780B483B000AF7860B1
:1023B0007B6804221A6200BF0C37BD465DF8047BBF
:1023C000704780B483B000AF78607B6808221A62DF
:1023D00000BF0C37BD465DF8047B704780B489B000
:1023E00000AF78607B68FB60FB6853E8003FBB6030
:1023F000BB6843F02003FB617B68FA69BA617B61CB
:102400007969BA6941E800233B613B69002BE9D156
:1024100000BF00BF2437BD465DF8047B704780B421
:1024200089B000AF78607B68FB60FB6853E8003FD1
:10243000BB60BB6843F08003FB617B68FA69BA61EB
:102440007B617969BA6941E800233B613B69002BF4
:10245000E9D100BF00BF2437BD465DF8047B70475B
:1024600080B489B000AF78607B68FB60FB6853E89C
:10247000003FBB60BB6823F08003FB617B68FA69A7
:10248000BA617B617969BA6941E800233B613B69C4
:10249000002BE9D100BF00BF2437BD465DF8047BA7
:1024A000704780B483B000AF78607B681B6803F02E
:1024B0002003202B01D1012300E0002318460C3714
:1024C000BD465DF8047B704780B483B000AF786090
:1024D0007B681B6803F08003802B01D1012300E09F
:1024E000002318460C37BD465DF8047B704780B466
:1024F00083B000AF78607B685B6ADBB218460C374C
:10250000BD465DF8047B704780B483B000AF78604F
:102510000B46FB70FA787B689A6200BF0C37BD46A9
:102520005DF8047B7047000080B485B000AF786030
:102530000023FB6013E00F4AFB68642101FB03F3F7
:1025400013441B687A689A4206D1FB68642202FB36
:1025500003F3084A134406E0FB680133FB60FB68A1
:10256000002BE8DD002318461437BD465DF8047BD8
:10257000704700BF0800002480B582B002AF4FF45E
:10258000806300930A4B0B4A01210B480CF03AFE82
:102590004FF480630093094B094A022109480CF06B
:1025A00031FE0948FFF71AFF00231846BD4680BDDB
:1025B000BC050024A4FB01080C000024BC09002475
:1025C000B0FB01083C000024004C004080B584B002
:1025D00000AF78607868FFF7A7FFF860FB68002B12
:1025E00002D14FF0FF330EE0FB68043307F10B021A
:1025F000114618460CF07FFE0346002B01D0FB7AF3
:1026000001E04FF0FF3318461037BD4680BD80B55E
:1026100084B000AF78600B46FB707868FFF784FFEA
:10262000F860FB68002B11D000BFFB683433FA78E8
:10263000114618460CF019FE034683F00103DBB285
:10264000002BF2D17868FFF7EAFE00E000BF1037F8
:10265000BD4680BD80B584B000AF78607868FFF774
:1026600063FFF860FB68002B01D1002305E0FB68E5
:10267000043318460CF080FE034618461037BD465A
:1026800080BD80B584B000AF78607868FFF74CFFFC
:10269000F860FB68002B53D07868FFF752FE0346C2
:1026A000002B2CD07868FFF7FCFE0346002B26D0C9
:1026B0007868FFF71CFF0346FB727868FFF72EFE71
:1026C0000346002B02D07868FFF77BFE7868FFF79F
:1026D000FFFD0346002B02D07868FFF758FE7868AC
:1026E000FFF709FE0346002B02D07868FFF75CFE77
:1026F000FB680433FA7A114618460CF0B6FD786888
:10270000FFF732FE0346002B1BD07868FFF7DCFE94
:102710000346002B15D0FB68343307F10A0211463B
:1027200018460CF0E8FD0346002B05D0BB7A19468D
:102730007868FFF7E9FE04E07868FFF791FE00E0B3
:1027400000BF1037BD4680BD80B582B002AF4FF4E8
:1027500000630093084B094A032109480CF052FD1D
:102760004FF400630093074B074A042107480CF01D
:1027700049FD00BFBD4680BDEC150024BCFB01082F
:10278000EC1D0024BC0D0024C4FB0108BC15002472
:1027900080B582B000AF0346FB71FB79194604484F
:1027A0000CF063FD034618460837BD4680BD00BFE8
:1027B000EC1D002480B582B000AF0346FB71FB79AD
:1027C000194604480CF051FD034618460837BD462B
:1027D00080BD00BFBC15002480B584B000AF786018
:1027E00039600023FB600023BB600FE07A68BB68A0
:1027F00013441B781846FFF7CBFF0346002B02D08B
:10280000FB680133FB60BB680133BB60BA683B689F
:102810009A42EBD3FB6818461037BD4680BD80B5A1
:1028200084B000AF786039600023FB600023BB6098
:102830000FE07A68BB6813441B781846FFF7BAFFAD
:102840000346002B02D0FB680133FB60BB680133F9
:10285000BB60BA683B689A42EBD3FB6818461037F6
:10286000BD4680BD80B582B000AF7860796804480D
:102870000CF041FD034618460837BD4680BD00BF39
:10288000BC15002480B400AF034B01221A7000BFB6
:10289000BD465DF8047B70471C1E002480B400AF69
:1028A000034B01221A7000BFBD465DF8047B7047E0
:1028B0001D1E002480B400AF034B1B78DBB218460A
:1028C000BD465DF8047B70471C1E002480B483B0B5
:1028D00000AF0346FB71044AFB79137000BF0C374D
:1028E000BD465DF8047B70471C1E002480B400AF19
:1028F000034B1B78DBB21846BD465DF8047B70477E
:102900001D1E002480B483B000AF0346FB71044A4F
:10291000FB79137000BF0C37BD465DF8047B704730
:102920001D1E002480B584B000AF786039603B681C
:10293000002B02D07B68002B01D101230BE039680A
:102940007868FFF749FFF860FA683B689A420CBF65
:1029500001230023DBB218461037BD4680BD0000BE
:1029600080B400AFBFF34F8F00BF064BDB6803F4AA
:10297000E0620449044B1343CB60BFF34F8F00BFA9
:1029800000BFFDE700ED00E00400FA0580B588B067
:1029900000AFF860B9607A6007F11403074A0A21B2
:1029A00018461BF00DFB07F114031946F86801F0F7
:1029B0004DF800BF2037BD4680BD00BFB4FD010803
:1029C00080B584B000AFF860B9607A60FFF7C8FFE7
:1029D00080B59CB002AFF860B9607A60B86801F069
:1029E0002DF90346A7F86630B7F86630012B04D8F6
:1029F0003449F86801F02AF860E00121B86801F074
:102A0000E7F838660221B86801F0E2F8F8653B6E35
:102A1000002B02D0FB6D002B04D12A49F86801F08D
:102A200015F84BE000220021386E1BF08DF9B865D7
:102A300000220021F86D1BF087F97865BB6D002B33
:102A400008DBBB6DFF2B05DC7B6D002B02DB7B6D98
:102A5000FF2B04DD1C49F86800F0F8FF2EE0BB6D89
:102A600087F853307B6D87F8523097F8522097F8EB
:102A70005310002300934FF47A7302200AF09CFF56
:102A80000346124A1360114B1B68002B04D11049F6
:102A9000F86800F0DBFF11E097F8532097F8523008
:102AA00007F11000009313460A4A40211BF088FAF0
:102AB00007F110031946F86800F0C8FF6837BD46F3
:102AC00080BD00BFBCFD0108D8FD0108201E002408
:102AD00000FE010828FE010880B5C8B002AF07F566
:102AE0008C73A3F58673186007F58C73A3F5887350
:102AF000196007F58C73A3F58A731A6007F58C7358
:102B0000A3F58873186801F099F80346A7F80A310D
:102B1000B7F80A31022B08D807F58C73A3F5867332
:102B2000D549186800F092FFA2E107F58C73A3F570
:102B300088730121186801F04BF8C7F8040107F504
:102B40008C73A3F588730221186801F041F8C7F867
:102B5000000100220021D7F804011BF0F5F8C7F8A6
:102B6000FC0000220021D7F800011BF0EDF8C7F8A7
:102B7000F800D7F8FC30002B0BDBD7F8FC30FF2B2C
:102B800007DCD7F8F830002B03DBD7F8F830FF2B41
:102B900008DD07F58C73A3F58673B849186800F053
:102BA00055FF65E1D7F8FC3087F8F730D7F8F830F3
:102BB00087F8F6300023C7F814310323A7F8123141
:102BC00025E0B7F8122107F58C73A3F58873114639
:102BD000186800F0FDFFC7F8D800D7F8D800FDF757
:102BE00089FB0246D7F814311344C7F81431B7F8FB
:102BF0001221B7F80A319A4204D0D7F814310133C0
:102C0000C7F81431B7F812310133A7F81231B7F809
:102C10001221B7F80A319A42D3D9D7F81431002BD0
:102C200008D107F58C73A3F586739549186800F0F1
:102C30000DFF1DE14FF47A73C7F8F03097F8F620D6
:102C400097F8F71000230093D7F8F03002200AF02D
:102C5000B3FEC7F8EC00D7F8EC30002B08D107F52D
:102C60008C73A3F586738749186800F0EFFEFFE0C8
:102C7000D7F814010AF0FCFAC7F8E800D7F8E830F2
:102C8000002B0CD1D7F8EC000AF031FE07F58C735D
:102C9000A3F586737C49186800F0D8FEE8E007F5D4
:102CA0008C73A3F588730321186800F091FFC7F8AF
:102CB000E400D7F8E400FDF71DFBC7F8E000D7F803
:102CC000E03003F00103002B10D007F58C73A3F55F
:102CD00086736E49186800F0B9FED7F8EC000AF068
:102CE00006FED7F8E8000AF05FFBC1E0D7F8E03055
:102CF0005B089AB2D7F8E8305A810023C7F80C3144
:102D000044E0D7F80C315B00D7F8E42013441B787B
:102D100087F89430D7F80C315B000133D7F8E42002
:102D200013441B7887F89530002387F896300023EA
:102D3000C7F8903007F1900207F194035449184600
:102D40001BF096F90346012B10D007F58C73A3F501
:102D500086735049186800F079FED7F8EC000AF045
:102D6000C6FDD7F8E8000AF01FFB81E0D7F89030E5
:102D7000D9B2D7F8E820D7F80C31134410330A46FB
:102D80001A70D7F80C310133C7F80C31D7F8E83096
:102D90005B891A46D7F80C319342B2D34FF47A725A
:102DA000D7F8E810D7F8EC000BF056F90346002BE3
:102DB00010D1D7F8E8000AF0F7FAD7F8EC000AF0DB
:102DC00096FD07F58C73A3F586733349186800F0F8
:102DD0003DFE4DE04FF47A71D7F8EC000BF032F87D
:102DE000C7F8DC00D7F8DC30002B22D0D7F8DC3075
:102DF0005B891946D7F8DC305B891A46D7F8DC3096
:102E0000103307F11000019300920B46234A8021F2
:102E10001BF0D6F807F1100207F58C73A3F5867343
:102E20001146186800F012FED7F8DC000AF0BCFA70
:102E300007E007F58C73A3F586731949186800F04D
:102E400005FED7F8EC000AF052FDD7F8E8305B89B0
:102E500007F19800134A40211BF0B2F807F19802DD
:102E600007F58C73A3F586731146186800F0EEFD24
:102E700007F58C77BD4680BD44FE01086CFE010855
:102E80008CFE01089CFE0108B0FE0108C8FE010886
:102E9000F4FE0108F8FE01080CFF01081CFF010800
:102EA00034FF010850FF010880B584B000AFF8601E
:102EB000B9607A60064B1B6818460AF018FD054990
:102EC000F86800F0C3FD00BF1037BD4680BD00BFED
:102ED000201E002460FF010880B59CB002AFF8609E
:102EE000B9607A60B86800F0A9FE0346A7F86630BA
:102EF000B7F86630002B04D12749F86800F0A6FD2A
:102F000047E00121B86800F063FE38660022002126
:102F1000386E1AF019FFF865FB6D002B02DDFB6DB2
:102F2000032B04DD1D49F86800F090FD31E0FB6DD6
:102F3000DBB21846FFF73CF90346A7F85A30B7F85A
:102F40005A304FF6FF72934204D11549F86800F0E9
:102F50007DFD1EE0B7F85A3040F6E44203FB02F272
:102F6000104B1344104A82FB03121A44D213DB178E
:102F7000D31A7B6507F114007B6D0093FB6D0B4A40
:102F800040211BF01DF807F114031946F86800F002
:102F90005DFD6837BD4680BD6CFF01088CFF0108F0
:102FA000A8FF0108F4010CFE01800080C4FF0108A5
:102FB00080B596B000AFF860B9607A60FFF7D6F8D8
:102FC0000346A7F85630B7F8562013465B01134462
:102FD0000E4A82FB03121A44D213DB17D31A40F2B3
:102FE000252202FB03F33B6507F110003B6D084A05
:102FF00040211AF0E5FF07F110031946F86800F0C8
:1030000025FD00BF5837BD4680BD00BF0180008050
:10301000E8FF010880B584B000AFF860B9607A605D
:10302000AA210348FFF73BF900BF1037BD4680BD1A
:103030000038004080B596B000AFF860B9607A60A3
:10304000B86800F0FBFD0346A7F85630B7F85630D5
:10305000002B04D11949F86800F0F8FC2BE001219D
:10306000B86800F0B5FD3865386D08F017FF034605
:103070001A46134B1A70124B1B78002B0DD107F117
:1030800010003B6D0F4A40211AF09AFF07F1100320
:103090001946F86800F0DAFC0DE0094B1B7807F1DF
:1030A0001000094A40211AF08BFF07F1100319465E
:1030B000F86800F0CBFC5837BD4680BD1000020810
:1030C00084220024300002084800020880B596B02F
:1030D00000AFF860B9607A60B86800F0AFFD0346F1
:1030E000A7F85630B7F85630002B04D11A49F868C3
:1030F00000F0ACFC2DE00121B86800F069FD3865F6
:103100000A22396D154807F0ABFF03461A46144BE7
:103110001A70134B1B78002B0DD107F110003B6D7B
:10312000104A40211AF04CFF07F110031946F868C5
:1031300000F08CFC0DE00A4B1B7807F110000A4AE6
:1031400040211AF03DFF07F110031946F86800F01E
:103150007DFC5837BD4680BD600002085C2000241D
:10316000842200247C0002089000020880B596B0FA
:1031700000AFF860B9607A60114B1B78002B17D153
:1031800007F154030D220F490F4808F026FA0E48A4
:1031900008F00AFC7B6D07F114000C4A40211AF07C
:1031A0000FFF07F114031946F86800F04FFC03E025
:1031B0000749F86800F04AFC00BF5837BD4680BD9B
:1031C00084220024A40002085C200024B400020829
:1031D000CC00020880B58EB000AFF860B9607A60AC
:1031E00001221649164807F03BFF03461A46154BC5
:1031F0001A70144B1B78002B17D107F1340307F119
:1032000014011F220E4808F0B5F87B6B38333B449D
:10321000002203F8242C07F114031946F86800F083
:1032200015FC074808F0C0FB03E00749F86800F008
:103230000DFC00BF3837BD4680BD00BFDC00020872
:103240005C20002484220024E800020880B5ADF54B
:10325000966D02AF07F59563A3F29C43186007F5DE
:103260009563A3F59463196007F59563A3F2A443EE
:103270001A6007F59563A3F59463186800F0DEFC07
:103280000346A7F8A634B7F8A634002B25D007F5D7
:103290009563A3F594630121186800F099FCC7F8C1
:1032A000A004D7F8A034002B0ED0D7F8A0341B7898
:1032B000002B09D007F51570D7F8A0345E4A4FF4FB
:1032C00080711AF07DFE10E007F515735B4A4FF42C
:1032D000807118461AF074FE07E007F51573574A17
:1032E0004FF4807118461AF06BFE07F5157207F25D
:1032F0006C431146184608F016FD034687F89F34C4
:1033000097F89F34002B17D097F89F3407F5157264
:1033100007F58A7000931346494A4FF4A0711AF0DA
:103320004FFE07F58A7207F59563A3F29C43114699
:10333000186800F08BFB7BE007F114034FF48071F9
:10334000184608F09BFB0346002B09D107F1140334
:1033500007F58A703B4A4FF4A0711AF031FE07E07E
:1033600007F58A73384A4FF4A07118461AF028FE00
:1033700007F58A7207F59563A3F29C431146186816
:1033800000F064FB07F5557207F26C4311461846CE
:1033900008F03AFD034687F89F3497F89F34002BD6
:1033A00041D107F59563A3F5AA739B7D002B3AD015
:1033B00007F59563A3F5AA731B7A03F00603002BA8
:1033C0002FD107F59563A3F5AA731B7A03F01003B9
:1033D000002B0AD007F55573163307F58A701B4A80
:1033E0004FF4A0711AF0ECFD10E007F59563A3F51A
:1033F000AA731A6807F58A7007F555731633009398
:103400001346134A4FF4A0711AF0DAFD07F58A72D9
:1034100007F59563A3F29C431146186800F016FB6C
:10342000B0E700BFAEE707F26C43184608F0D4FCE3
:1034300007F59567BD4680BD00010208040102083A
:103440000801020824010208340102084C010208A4
:103450006401020880B5A8B000AFF860B9607A6076
:10346000B86800F0EBFB0346A7F89E30B7F89E3033
:10347000002B03D1124808F0B7FA1EE00121B8680A
:1034800000F0A6FBC7F89800D7F8980008F0ACFA4F
:10349000034687F8973097F89730002B0DD007F147
:1034A0001400D7F89830074A80211AF089FD07F1F7
:1034B00014031946F86800F0C9FAA037BD4680BD6C
:1034C000740102087801020880B5C4B000AF07F5A6
:1034D0008873A3F58273186007F58873A3F5847366
:1034E000196007F58873A3F586731A6007F1100356
:1034F0004FF48071184608F0C1FA0346002B12D130
:1035000007F1100207F58873A3F582731146186856
:1035100000F09CFA07F58873A3F5827308491868D0
:1035200000F094FA07E007F58873A3F58273054964
:10353000186800F08BFA00BF07F58877BD4680BD9C
:103540009C010208A001020880B400AF024B18469B
:10355000BD465DF8047B70470811020880B400AFD7
:1035600010231846BD465DF8047B704780B584B0D3
:1035700000AF78600B46FB70FB78FB7302E0012024
:1035800003F056F807F10F030121184619F066FE03
:103590000346012BF3D000BF00BF1037BD4680BDEE
:1035A00080B584B000AF78600B46FB70FB78FB738E
:1035B000FB7B19460348FFF72AF800BF1037BD46CA
:1035C00080BD00BF004C004080B582B000AF00F06D
:1035D0009FF878607B68394ADA607B684FF4006254
:1035E0001A827B6810229A807B684022DA807B688E
:1035F00080221A817B6820225A817B6801229A747A
:103600007B682F4A1A60FFF79FFF02467B685A616A
:10361000FFF7A4FF03461A467B681A83786800F018
:10362000D2F80346274A1360264B1B68002B01D1B2
:1036300001233EE0234B1B68234A1A6000F068F820
:1036400038603B68214ADA603B684FF400621A82B6
:103650003B6810229A803B684022DA803B688022D7
:103660001A813B6820225A813B6801229A743B6888
:10367000174A1A60FFF768FF02463B685A61FFF776
:103680006DFF03461A463B681A83386800F09BF8C2
:103690000346104A13600F4B1B68002B01D1012316
:1036A00007E00C4B1B680C4A1A600C4B01221A7085
:1036B000002318460837BD4680BD00BF882200247D
:1036C000C4010208883200246D350008882A0024CD
:1036D000D40102088C320024A13500089032002465
:1036E00080B400AF034B1B681846BD465DF8047BF1
:1036F000704700BF8832002480B400AF034B1B68C2
:103700001846BD465DF8047B704700BF8C3200242C
:1037100080B400AF114B40229A80104B4022DA80D7
:103720000E4B80221A810D4B0022DA600B4B0022D7
:103730001A820A4B08225A81084B01229A74074BBD
:10374000074A1A60054B00221A83044B00225A6173
:10375000024B1846BD465DF8047B70479432002446
:103760000002020880B485B000AF78607B685B69B6
:10377000002B02D17B685B8900E00023FB817B6822
:103780009B8803339A087B68DB8803339B081A44C1
:103790007B681B8903339B08D118FA8913465B00A9
:1037A0001344DB0003339B08CA18FB8903339B08CF
:1037B000134412339BB29B009BB218461437BD468C
:1037C0005DF8047B704780B588B000AF7860002357
:1037D000FB617868FFF7C6FF0346BB610023FB75FA
:1037E0007B68DB68002B05D07B681B8A1A46BB69A7
:1037F000934201D9002371E07B68DB683B61BA69C1
:10380000002138691AF06EFD3B69FB613B6910339A
:103810003B61FB693A69DA603B6938333B61FB69BC
:10382000DB68FB60FB683A691A617B689B8803333D
:1038300023F003033A6913443B61FB683A69DA6198
:103840007B68DB88033323F003033A6913443B614D
:103850007B685A69FB685A627B681A8BFB689A8599
:103860007B681A8BFB68DA85FB683A695A607B686B
:103870001A89FB681A81FB7D002B08D0FB6893F83E
:10388000333043F00403DAB2FB6883F833207B68FB
:103890009B7C002B08D0FB6893F8333043F0200367
:1038A000DAB2FB6883F833207B689A88FB681A8356
:1038B000FB6800229A82FB680022DA827B68DA8841
:1038C000FB685A84FB68002283F832207B681A6800
:1038D000FB681A60FB6800229A86FB69184620374D
:1038E000BD4680BD80B584B000AF78600B46FB70EC
:1038F0007B68DB68FB60FB681033FA78114618467A
:1039000000F08AFF034683F00103DBB2002B08D0EE
:10391000FB6893F8333043F00103DAB2FB6883F8B5
:10392000332000BF1037BD4680BD80B584B000AFE6
:1039300078607B681B68002B00F083807B68DB6805
:10394000FB60FB6893F8333003F00203002B55D182
:10395000FB6893F8333043F00203DAB2FB6883F874
:103960003320FB681B681946786800F07EFE45E04E
:10397000FB681033184600F027FF0346FB72FB6814
:1039800093F8333003F00803002B05D0FB7A194677
:10399000786800F0F5F92AE0FB6893F832301B2BC9
:1039A0000CD1FB7A5B2B09D1FB6893F8333043F0E1
:1039B0000803DAB2FB6883F8332018E0FB7A184674
:1039C00000F0AAFE0346002B05D0FB7A1946786862
:1039D00000F086FA0BE0FB7A184600F0BDFE0346C5
:1039E000002B04D0FB7A1946786800F027FA786833
:1039F00000F012FDFB68FA7A83F83220FB6810337E
:103A0000184600F0C0FE0346002BB1D1FB6893F8C6
:103A1000333003F00103002B14D0FB6800221A841A
:103A2000FB68DB69FA68128C134400221A70FB6889
:103A300093F8333023F00103DAB2FB6883F83320C4
:103A400000E000BF1037BD4680BD000080B584B0E7
:103A500000AF786039607B681B68002B3ED07B68C4
:103A6000DB68FB60FB689B8E7B81FB6893F83330DF
:103A700003F01003002B02D1786800F0C1FDFB6851
:103A80007A899A863968786800F0EFFD154B1B68D3
:103A90001946786800F0E9FDFB6893F8333003F0CD
:103AA0001003002B1BD1FB681B681946786800F0D7
:103AB000DCFDFB68DB691946786800F0D6FDFB6821
:103AC0001A8CFB681A86FB689B8E00221946786860
:103AD00000F0ECFD786800F09FFC00E000BF1037BC
:103AE000BD4680BD6C00002480B588B000AF786012
:103AF0007B68002B66D0354BFB600023FB770023EF
:103B0000BB770023BB6100237B6147E07B69013306
:103B10007B61BB7F002B02D00023BB7729E0FB7CBD
:103B20005C2B02D10123BB7738E0FB7C222B10D128
:103B3000FB7F002B14BF01230023DBB283F00103C2
:103B4000DBB2FB77FB7F03F00103FB770023FB7401
:103B50000FE0FB7F83F00103DBB2002B09D0FB7C7D
:103B60001946F8681AF0C6FB0346002B01D0002363
:103B7000FB74FB7C002B09D1BB69002B0EDDBB69FC
:103B8000013B7A6813441B78002B07D0BB697A6825
:103B90001344FA7C1A70BB690133BB617B697A6894
:103BA00013441B78FB74FB7C002BAFD1BB697A6894
:103BB000134400221A70BB6901337A68134400224F
:103BC0001A7000E000BF2037BD4680BD0402020825
:103BD00080B584B000AF78600B467B807B88194647
:103BE000786800F020FF0346FB81FB894FF6FF72E7
:103BF000934203D0FB897A68134400E000231846FF
:103C00001037BD4680BD80B584B000AF78600B46EC
:103C10007B807B881946786800F005FF0346FB81AE
:103C2000FB894FF6FF72934203D0FB897A681344F5
:103C300000E0002318461037BD4680BD80B485B033
:103C400000AF78607B68002B03D07B681B78002B6B
:103C500001D1002319E00023FB6001237B81FB6875
:103C60007A6813441B78002B09D1FB6801337A680A
:103C700013441B78002B06D07B8901337B81FB68C2
:103C80000133FB60EBE700BF7B8918461437BD4664
:103C90005DF8047B7047000080B586B000AF7860A7
:103CA0000B46FB707B68DB683B613B699B89002BA3
:103CB0005FD0FB78002B05D03B695A893B699B8913
:103CC0009A4256D0FB7883F00103DBB2002B03D07D
:103CD0003B695B89002B4CD0786800F091FC3B6914
:103CE0001B681946786800F0C0FCFB78002B06D0F2
:103CF0003B695B8901339AB23B695A8105E03B69B4
:103D00005B89013B9AB23B695A813B691A1D3B6949
:103D10005B891946104600F00DFE78617B69002B27
:103D200001D1164B7B617869FCF7E4FA0346FB810D
:103D30003B69DB69FA89796918461AF090FB3B699F
:103D4000DA69FB89134400221A703B69FA891A84E4
:103D50003B69DB691946786800F087FC3B691A8C7F
:103D60003B691A863B6900229A86786800F054FB0A
:103D700000E000BF1837BD4680BD00BF0802020842
:103D800090B585B000AF78600B46FB707B68DB6850
:103D9000FB60FB783F2B48D9FB787E2B45D8FB682E
:103DA00093F8333023F00803DAB2FB6883F833204A
:103DB000FB78412B02D0FB78422B09D1FB78412BB9
:103DC0000CBF01230023DBB219467868FFF764FFBC
:103DD000FB78432B0FD1FB689B8E002B0BD0FB682D
:103DE0009B8E013B9AB2FB689A86124B1B68194660
:103DF000786800F03AFCFB78442B16D1FB689B8E68
:103E00001C46FB68DB691846FCF774FA03469C42C3
:103E10000BD2FB689B8E01339AB2FB689A86064BE5
:103E20001B681946786800F020FC00BF1437BD46B7
:103E300090BD00BF700000247400002480B584B0E1
:103E400000AF78600B46FB707B68DB68FB60FB684B
:103E50001B8C0233FA68528C93423BDAFB68DB69B5
:103E60001846FCF747FA0246FB689B8ED31ABB60E4
:103E7000FB68DA69BB680133D018FB68DA69BB6894
:103E8000D118FB689B8E01331A461AF011FAFB68B1
:103E90001B8C01339AB2FB681A84FB681B8E0133BA
:103EA0009AB2FB681A86FB68DA69BB681344FA7831
:103EB0001A70FB689B8E002B05D0084B1B681946B7
:103EC000786800F0D2FB7B681B68FA781146786846
:103ED000984700E000BF1037BD4680BD8000002439
:103EE00080B584B000AF78600B46FB707B68DB6800
:103EF000FB60FB6893F832300D2B02D1FB780A2B64
:103F000078D0FB6893F832300A2B02D1FB780D2B66
:103F100070D0FB780D2B02D0FB780A2B29D1786862
:103F200000F0DCFA354B1B681946786800F09DFB01
:103F3000FB681B8C002B02D0786800F065F8FB68EA
:103F400000221A84FB68DB69FA68128C1344002291
:103F50001A70FB6800221A86FB6800225A81FB68EF
:103F600000229A86FB681B681946786800F07DFB82
:103F700041E0FB78082B02D0FB787F2B33D1FB6824
:103F80001B8C1A46FB689B8ED31A002B2BDD1C4B17
:103F90001B681946786800F068FB1A4B1B681946C5
:103FA000786800F062FBFB68DB691846FCF7A2F951
:103FB0000246FB689B8ED31ABB60FB68DA69BB685C
:103FC000013BD018FB68DA69BB68D118FB689B8E8F
:103FD00001331A461AF06CF9FB681B8C013B9AB24C
:103FE000FB681A8407E0FB78092B04D1786800F09D
:103FF00075FA00E000BF1037BD4680BD6C0000249C
:10400000740000248400002490B58FB000AF786065
:104010007B68DB68BB61012387F8373000233B6393
:104020000DE0BB69DA693B6B13441B78202B03D08E
:10403000002387F8373008E03B6B01333B63BB69F3
:104040001B8C1A463B6B9342EBDB97F83730002B07
:1040500040F0FA80BB691A1DBB69DB69194610463E
:1040600000F004FC0023FB620023BB62002387F8FE
:10407000273000233B6230E0BB69DA693B6A1344B6
:104080001B78FB75FB7D202B0FD1BB6A002B05D164
:10409000BB69DA693B6A134400221A70FB6A002B81
:1040A00018D0012387F8273014E0FB6A002B05D1D4
:1040B000BB69DA693B6A1344FB620BE0BB6A002B05
:1040C00008D197F82730002B04D0BB69DA693B6A26
:1040D0001344BB623B6A01333B62BB691B8C1A46CB
:1040E0003B6A9342C8DBBB69DA69BB691B8C01334D
:1040F000134400221A70FB6A002B00F0A7800023F3
:10410000FB6172E0BB69596AFA6913465B001344AC
:10411000DB000B445B681946F86AFCF7E1F80346DC
:10412000002B5FD1BB69596AFA6913465B001344DF
:10413000DB000B445B69002B5ED0BB69596AFA69EE
:1041400013465B001344DB000B441B7B002B02D0A7
:10415000B86AFFF7C9FCBB6993F8333043F010032A
:10416000DAB2BB6983F83320BB6A002B1AD0394915
:10417000B86AFCF7B5F80346002B06D03649B86A92
:10418000FCF7AEF80346002B0CD1BB69596AFA69FB
:1041900013465B001344DB000B441946786800F0BB
:1041A0005DF815E0BB69596AFA6913465B00134470
:1041B000DB000B445C69BB69596AFA6913465B0012
:1041C0001344DB000B441B691A46B96A7868A047A0
:1041D000BB6993F8333023F01003DAB2BB6983F87C
:1041E000332034E0FB690133FB61BB699B8D1A46C8
:1041F000FB69934286DB00E000BF7B685B68002BB5
:104200001DD0FB6AFB60BB6A3B61BB6993F833302E
:1042100043F01003DAB2BB6983F833207B685B6834
:1042200007F10C02114678689847BB6993F8333060
:1042300023F01003DAB2BB6983F8332007E0F96A90
:10424000786800F05FFE02E000BF00E000BF3C378E
:10425000BD4690BD0C0202081002020880B582B073
:1042600000AF786039603B689B68002B10D07B689A
:104270001B680921786898473B689B6819467868ED
:1042800000F0F3F9044B1B681946786800F0EDF96B
:1042900000BF0837BD4680BD6C00002480B58EB0DD
:1042A00000AFF860B9607A6000233B610023BB82F5
:1042B0000023FB827868FCF71DF87862BB68DB6836
:1042C0003B623B6A9B8D002B02D07B6A002B08D19E
:1042D000FB681A4607F1100393E8030082E8030025
:1042E00095E000237B6383E03B6A596A7A6B13464F
:1042F0005B001344DB000B445B68FB61F869FBF770
:10430000F9FFB8613B6A9A6A7B6B13441A783B6A7F
:10431000996A7B6B0B4422F00102D2B21A70BA691F
:104320007B6A9A425ED3012387F833300023FB6215
:1043300010E07A68FB6A13441A78F969FB6A0B4447
:104340001B789A4203D0002387F8333006E0FB6ADB
:104350000133FB62FA6A7B6A9A42EAD397F83330F8
:1043600083F00103DBB2002B3ED13B6A9A6A7B6B80
:1043700013441A783B6A996A7B6B0B4442F0010242
:10438000D2B21A70FB8A002B04D0BB8A1A46BB69D2
:10439000934202D2BB699BB2BB82FB8A01339BB2C0
:1043A000FB82FB8A012B02D1FB693B611DE03B6A6A
:1043B0001B8CBB6210E03A69BB6A13441A78F96936
:1043C000BB6A0B441B789A4203D0BB6A9BB2BB8288
:1043D0000BE0BB6A0133BB62BB8A1A46BB6A9342DD
:1043E000E9D302E000BF00E000BF7B6B01337B63D9
:1043F0003B6A9B8D1A467B6B9342FFF675AFFB6859
:104400001A4607F1100393E8030082E80300F868F6
:104410003837BD4680BD000080B588B000AF7860F9
:104420007B68DB687B617B6993F8333003F02003A2
:10443000002B4AD07B69DA6907F10C0379681846CA
:10444000FFF72CFF7B8A002B02D17B691B8C3B8200
:10445000204B1B681946786800F007F97B699B8E32
:1044600001221946786800F021F97B691B8CFB61F9
:104470000BE07B681B68F968FA690A4412781146F8
:1044800078689847FB690133FB613B8A1A46FB69F0
:104490009342EED33B8ABB6107E07B681B68202117
:1044A00078689847BB690133BB617B691B8E1A46EC
:1044B000BB699342F1D33A8A7B691A86064B1B6823
:1044C0001946786800F0D1F800E000BF2037BD46FB
:1044D00080BD00BF780000247C00002480B588B037
:1044E00000AF78607B68DB68BB61BB69DA6907F1A4
:1044F0000C0379681846FFF7D1FE7B8A002B78D031
:104500007B8A012B04D03A8ABB691B8C9A4231D931
:10451000BB69DB69F9683A8A184619F0A0FF7B8A03
:10452000012B09D1BB69DB693A8A134420221A7036
:104530003B8A01339BB23B82BB69DB693A8A1344F5
:1045400000221A70BB69DB69BA69128C1146BA691C
:10455000928E8A1A13441946786800F086F83A8ACF
:10456000BB691A84BB691A8CBB691A86BB690022B5
:104570009A863FE0786800F043F80023FB6121E071
:10458000BB699A6AFB6913441B7803F00103002B93
:1045900014D0BB69596AFA6913465B001344DB0007
:1045A0000B445B687B617969786800F05EF8134BB7
:1045B0001B681946786800F058F800E000BFFB69F6
:1045C0000133FB61BB699B8D1A46FB699342D7DBC4
:1045D000BB691B681946786800F047F8BB69DB695E
:1045E0001946786800F041F8BB691A8CBB691A86D5
:1045F00000E000BF2037BD4680BD00BF6C00002436
:1046000090B587B000AF78607B68DB683B613B6941
:104610001B8E1C463B691B681846FBF76BFE034666
:104620002344FB607B681B680D2178689847002352
:104630007B6107E07B681B682021786898477B696D
:1046400001337B617A69FB689A42F3D37B681B680C
:104650000D21786898473B6900221A863B69002241
:104660009A8600BF1C37BD4690BD80B584B000AFB0
:10467000786039603868FBF73DFEB8600023FB6066
:104680000BE07B681B683968FA680A4412781146A7
:1046900078689847FB680133FB60FA68BB689A4208
:1046A000EFD300BF00BF1037BD4680BD80B586B0D8
:1046B00000AF78600B467B8013467B707B88002BB5
:1046C00020D007F10C0300221A605A601A727B781E
:1046D000002B04D00D4B1B6802331B7803E00C4BFE
:1046E0001B6802331B78FB757A88FB7D07F10C0091
:1046F000084919F09BFC07F10C0319467868FFF78D
:10470000B4FF00E000BF1837BD4680BD7000002434
:10471000740000241802020880B483B000AF03467E
:10472000FB71FB790D2B0BD0FB790A2B08D0FB79A1
:10473000082B05D0FB79092B02D0FB797F2B01D107
:10474000012300E0002303F00103DBB218460C371D
:10475000BD465DF8047B704780B483B000AF03466C
:10476000FB71FB791F2B04D9FB797E2B01D8012328
:1047700000E0002303F00103DBB218460C37BD460E
:104780005DF8047B704780B483B000AF78607B68CD
:10479000DA887B689B889A4206D37B68DA887B68D4
:1047A0009B88D31A9BB209E07B681A897B689B8837
:1047B000D31A9AB27B68DB8813449BB218460C3735
:1047C000BD465DF8047B704780B485B000AF78606B
:1047D0000023FB737B689A887B68DB889A4214D03D
:1047E0007B681B687A68928813441B78FB737B682C
:1047F0009B8801339BB27A681289B3FBF2F101FB0B
:1048000002F29B1A9AB27B689A80FB7B1846143797
:10481000BD465DF8047B704780B485B000AF78601A
:104820000B46FB707B68DB8801339BB27A68128988
:10483000B3FBF2F101FB02F29B1AFB817B689B88C0
:10484000FA899A420BD07B681B687A68D288134435
:10485000FA781A707B68FA89DA80012300E0002375
:1048600018461437BD465DF8047B704780B588B0A4
:1048700000AF786039603868FBF73CFDB8617B6851
:104880009B881A46BB6901339A4201D200234DE04E
:104890003968786800F06AF824E07B681B8919465B
:1048A000786800F047F878617869FBF723FD386194
:1048B0007B681B687A69D31A1A463B691344013333
:1048C000FB617B689B881A46FB69D31AFB60BB6956
:1048D0000133FA689A420AD27B681B89013B9AB27B
:1048E0007B681A817B681B89002BD6D100E000BF52
:1048F0007B681B89002B0AD07B681A68BB6901336F
:10490000D0187B681B68FA69194619F0D1FC7B68DE
:104910001868BB6901331A46396819F0A0FD7B6835
:104920001B8901339AB27B681A810123184620370C
:10493000BD4680BD80B582B000AF78600B467B80FD
:104940007B88002B04D07B681B897A889A4201D926
:10495000002307E07B681B687A8811461846FFF73A
:1049600037F9034618460837BD4680BD80B586B086
:1049700000AF786039603B68002B4CD07B681B89A6
:10498000002B48D000237B6101237B8213E07B68EE
:104990001B687A8A11461846FFF735F9786139683D
:1049A0007869FBF79DFC0346002B0AD000237B614E
:1049B0007B8A01337B827B681B897A8A9A42E6D99B
:1049C00000E000BF7B69002B27D07B681B89013B7F
:1049D0009AB27B681A817A8A7B681B8901339A4272
:1049E0001DD07869FBF786FCF8607B689B881946C8
:1049F000FB6801337A691A447B681B68D31ACB1AA7
:104A0000BB60FB6801337A691344BA681946786958
:104A100019F04EFC04E000BF02E000BF00E000BF60
:104A20001837BD4680BD80B485B000AF78600B46B6
:104A30007B807B68002B02D07B88002B02D14FF655
:104A4000FF7328E00023FB810123BB81BA897B88A7
:104A50009A4213D0FB897A6813441B78002B09D142
:104A6000BB890133BB81FB8901337A6813441B780E
:104A7000002B05D0FB890133FB81E7E700BF00E095
:104A800000BFFB897A6813441B78002B01D0FB8997
:104A900001E04FF6FF7318461437BD465DF8047BFE
:104AA000704780B586B000AFF860B9607A600023C7
:104AB0007B6110E07B699B00BA6813441B68194650
:104AC000F868FBF70DFC0346002B01D17B6908E079
:104AD0007B6901337B617A697B689A42EADB4FF03C
:104AE000FF3318461837BD4680BD000080B586B03C
:104AF00000AFF860B9607A60B868FBF7FBFB03466B
:104B00003B61B968F868FFF7B0FD00237B6106E000
:104B10000849F868FFF7A9FD7B6901337B617A6872
:104B20003B69D31A7A699A42F2DB00BF00BF18379B
:104B3000BD4680BD040202082DE9F04395B000AFE8
:104B4000F860B9607A60FB68DB687B637B6B9B8D88
:104B5000002B0AD18C49F868FFF787FD8B4B1B6847
:104B60001946F868FFF781FDBAE1B868FFF766F803
:104B700003467B867B8E002B40F0F6806B461E46FC
:104B80002023BB62BB6A013B7B62BB6A0022984662
:104B900091464FF000024FF000034FEA491343EAF9
:104BA000D8634FEA4812BB6A00221C4615464FF0F4
:104BB00000024FF000036B0143EAD4636201BB6A59
:104BC0009B000733DB08DB00ADEB030D6B460333C3
:104BD0009B089B003B620023FB640023BB642DE029
:104BE0007B6B596ABA6C13465B001344DB000B44C1
:104BF0001B68002B09D07B6B596ABA6C13465B00AB
:104C00001344DB000B441B6800E0614BBB61FA6C92
:104C1000396AB869FFF745FF78617B69002B0ADACA
:104C2000FA6CBB6A9A4206DAFB6C5A1CFA643A6A5E
:104C3000B96942F82310BB6C0133BB647B6B9B8D5D
:104C40001A46BB6C9342CBDB00237B6485E0514961
:104C5000F868FFF70AFD3B6A7A6C53F82230194670
:104C6000F868FFF702FD4C49F868FFF7FEFC474B78
:104C70001B681946F868FFF7F8FC00233B645DE009
:104C80007B6B596A3A6C13465B001344DB000B44A0
:104C90001B68002B09D07B6B596A3A6C13465B008A
:104CA0001344DB000B441B6800E0394BFB613B6A9B
:104CB0007A6C53F822301946F869FBF711FB03466A
:104CC000002B38D13549F868FFF7CFFC7B6B596A68
:104CD0003A6C13465B001344DB000B445B68102204
:104CE0001946F868FFF702FF2D49F868FFF7BDFC89
:104CF0007B6B596A3A6C13465B001344DB000B4430
:104D00009B68002B0DD07B6B596A3A6C13465B0095
:104D10001344DB000B449B681946F868FFF7A5FCB9
:104D200003E02049F868FFF7A0FC184B1B68194600
:104D3000F868FFF79AFC3B6C01333B647B6B9B8DFF
:104D40001A463B6C93429BDB104B1B681946F86874
:104D5000FFF78BFC7B6C01337B647A6CFB6C9A42B3
:104D6000FFF675AFB546BBE07B8E012B40F0AE8001
:104D70000121B868FEF72CFFF862002387F83F3066
:104D80000023BB638FE000BF200202086C000024F8
:104D900038020208480202084C02020850020208C7
:104DA000580202085C0202087B6B596ABA6B134610
:104DB0005B001344DB000B445B68F96A1846FBF7A1
:104DC0008FFA0346002B6BD1012387F83F30464909
:104DD000F868FFF74AFC7B6B596ABA6B13465B00B5
:104DE0001344DB000B445B681946F868FFF73DFC91
:104DF0003E4B1B681946F868FFF737FC3C49F868DA
:104E0000FFF733FC7B6B596ABA6B13465B001344A4
:104E1000DB000B441B68002B09D07B6B596ABA6B13
:104E200013465B001344DB000B441B6800E0314B6E
:104E30001946F868FFF719FC2C4B1B681946F868EF
:104E4000FFF713FC7B6B596ABA6B13465B00134484
:104E5000DB000B449B68002B17D02749F868FFF74D
:104E600004FC7B6B596ABA6B13465B001344DB008E
:104E70000B449B681946F868FFF7F7FB1B4B1B6850
:104E80001946F868FFF7F1FB14E01C49F868FFF7D2
:104E9000ECFB164B1B681946F868FFF7E6FB09E0C8
:104EA000BB6B0133BB637B6B9B8D1A46BB6B934221
:104EB000FFF67AAF97F83F3083F00103DBB2002BA7
:104EC0000ED0F96AF86800F01DF809E00C49F8689E
:104ED000FFF7CBFB054B1B681946F868FFF7C5FBCE
:104EE0005437BD46BDE8F083680202086C00002418
:104EF0007402020838020208800202085C020208FA
:104F00008802020880B582B000AF786039600B4932
:104F10007868FFF7AAFB39687868FFF7A6FB0849AD
:104F20007868FFF7A2FB074B1B6819467868FFF704
:104F30009CFB00BF0837BD4680BD00BFB802020819
:104F4000CC0202086C00002480B483B000AF78600B
:104F50007B6803F108027B685A607B684FF0FF3280
:104F60009A607B6803F108027B68DA607B6803F172
:104F700008027B681A617B6800221A6000BF0C3748
:104F8000BD465DF8047B704780B483B000AF7860A5
:104F90007B6800221A6100BF0C37BD465DF8047BB8
:104FA000704780B485B000AF786039607B685B681B
:104FB000FB603B68FA685A60FB689A683B689A60D5
:104FC000FB689B683A685A60FB683A689A603B687D
:104FD0007A681A617B681B685A1C7B681A6000BF7C
:104FE0001437BD465DF8047B704780B485B000AFD0
:104FF000786039603B681B68BB60BB68B3F1FF3FFA
:1050000003D17B681B69FB600CE07B680833FB60A5
:1050100002E0FB685B68FB60FB685B681B68BA6862
:105020009A42F6D2FB685A683B685A603B685B68F4
:105030003A689A603B68FA689A60FB683A685A6016
:105040003B687A681A617B681B685A1C7B681A6027
:1050500000BF1437BD465DF8047B704780B485B04F
:1050600000AF78607B681B69FB607B685B687A686F
:1050700092689A607B689B687A6852685A60FB689D
:105080005B687A689A4203D17B689A68FB685A60C9
:105090007B6800221A61FB681B685A1EFB681A6055
:1050A000FB681B6818461437BD465DF8047B7047E3
:1050B00080B586B000AF7860396001237B617B6882
:1050C0003B613B69002B0DD14FF0500372B683F367
:1050D0001188BFF36F8FBFF34F8F62B6FB6000BFC5
:1050E00000BFFDE73B69002B5DD03B69DB6B002B0C
:1050F00059D03B691A6C3B69DB6B0021A3FB02238F
:10510000002B00D001210B46002B4CD102F0C2FF36
:105110003B691A683B69DB6B3969096C01FB03F376
:105120001A443B699A603B6900229A633B691A689A
:105130003B695A603B691A683B69DB6B013B396923
:10514000096C01FB03F31A443B69DA603B69FF22F7
:1051500083F844203B69FF2283F845203B68002BFD
:1051600014D13B691B69002B1AD03B6910331846D8
:1051700001F078FE0346002B12D0174B4FF08052FF
:105180001A60BFF34F8FBFF36F8F09E03B69103395
:105190001846FFF7D9FE3B6924331846FFF7D4FEC3
:1051A00002F0AEFF01E000237B617B69002B0DD193
:1051B0004FF0500372B683F31188BFF36F8FBFF3C4
:1051C0004F8F62B6BB6000BF00BFFDE77B6918462A
:1051D0001837BD4680BD00BF04ED00E080B58CB03F
:1051E00002AFF860B9607A603B6000237B623B6885
:1051F000002B0DD14FF0500372B683F31188BFF32B
:105200006F8FBFF34F8F62B63B6200BF00BFFDE7F9
:10521000FB68002B33D03B68002B30D07B68002B21
:1052200002D0BB68002B2AD07B68002B02D1BB6860
:10523000002B24D150237B617B69502B0DD04FF084
:10524000500372B683F31188BFF36F8FBFF34F8F94
:1052500062B6FB6100BF00BFFDE77B693B687B6214
:105260007B6A012283F8462097F830207B6A0093FE
:1052700013467A68B968F86800F06CF810E07B6A49
:10528000002B0DD14FF0500372B683F31188BFF39A
:105290006F8FBFF34F8F62B6BB6100BF00BFFDE7EA
:1052A0007B6A18462837BD4680BD80B58AB002AFFC
:1052B000F860B9601346FB710023FB61FB68002BAB
:1052C00032D00021BA68FB68A3FB0223002B00D078
:1052D00001210B46002B27D1FB68BA6802FB03F3C0
:1052E00013F1510F20D8FB68BA6802FB03F3BB61CE
:1052F000BB695033184603F001F8F861FB69002BD5
:1053000023D0FB697B617B6950337B61FB690022A1
:1053100083F84620FA79FB69009313467A69B968E5
:10532000F86800F017F810E0FB69002B0DD14FF082
:10533000500372B683F31188BFF36F8FBFF34F8FA3
:1053400062B63B6100BF00BFFDE7FB69184620372E
:10535000BD4680BD80B584B000AFF860B9607A60AA
:10536000FB70BB68002B03D1BB69BA691A6002E00D
:10537000BB697A681A60BB69FA68DA63BB69BA68A4
:105380001A640121B869FFF793FEBB69FA7883F8C4
:105390004C2000BF1037BD4680BD000080B58EB0E8
:1053A00000AFF860B9607A603B6000237B63FB6804
:1053B0003B633B6B002B0DD14FF0500372B683F370
:1053C0001188BFF36F8FBFF34F8F62B6BB6200BF10
:1053D00000BFFDE7BB68002B03D13B6B1B6C002BB0
:1053E00001D1012300E00023002B0DD14FF0500329
:1053F00072B683F31188BFF36F8FBFF34F8F62B61E
:105400007B6200BF00BFFDE73B68022B03D13B6B13
:10541000DB6B012B01D1012300E00023002B0DD118
:105420004FF0500372B683F31188BFF36F8FBFF351
:105430004F8F62B63B6200BF00BFFDE701F042FF45
:105440000346002B02D17B68002B01D1012300E031
:105450000023002B0DD14FF0500372B683F3118857
:10546000BFF36F8FBFF34F8F62B6FB6100BF00BF0A
:10547000FDE702F00FFE3B6B9A6B3B6BDB6B9A42D6
:1054800002D33B68022B29D13A68B968386B00F027
:105490003EFCF8623B6B5B6A002B10D03B6B243305
:1054A000184601F0DFFC0346002B13D03F4B4FF0B2
:1054B00080521A60BFF34F8FBFF36F8F0AE0FB6A11
:1054C000002B07D0394B4FF080521A60BFF34F8F3B
:1054D000BFF36F8F02F014FE012363E07B68002BA3
:1054E00003D102F00DFE00235CE07B6B002B06D1A4
:1054F00007F11403184601F091FD01237B6302F0CC
:10550000FFFD01F07DF902F0C5FD3B6B93F84430DF
:105510005BB2B3F1FF3F03D13B6B002283F8442021
:105520003B6B93F845305BB2B3F1FF3F03D13B6B6C
:10553000002283F8452002F0E3FD3A1D07F1140331
:105540001146184601F080FD0346002B24D1386B2C
:1055500000F0D5FC0346002B18D03B6B10337A6863
:105560001146184601F00EFC386B00F060FC01F0AB
:1055700055F90346002B7FF47CAF0C4B4FF0805263
:105580001A60BFF34F8FBFF36F8F72E7386B00F075
:105590004EFC01F043F96CE7386B00F048FC01F079
:1055A0003DF9002318463837BD4680BD04ED00E0C4
:1055B00080B592B000AFF860B9607A603B60FB687C
:1055C0003B643B6C002B0DD14FF0500372B683F35C
:1055D0001188BFF36F8FBFF34F8F62B6FB6200BFBE
:1055E00000BFFDE7BB68002B03D13B6C1B6C002B9D
:1055F00001D1012300E00023002B0DD14FF0500317
:1056000072B683F31188BFF36F8FBFF34F8F62B60B
:10561000BB6200BF00BFFDE73B68022B03D13B6CC0
:10562000DB6B012B01D1012300E00023002B0DD106
:105630004FF0500372B683F31188BFF36F8FBFF33F
:105640004F8F62B67B6200BF00BFFDE702F010FE25
:10565000EFF311824FF0500372B683F31188BFF35A
:105660006F8FBFF34F8F62B63A62FB613B6AFB6399
:105670003B6C9A6B3B6CDB6B9A4202D33B68022B10
:1056800049D13B6C93F8453087F83B303B6C9B6BC2
:105690007B633A68B968386C00F039FB97F93B30A6
:1056A000B3F1FF3F12D13B6C5B6A002B30D03B6CF7
:1056B0002433184601F0D6FB0346002B28D07B6824
:1056C000002B25D07B6801221A6021E001F0D2F97D
:1056D000386397F93B303A6B9A4219D997F93B30C6
:1056E0007F2B0DD14FF0500372B683F31188BFF3B7
:1056F0006F8FBFF34F8F62B6BB6100BF00BFFDE786
:1057000097F83B300133DBB25AB23B6C83F845204B
:1057100001237B6401E000237B64FB6B7B617B697D
:1057200083F3118800BF7B6C18464837BD4680BDA7
:1057300080B58CB000AFF860B9607A600023FB627E
:10574000FB68BB62BB6A002B0DD14FF0500372B6F1
:1057500083F31188BFF36F8FBFF34F8F62B63B6245
:1057600000BF00BFFDE7BB68002B03D1BB6A1B6C09
:10577000002B01D1012300E00023002B0DD14FF0BD
:10578000500372B683F31188BFF36F8FBFF34F8F4F
:1057900062B6FB6100BF00BFFDE701F093FD034669
:1057A000002B02D17B68002B01D1012300E00023F4
:1057B000002B0DD14FF0500372B683F31188BFF365
:1057C0006F8FBFF34F8F62B6BB6100BF00BFFDE7B5
:1057D00002F060FCBB6A9B6B7B627B6A002B1FD074
:1057E000B968B86A00F0FDFA7B6A5A1EBB6A9A6310
:1057F000BB6A1B69002B0FD0BB6A1033184601F03F
:1058000031FB0346002B07D03C4B4FF080521A600F
:10581000BFF34F8FBFF36F8F02F072FC012369E07B
:105820007B68002B03D102F06BFC002362E0FB6A73
:10583000002B06D107F11003184601F0EFFB0123FE
:10584000FB6202F05DFC00F0DBFF02F023FCBB6AB0
:1058500093F844305BB2B3F1FF3F03D1BB6A00223F
:1058600083F84420BB6A93F845305BB2B3F1FF3F45
:1058700003D1BB6A002283F8452002F041FC3A1DA7
:1058800007F110031146184601F0DEFB0346002B1A
:1058900023D1B86A00F01DFB0346002B17D0BB6A6A
:1058A00024337A681146184601F06CFAB86A00F0A1
:1058B000BEFA00F0B3FF0346002B89D10F4B4FF027
:1058C00080521A60BFF34F8FBFF36F8F80E7B86AC3
:1058D00000F0ADFA00F0A2FF7AE7B86A00F0A7FA8C
:1058E00000F09CFFB86A00F0F4FA0346002B3FF486
:1058F0006FAF002318463037BD4680BD04ED00E091
:1059000080B58CB000AF786039600023FB627B68A3
:105910007B620023BB627B6A002B0DD14FF05003EA
:1059200072B683F31188BFF36F8FBFF34F8F62B6E8
:10593000BB6100BF00BFFDE77B6A1B6C002B0DD075
:105940004FF0500372B683F31188BFF36F8FBFF32C
:105950004F8F62B67B6100BF00BFFDE701F0B2FC74
:105960000346002B02D13B68002B01D1012300E04C
:105970000023002B0DD14FF0500372B683F3118832
:10598000BFF36F8FBFF34F8F62B63B6100BF00BFA5
:10599000FDE702F07FFB7B6A9B6B3B623B6A002B5F
:1059A00024D03B6A5A1E7B6A9A637B6A1B68002B71
:1059B00004D101F0B3FE02467B6A9A607B6A1B69E0
:1059C000002B0FD07B6A1033184601F04BFA0346C8
:1059D000002B07D04C4B4FF080521A60BFF34F8F13
:1059E000BFF36F8F02F08CFB012389E03B68002B33
:1059F00003D102F085FB002382E0FB6A002B06D175
:105A000007F10803184601F009FB0123FB6202F0CD
:105A100077FB00F0F5FE02F03DFB7B6A93F8443023
:105A20005BB2B3F1FF3F03D17B6A002283F84420CD
:105A30007B6A93F845305BB2B3F1FF3F03D17B6AD9
:105A4000002283F8452002F05BFB3A4607F1080389
:105A50001146184601F0F8FA0346002B32D1786A55
:105A600000F037FA0346002B26D07B6A1B68002B18
:105A700009D102F00FFB7B6A9B68184601F040FCDD
:105A8000B86202F03DFB7B6A24333A68114618463F
:105A900001F078F9786A00F0CAF900F0BFFE034619
:105AA000002B7FF476AF184B4FF080521A60BFF393
:105AB0004F8FBFF36F8F6CE7786A00F0B8F900F092
:105AC000ADFE66E7786A00F0B2F900F0A7FE786AEA
:105AD00000F0FFF90346002B3FF45BAFBB6A002BDD
