:020000040800F2
:100000000000082479230008592100086121000814
:100010006921000871210008792100080000000012
:10002000000000000000000000000000B190000887
:100030008121000800000000719300088F21000852
:10004000CD230008CD230008CD230008CD230008D0
:10005000CD230008CD230008CD230008CD230008C0
:10006000CD230008CD230008CD230008CD230008B0
:10007000CD230008CD230008CD230008CD230008A0
:10008000CD230008CD230008CD230008CD23000890
:100090009D210008CD230008CD230008CD230008B2
:1000A000CD230008B1210008CD230008CD2300088E
:1000B000CD230008CD230008CD230008CD23000860
:1000C000CD230008CD230008CD230008CD23000850
:1000D000CD230008CD230008CD230008CD23000840
:1000E000CD230008CD23000800000000CD23000828
:1000F000CD230008CD230008CD230008CD23000820
:10010000CD230008CD230008CD230008CD2300080F
:10011000C5210008CD230008CD230008CD23000809
:10012000CD230008CD230008CD230008CD230008EF
:10013000CD230008CD230008CD230008CD230008DF
:10014000CD230008CD2300080000000000000000BF
:10015000CD230008CD230008CD230008CD230008BF
:10016000CD230008CD230008CD230008CD230008AF
:10017000CD230008D9210008CD230008000000008D
:10018000CD230008CD230008CD230008CD2300088F
:10019000CD230008CD230008CD230008CD2300087F
:1001A000CD230008CD230008CD230008CD2300086F
:1001B000CD230008CD230008CD230008CD2300085F
:1001C000CD230008CD230008CD230008CD2300084F
:1001D000CD230008CD230008CD230008CD2300083F
:1001E000CD230008CD230008CD230008CD2300082F
:1001F000CD230008CD230008CD230008CD2300081F
:10020000CD230008CD230008CD230008CD2300080E
:10021000CD230008CD230008CD230008CD230008FE
:10022000CD230008CD230008CD23000800000000E6
:10023000CD230008CD230008CD230008CD230008DE
:10024000CD230008CD230008CD230008CD230008CE
:10025000CD230008CD230008CD230008CD230008BE
:10026000CD230008CD230008CD230008CD230008AE
:10027000CD230008CD230008CD230008CD2300089E
:10028000CD230008CD230008CD2300080000000086
:08029000CD230008CD23000876
:1002A00010B5054C237833B9044B13B10448AFF3B0
:1002B00000800123237010BDAC0200240000000068
:1002C000349B020808B5034B1BB103490348AFF345
:1002D000008008BD00000000B0020024349B02082A
:1002E00010F8012B11F8013B012A28BF9A42F7D0E0
:1002F000D01A7047034613F8012B002AFBD1181AB5
:1003000001387047000000000000000000000000FD
:1003100001F0FF01102A2BDB10F0070F08D010F8B6
:10032000013B013A8B422DD010F0070F42B3F6D1BA
:10033000F0B441EA012141EA014122F007047FF0D3
:1003400000070023F0E80256083C85EA010586EA2A
:10035000010685FA47F5A3FA87F586FA47F6A5FA66
:1003600087F68EB9EED1F0BC01F0FF0102F0070272
:1003700032B110F8013B013A83EA010313B1F8D11D
:100380000020704701387047002D06BF35460338FE
:10039000073815F0010F07D1013015F4807F02BF37
:1003A000013015F4C03F0130F0BC0138704700BF88
:1003B00053B94AB9002908BF00281CBF4FF0FF31CC
:1003C0004FF0FF3000F088B9ADF1080C6DE904CEB4
:1003D00000F006F8DDF804E0DDE9022304B0704720
:1003E0002DE9F047089D8E4604468846002B4AD1E9
:1003F0008A42174662D9B2FA82F64EB1C6F120039C
:1004000001FA06F820FA03F3B74043EA0808B440BB
:100410004FEA174E1FFA87FCB8FBFEF1230C0EFBC8
:10042000118843EA084301FB0CF29A4209D9FB18F0
:1004300001F1FF3080F0EA809A4240F2E780023911
:100440003B449A1AA3B2B2FBFEF00EFB102243EA21
:10045000024300FB0CFC9C4509D9FB1800F1FF325C
:1004600080F0D6809C4540F2D3803B44023840EA7D
:100470000140A3EB0C0300211DB1F3400022C5E9AC
:100480000032BDE8F0878B4205D90DB1C5E9000106
:1004900000210846F5E7B3FA83F1002946D17345F8
:1004A00002D3824200F20581841A6EEB030201201E
:1004B0009046002DE5D0C5E90048E2E7002A00F0AB
:1004C0009080B2FA82F6002E40F0A4808A1A030CC3
:1004D0004FEA174E80B2BCB20121B2FBFEFC0EFB0C
:1004E0001C2243EA024304FB0CF29A4207D9FB1890
:1004F0000CF1FF3802D29A4200F2E080C4469B1A07
:10050000B3FBFEF20EFB123340EA034302FB04F49A
:100510009C4207D9FB1802F1FF3002D29C4200F244
:10052000CA8002461B1B42EA0C40A5E7C1F1200627
:100530008B4022FA06F71F430EFA01F420FA06F365
:100540002EFA06FE4FEA1749234300FA01F81FFA74
:1005500087FCBEFBF9F01C0C09FB10EE44EA0E44CC
:1005600000FB0CFEA64502FA01F209D93C1900F184
:10057000FF3A80F09C80A64540F2998002383C44C6
:10058000A4EB0E041FFA83FEB4FBF9F309FB13443A
:100590004EEA044403FB0CFCA44508D93C1903F1C2
:1005A000FF3E80F08280A4457FD9023B3C4443EA71
:1005B0000040A4EB0C04A0FB02EC64457346E1464A
:1005C00062D35FD05DB1B8EB030264EB090404FAB7
:1005D00006F622FA01F31E43CC40C5E9006400216F
:1005E0004FE7B1FBF2FC010C41EA0E4180B240EA58
:1005F00001423B4638463C46B846BE462026B1FB43
:10060000F7F1A2EB080241EA0C4166E7014618E760
:1006100010462CE7C6F120022EFA02F3B740B14093
:1006200020FA02F24FEA174E0A43B3FBFEF8BCB2BF
:100630000EFB1833110C41EA034108FB04F9B040EA
:1006400089454FEA104380B23ED9791808F1FF3C42
:1006500001D289451FD8A1EB0901B1FBFEF909FBC5
:1006600004F80EFB191192B242EA0142424529D226
:10067000BA1809F1FF31C4D24245C2D2A9F1020130
:100680003A44BEE7F0459DD2BEEB02036CEB070C8B
:100690000138E14696E7A7EB09094944A8F1020CA5
:1006A000B1FBFEF909FB04F8DBE773467FE7504630
:1006B00066E70846FDE63B44023A33E7ACF1020C3C
:1006C0003B441CE749469CE7A1EB0901C446B1FB4A
:1006D000FEF909FB04F8C4E7704700BF80B400AF1F
:1006E000494BD3F88830484A43F47003C2F8883045
:1006F000454B1B69444A43F010031361434B1B688D
:1007000003F00F03062B07D8404B1B6823F00F03A1
:100710003E4A43F0070313603D4B1B683C4A43F0DD
:10072000010313603A4B00221A61394B1A683849A9
:10073000384B13400B60354B1B6803F00803002B4C
:1007400007D0324B1B6823F00F03304A43F00703F6
:1007500013602F4B00229A612D4B0022DA612C4B43
:1007600000221A622A4B2C4A9A62294B2B4ADA62DF
:10077000274B2B4A1A63264B00225A63244B284AE4
:100780009A63234B0022DA63214B254A1A64204BDB
:1007900000225A641E4B1B681D4A23F480231360F9
:1007A0001B4B00221A661F4B5B6A1E4A43F48043B0
:1007B00053621D4B1A681D4B1340B3F1005F02D208
:1007C0001B4B01221A60124BD3F8D43003F4805330
:1007D000002B13D10E4BD3F8D4300D4A43F4805381
:1007E000C2F8D430134B43F2D2021A60084BD3F84C
:1007F000D430074A23F48053C2F8D43000BFBD463A
:100800005DF8047B704700BF00ED00E0002000525F
:10081000004402587FEDF6EA000202020000FF01E8
:1008200080020101C00000580010005C0000FFFFC2
:10083000088100510040005280B400AF0A4BDB68D1
:1008400023F00603084A43F00203D36000BF064BBF
:100850005B6803F40053002BF9D000BF00BFBD4616
:100860005DF8047B704700BF0048025880B400AFB9
:10087000044BDB681B0A03F007031846BD465DF80E
:10088000047B704700ED00E080B483B000AF034606
:10089000FB80B7F90630002B0BDBFB8803F01F024F
:1008A0000749B7F906305B09012000FA02F241F866
:1008B000232000BF0C37BD465DF8047B704700BFA6
:1008C00000E100E080B483B000AF03463960FB80F4
:1008D000B7F90630002B0ADB3B68DAB20C49B7F9EE
:1008E00006301201D2B20B4483F800230AE03B68C1
:1008F000DAB20849FB8803F00F03043B1201D2B2BD
:100900000B441A7600BF0C37BD465DF8047B704778
:1009100000E100E000ED00E080B489B000AFF860D5
:10092000B9607A60FB6803F00703FB61FB69C3F100
:100930000703042B28BF0423BB61FB690433062B88
:1009400002D9FB69033B00E000237B614FF0FF32DB
:10095000BB6902FA03F3DA43BB681A407B699A4029
:100960004FF0FF317B6901FA03F3D9437B680B40F9
:10097000134318462437BD465DF8047B704780B4A6
:1009800087B000AF786039603B68C3F31303002B76
:1009900007D13B689B0E03F01F03012202FA03F309
:1009A00015E03B683B613B6993FAA3F3FB60FB688E
:1009B0007B617B69002B01D1202303E07B69B3FAC3
:1009C00083F3DBB203F01F03012202FA03F37A6818
:1009D000D2691A437B68DA6100BF1C37BD465DF8F7
:1009E000047B704780B487B000AFF860B9607A606C
:1009F000FB6830331A46BB681B0A9B0003F00C03EC
:100A000013447B617B691A68BB6803F01F031F21D5
:100A100001FA03F3DB431A407B689B0E03F01F01CE
:100A2000BB6803F01F0301FA03F31A437B691A60E2
:100A300000BF1C37BD465DF8047B704780B483B0AF
:100A400000AF786039607B68DB6823F003023B68A5
:100A50001A437B68DA6000BF0C37BD465DF8047B43
:100A6000704780B487B000AFF860B9607A60FB6807
:100A700014331A46BB685B0E9B0003F00403134457
:100A80007B617B691A68BB681B0D03F01F0307219C
:100A900001FA03F3DB431A40BB681B0D03F01F038D
:100AA000796801FA03F31A437B691A6000BF1C37A7
:100AB000BD465DF8047B704780B485B000AFF86038
:100AC000B9607A60FB68D3F8C020BB68C3F3130336
:100AD000DB431A407B6803F018030849D940BB6820
:100AE0000B40C3F313031A43FB68C3F8C02000BFD5
:100AF0001437BD465DF8047B704700BFFFFF0F0051
:100B000080B483B000AF786039607B681A69064BA7
:100B100013403A681A437B681A6100BF0C37BD4620
:100B20005DF8047B704700BFFCFBFFFF80B483B01F
:100B300000AF78607B689A68044B13407A689360D2
:100B400000BF0C37BD465DF8047B7047C0FFFF5FF8
:100B500080B483B000AF78607B689A68054B13401F
:100B600043F080527B689A6000BF0C37BD465DF849
:100B7000047B7047C0FFFF6F80B483B000AF786024
:100B80007B689A68054B134043F001027B689A60CA
:100B900000BF0C37BD465DF8047B7047C0FFFF7F88
:100BA00080B483B000AF78607B681B6803F00103FA
:100BB000012B01D1012300E0002318460C37BD466C
:100BC0005DF8047B704780B483B000AF78607B68C9
:100BD0001B6823F400327B681A6000BF0C37BD46E7
:100BE0005DF8047B704780B483B000AF78607B68A9
:100BF0001B6823F400227B681A6000BF0C37BD46D7
:100C00005DF8047B7047000080B485B000AFF860E9
:100C1000B9607A60FB68DA68064B1340B9687A6895
:100C20000A431A43FB68DA6000BF1437BD465DF81B
:100C3000047B704701F8FFFF80B483B000AF786099
:100C40007B68DB6823F400427B68DA6000BF0C3706
:100C5000BD465DF8047B704780B483B000AF786018
:100C60007B685B6843F000727B685A6000BF0C379A
:100C7000BD465DF8047B704780B483B000AF7860F8
:100C80007B681B6843F001027B681A6000BF0C3769
:100C9000BD465DF8047B704780B483B000AF7860D8
:100CA00039607B68DB6823F460123B681A437B6819
:100CB000DA6000BF0C37BD465DF8047B704780B436
:100CC00083B000AF786039607B689B6823F4F07272
:100CD0003B681A437B689A6000BF0C37BD465DF8DD
:100CE000047B704780B483B000AF78607B68DB68BA
:100CF00043F080427B68DA6000BF0C37BD465DF888
:100D0000047B704780B483B000AF78607B681B6859
:100D100043F001027B681A6000BF0C37BD465DF8E6
:100D2000047B704780B483B000AF78607B681B6839
:100D300023F000527B681A6000BF0C37BD465DF897
:100D4000047B704780B489B000AF786039607B68FD
:100D50000833FB60FB6853E8003FBB60BB6823F0CF
:100D600060423B685B071343FB617B680833FA69A9
:100D7000BA617B617969BA6941E800233B613B69EB
:100D8000002BE4D100BF00BF2437BD465DF8047BD3
:100D9000704780B489B000AF786039607B680833F1
:100DA000FB60FB6853E8003FBB60BB6823F06062F8
:100DB0003B685B061343FB617B680833FA69BA61E1
:100DC0007B617969BA6941E800233B613B69002B8B
:100DD000E4D100BF00BF2437BD465DF8047B7047F7
:100DE00080B483B000AF78607B685B6823F4904286
:100DF0007B685A607B689B6823F02A027B689A6054
:100E000000BF0C37BD465DF8047B704780B483B0EB
:100E100000AF78607B68DB6903F40013B3F5001F53
:100E200001D1012300E0002318460C37BD465DF8D0
:100E3000047B704780B483B000AF78607B68DB6967
:100E400003F48003B3F5800F01D1012300E00023F8
:100E500018460C37BD465DF8047B704780B483B0FC
:100E600000AF7860054B5A6804497B6813434B60B8
:100E700000BF0C37BD465DF8047B70470004005886
:100E800080B483B000AF786039607B683A689A615B
:100E900000BF0C37BD465DF8047B704780B483B05B
:100EA00000AF786039603B681A047B689A6100BFC4
:100EB0000C37BD465DF8047B7047000080B485B0F8
:100EC00000AF78600A4BD3F8D82009497B681343F8
:100ED000C1F8D830064BD3F8D8207B681340FB60AC
:100EE000FB6800BF1437BD465DF8047B704700BF48
:100EF0000044025880B485B000AF78600A4BD3F844
:100F0000E02009497B681343C1F8E030064BD3F871
:100F1000E0207B681340FB60FB6800BF1437BD46D0
:100F20005DF8047B704700BF0044025880B485B070
:100F300000AF78600A4BD3F8E82009497B68134377
:100F4000C1F8E830064BD3F8E8207B681340FB601B
:100F5000FB6800BF1437BD465DF8047B704700BFD7
:100F60000044025880B485B000AF78600A4BD3F8D3
:100F7000F02009497B681343C1F8F030064BD3F8E1
:100F8000F0207B681340FB60FB6800BF1437BD4650
:100F90005DF8047B704700BF0044025880B483B002
:100FA00000AF78607B6801221A707B68134A5A6030
:100FB0007B68134A9A607B68124ADA607B680A226F
:100FC0001A747B680A225A747B6819229A747B68A7
:100FD0001822DA747B6814221A757B680A22DA8276
:100FE0007B684FF480721A837B680022DA6100BF4D
:100FF0000C37BD465DF8047B704700BF4C9B020870
:10100000589B0208609B020880B582B000AF7860F0
:1010100010211348FFF734FF4FF400511148FFF738
:101020003DFFC82006F0E0F84FF400510D48FFF7EF
:1010300027FF4FF4167006F0D7F808210848FFF78D
:101040002DFF4FF4967006F0CFF808210448FFF703
:1010500017FF4FF47A7006F0C7F800BFDCE700BF57
:1010600000000258000C025880B584B000AF7860D0
:1010700001F012FD0346002B19D007E002F0B0FE8C
:101080000246FB7B1946104602F0ACFF07F10F0346
:10109000184601F0F1FC0346002BEFD102F0A0FE50
:1010A0000346184602F0C1FF002001F001FD0F4881
:1010B00001F044FC0346002B13D00C4801F0FAFB6E
:1010C0000346DBB2FB7302F097FE0246FB7B194638
:1010D000104602F087FF02F08FFE0346184602F02A
:1010E000A4FF012006F080F8C2E700BF004C0040DA
:1010F00080B582B000AF786026F0B8F8054815F0EA
:10110000F3F9054815F0F0F9012006F06DF800BF7D
:10111000F4E700BFE00500241831002480B582B058
:1011200002AF18F019FF00F099F800F013F900F081
:101130000FFE00F06DFD00F0BBFA00F01DFB00F0AB
:1011400039F900F017FA00F001FC00F0B1FC00F0F2
:1011500097FB01F06DFC01F083FB02F0B5FD334815
:10116000FFF71CFF314B0C221A70304817F0F0FBD0
:1011700018F00AF906214FF4FA7018F0ABF8FF23C3
:101180002B4A0521032018F0C3FCFF23284A052120
:10119000022018F0BDFCFF23254A0521012018F08C
:1011A000B7FC15F037FC15F091FE224B032283F8B3
:1011B0002420204B03F500531A461F4BC2F8343B42
:1011C0001C4815F027F91D4B042283F824201B4BE3
:1011D00003F500531A461A4BC2F8343B174815F072
:1011E00019F9002301930423009300234FF4A06214
:1011F0001449154805F005FE0023019304230093CC
:1012000000234FF4A0621149114805F0FAFD0023B4
:1012100001930623009300234FF4A0620D490E486A
:1012200005F0EFFD06F080F800BFFDE7449A0424C6
:10123000749A0424E005002419730208183100246C
:10124000F16A0108DC9B0208F1100008E89B020823
:1012500009100008F09B02086910000880B59CB0D6
:1012600000AF07F124034C220021184627F07CF838
:101270003B1D20220021184627F076F802201DF0A1
:10128000A3F800233B60314BDB6A304A23F00103B3
:10129000D3622E4BDB6A03F001033B602C4B9B694E
:1012A00023F440432A4A43F480439361284B9B69CB
:1012B00003F440433B603B6800BF254B9B6903F44C
:1012C0000053B3F5005FF8D101237B624FF4803304
:1012D000BB620223BB640223FB6402233B650C2335
:1012E0007B650223BB650323FB6502233B660C235E
:1012F0007B660223BB660023FB6607F124031846C6
:101300001DF0CCF80346002B01D000F07DFD3F23FB
:101310007B600323BB600023FB6000233B61002351
:101320007B614023BB610023FB6100233B623B1DCB
:10133000012118461DF00CFD0346002B01D000F0E2
:1013400063FD00BF7037BD4680BD00BF000400587C
:101350000048025880B5B0B000AF3B46C022002123
:10136000184627F001F84FF400224FF00003C7E9B8
:1013700000230223BB600C23FB6003233B61022399
:101380007B610223BB61C023FB6120233B620023FE
:101390007B620023C7F8A4303B4618461EF0A6F82F
:1013A0000346002B01D000F02FFD00BFC037BD4623
:1013B00080BD000080B594B000AF07F14403002267
:1013C0001A605A609A6007F12C0300221A605A6072
:1013D0009A60DA601A615A6107F11C0300221A60F0
:1013E0005A609A60DA603B1D00221A605A609A6067
:1013F000DA601A615A612020FFF760FD0120FFF7D3
:1014000079FD40237B600323BB6000237B613B1D90
:101410001946504821F0FEF94FF04070FFF71EFDCD
:1014200000214D48FFF76CFB00237B640023FB6425
:101430000023BB6407F144031946474821F09AF89A
:101440000023FB6202233B6300237B634FF40053C2
:10145000BB634FF480533B6407F12C0319463E48AD
:1014600021F0B4F800213C48FFF7E8FA4FF480235C
:10147000FB6100233B6207F11C031946374821F04A
:1014800021F83548FFF752FB3348FFF761FB344B37
:101490001B689B09334AA2FB03239A0913469B004E
:1014A00013445B001A46304BA3FB0223DB083B606E
:1014B00002E03B68013B3B603B68002BF9D1012215
:1014C00006212548FFF78EFA002201212248FFF766
:1014D000C8FA40F2FF7201211F48FFF7EDFA01211F
:1014E0001D48FFF74CFA214A0C211B48FFF77AFAF6
:1014F00000221E491848FFF7B4FA40F2FF721B4958
:101500001548FFF7D9FA19491348FFF738FA184A6E
:1015100012211148FFF766FA002215490E48FFF71D
:10152000A0FA40F2FF7212490B48FFF7C5FA1049C2
:101530000948FFF724FA0848FFF71EFB00BF0648DA
:10154000FFF72EFB0346002BF9D000BF00BF50373A
:10155000BD4680BD0000025800200240002302402A
:1015600000000024632D3E05CDCCCCCC020030041D
:101570000800900C80B590B000AF07F13403002252
:101580001A605A609A6007F11C0300221A605A60C0
:101590009A60DA601A615A613B1D00221A605A6033
:1015A0009A60DA601A615A612020FFF787FC0420F4
:1015B000FFF7A0FC10237B600323BB6000237B614B
:1015C0003B1D1946344821F025F900213348FFF727
:1015D00097FA00237B630023FB630023BB6307F1BF
:1015E000340319462D4820F0C5FF0023FB6100237A
:1015F0003B6200237B624FF40053BB624FF4805385
:101600003B6307F11C031946244820F0DFFF00214B
:101610002248FFF713FA2148FFF788FA1F48FFF71F
:1016200097FA1F4B1B689B091E4AA2FB03239A09CA
:1016300013469B0013445B001A461B4BA3FB02237B
:10164000DB083B6002E03B68013B3B603B68002BF2
:10165000F9D1164A06211148FFF7C4F900221349AF
:101660000E48FFF7FEF940F2FF7210490B48FFF7F2
:1016700023FA0E490948FFF782F90848FFF77CFA78
:1016800000BF0648FFF78CFA0346002BF9D000BFD5
:1016900000BF4037BD4680BD00080258002102400F
:1016A00000000024632D3E05CDCCCCCC1000C01032
:1016B00080B500AF2E4B2F4A1A602D4B00229A6046
:1016C0002B4B0022DA602A4B00221A74284B00228E
:1016D0005A74274B00229A74254B0A225A61244BD4
:1016E00001229A61224B0822DA61214B01221A62FF
:1016F0001F4B01225A621E4B01229A621C4B01228F
:10170000DA621B4B01221A63194B00225A63184BF1
:1017100000229A63164B0122DA63154B08221A64E1
:10172000134B04225A64124B00229A64104B042279
:10173000DA640F4B00221A650D4B04225A650C4BDC
:1017400000229A650A4B0022DA65094B08221A66C4
:10175000074B00225A66064B04229A66044818F08A
:1017600067FD0346002B01D000F04EFB00BF80BD9B
:10177000C802002400A4004080B5BEB000AF07F14D
:10178000DC0300221A605A609A60DA601A615A61BA
:101790009A6107F1C40300221A605A609A60DA6005
:1017A0001A615A613B46C0220021184626F0DCFD32
:1017B0004FF008024FF00003C7E900230023C7F8E9
:1017C00084303B4618461DF091FE0346002B01D0A5
:1017D00000F01AFB0220FFF78DFBC023C7F8C430CE
:1017E0000223C7F8C8300023C7F8CC300123C7F85C
:1017F000D0300023C7F8D4300423C7F8D83007F11D
:10180000C40319461B4821F005F84FF40010FFF7F8
:101810008DFB1948FFF720FA002200211648FFF738
:10182000F3F91548FFF708FA1348FFF7DCF91248F7
:10183000FFF7C9F90023C7F8DC30104BC7F8E030D8
:101840000023C7F8E4300023C7F8E8300023C7F8C6
:10185000EC300023C7F8F0300023C7F8F43007F16C
:10186000DC031946044821F0E7F800BFF837BD460D
:1018700080BD00BF0004025800540040CE9F90007D
:1018800080B5ADF5127D00AF2B4B2C4A1A602A4B68
:1018900000225A60284B00229A60274B4FF40042E6
:1018A000DA60254B00221A61234B08225A61224834
:1018B0001AF03CF80346002B01D000F0A5FA0122F3
:1018C0001F49204812F0A8F8034687F8473297F8D6
:1018D00047320D2B17D107F144024FF4007300215A
:1018E000174813F0EBFA034687F8473297F8473268
:1018F000002B1BD101221249124812F08DF8034629
:1019000087F8473212E097F84732002B0ED097F84D
:101910004732381D0C4A402126F094FB02F06CFA45
:1019200002463B1D1946104602F010FC00BF07F5A9
:101930001277BD4680BD00BF6803002400700052CE
:10194000049C020810750024089C020880B5C0B0F1
:1019500000AF07F1D80328220021184626F004FD25
:1019600007F1C00300221A605A609A60DA601A61B7
:101970005A6107F58073A3F580731846C0231A4691
:10198000002126F0F1FC07F58073A3F580714FF478
:1019900080524FF00003C1E9002307F58073A3F5DF
:1019A000807300221A663B4618461DF09FFD0346D1
:1019B000002B01D000F028FA4FF48050FFF7D2FA44
:1019C0004020FFF797FA0820FFF794FA4FF40063DE
:1019D000C7F8C0300223C7F8C4300023C7F8C830A6
:1019E0000023C7F8CC300023C7F8D0300523C7F850
:1019F000D43007F1C00319462A4820F00BFF80239A
:101A0000C7F8C0300223C7F8C4300023C7F8C83075
:101A10000023C7F8CC300023C7F8D0300523C7F81F
:101A2000D43007F1C00319461F4820F0F3FE4FF4ED
:101A3000C123C7F8D8304FF48003C7F8DC30072340
:101A4000C7F8E0300023C7F8E4300023C7F8E830D7
:101A50004FF08063C7F8EC304FF0A043C7F8F03088
:101A60000023C7F8F4300023C7F8F8300023C7F884
:101A7000FC3007F1D80319460C4822F09FFB0021E7
:101A80000A48FFF709F900210848FFF718F9074845
:101A9000FFF728F90548FFF7EFF800BF07F5807753
:101AA000BD4680BD00180258000C025800300140AD
:101AB00080B5C0B000AF07F1D80328220021184636
:101AC00026F052FC07F1C00300221A605A609A60A7
:101AD000DA601A615A6107F58073A3F580731846BE
:101AE000C0231A46002126F03FFC07F58073A3F5BA
:101AF00080714FF480524FF00003C1E9002307F5D5
:101B00008073A3F5807300221A663B4618461DF0C9
:101B1000EDFC0346002B01D000F076F94FF4804035
:101B2000FFF704FA0820FFF7E5F90420FFF7E2F9D0
:101B30000823C7F8C0300223C7F8C4300023C7F811
:101B4000C8300023C7F8CC300023C7F8D0300523B5
:101B5000C7F8D43007F1C00319462A4820F05AFECE
:101B60000623C7F8C0300223C7F8C4300023C7F8E3
:101B7000C8300023C7F8CC300023C7F8D030052385
:101B8000C7F8D43007F1C00319461F4820F042FEC1
:101B90000023C7F8D8304FF48003C7F8DC300723A0
:101BA000C7F8E0300023C7F8E4300023C7F8E83076
:101BB0004FF08063C7F8EC304FF0A043C7F8F03027
:101BC0000023C7F8F4300023C7F8F8300023C7F823
:101BD000FC3007F1D80319460C4822F0EFFA002137
:101BE0000A48FFF759F800210848FFF768F8074846
:101BF000FFF778F80548FFF73FF800BF07F5807753
:101C0000BD4680BD000C0258000802580038004054
:101C100080B5BEB000AF07F1D803202200211846DE
:101C200026F0A2FB07F1C00300221A605A609A60F6
:101C3000DA601A615A613B46C0220021184626F03C
:101C400093FB4FF002024FF00003C7E9002300238B
:101C5000BB673B4618461DF049FC0346002B01D0EC
:101C600000F0D2F84FF40020FFF760F90120FFF7F1
:101C700041F90323C7F8C0300223C7F8C43000235A
:101C8000C7F8C8300023C7F8CC300023C7F8D030DD
:101C90000823C7F8D43007F1C00319462A4820F0BA
:101CA000B9FDFEF7E3FD0346002200211846FEF7CA
:101CB00033FE034619463420FEF704FE3420FEF7B7
:101CC000E3FD0023C7F8D8304FF4E133C7F8DC3028
:101CD0000023C7F8E0300023C7F8E4300023C7F83A
:101CE000E8300C23C7F8EC300023C7F8F0300023AD
:101CF000C7F8F43007F1D8031946144822F07AFBEC
:101D00001248FFF70FF800211048FFF71BF80021D9
:101D10000E48FFF73EF80D48FFF762F80B48FEF754
:101D2000F1FF00BF0948FFF771F80346002BF9D017
:101D30000648FFF77FF80346002BF3D000BF00BF33
:101D4000F837BD4680BD00BF00000258004C00407F
:101D500080B586B000AF3B4600221A605A609A6098
:101D6000DA601A615A610420FFF7C4F80220FFF715
:101D7000C1F84020FFF7BEF80820FFF7BBF80120AC
:101D8000FFF7B8F84FF400511448FFF779F818211D
:101D90001348FFF783F84FF400533B6001237B6047
:101DA0000023BB600023FB6000233B613B461946D8
:101DB0000A4820F02FFD18233B6001237B6000239D
:101DC000BB600023FB6000233B613B46194604488F
:101DD00020F020FD00BF1837BD4680BD000C025822
:101DE0000000025880B582B000AF78607B681B6845
:101DF000044A934201D118F0EBF800BF0837BD4602
:101E000080BD00BF0000014080B400AF72B600BFCB
:101E100000BFFDE780B483B000AF0A4BD3F8F430C5
:101E2000084A43F00203C2F8F430064BD3F8F4300A
:101E300003F002037B607B6800BF0C37BD465DF892
:101E4000047B70470044025880B5BAB000AF786098
:101E500007F1D40300221A605A609A60DA601A61AE
:101E600007F11003C0220021184626F07DFA7B6896
:101E70001B682B4A93424FD14FF400424FF00003AE
:101E8000C7E904234FF08053C7F8803007F11003EF
:101E900018461DF02BFB0346002B01D0FFF7B4FFC3
:101EA000204BD3F8EC301F4A43F48073C2F8EC3077
:101EB0001C4BD3F8EC3003F48073FB60FB68194BC8
:101EC000D3F8E030174A43F00203C2F8E030154B74
:101ED000D3F8E03003F00203BB60BB684FF440531B
:101EE000C7F8D4300223C7F8D8300023C7F8DC3055
:101EF0000023C7F8E0300923C7F8E43007F1D40322
:101F00001946094819F062FB00220521142018F037
:101F100067F9142018F07EF900BFE837BD4680BD90
:101F200000A40040004402580004025880B5BCB030
:101F300000AF786007F1DC0300221A605A609A60F3
:101F4000DA601A6107F11803C0220021184626F052
:101F50000BFA7B681B684B4A934240F08F804FF42A
:101F600080324FF00003C7E906230023BB6607F168
:101F7000180318461DF0BAFA0346002B01D0FFF7EC
:101F800043FF414BD3F8D4303F4A43F48033C2F887
:101F9000D4303D4BD3F8D43003F480337B617B697C
:101FA000394BD3F8E030384A43F00403C2F8E0304C
:101FB000354BD3F8E03003F004033B613B69324B0F
:101FC000D3F8E030304A43F00203C2F8E0302E4B41
:101FD000D3F8E03003F00203FB60FB682A4BD3F830
:101FE000E030294A43F00803C2F8E030264BD3F82A
:101FF000E03003F00803BB60BB684FF4FE53C7F842
:10200000DC300223C7F8E0300023C7F8E4300323B4
:10201000C7F8E8300C23C7F8EC3007F1DC031946A9
:102020001A4819F0D3FA4FF44073C7F8DC30022392
:10203000C7F8E0300023C7F8E4300323C7F8E830DE
:102040000C23C7F8EC3007F1DC031946104819F0EF
:10205000BDFA0423C7F8DC300223C7F8E0300023C0
:10206000C7F8E4300323C7F8E8300C23C7F8EC3096
:1020700007F1DC031946074819F0A8FA00BFF0374A
:10208000BD4680BD0070005200440258000802584E
:1020900000040258000C025880B58EB000AF786082
:1020A0007B680F2B42D800227968192018F098F825
:1020B000192018F0AFF8234A7B681360224BD3F83D
:1020C000F030214A43F00103C2F8F0301E4BD3F840
:1020D000F03003F00103BB60BB6807F10C0207F1AD
:1020E0001003114618461DF0BFF91DF0A7F97863DB
:1020F0007B6B164AA2FB03239B0C013B3B63144BF7
:10210000144A1A60124B40F2E732DA60104A3B6B15
:1021100053600F4B00221A610D4B00229A600C484D
:102120001FF0E2FE0346002B07D101E0012305E08A
:1021300007481FF03BFF034600E0012318463837ED
:10214000BD4680BDF40100240044025883DE1B43D9
:10215000505C00240000014080B400AF00BFFDE7E8
:1021600080B400AF00BFFDE780B400AF00BFFDE763
:1021700080B400AF00BFFDE780B400AF00BFFDE753
:1021800080B400AF00BFBD465DF8047B704780B5EA
:1021900000AF07F021F900BF80BD000080B500AF9F
:1021A000024818F005FD00BF80BD00BFC802002432
:1021B00080B500AF02481FF071FF00BF80BD00BFB7
:1021C000505C002480B500AF024800F0CEFB00BF99
:1021D00080BD00BF004C004080B500AF02481AF03F
:1021E000ACFF00BF80BD00BF24A0042480B400AFBA
:1021F00001231846BD465DF8047B704780B582B068
:1022000000AF7860396026F03FF9034616221A6065
:102210004FF0FF3318460837BD4680BD80B582B009
:1022200000AF78604FF0FF317868FFF7E7FF00BF3D
:10223000FDE780B586B000AFF860B9607A60002332
:102240007B610AE0AFF300800146BB685A1CBA60AC
:10225000CAB21A707B6901337B617A697B689A42E2
:10226000F0DB7B6818461837BD4680BD80B586B068
:1022700000AFF860B9607A6000237B6109E0BB6859
:102280005A1CBA601B781846AFF300807B69013393
:102290007B617A697B689A42F1DB7B681846183764
:1022A000BD4680BD80B483B000AF78604FF0FF338F
:1022B00018460C37BD465DF8047B704780B483B088
:1022C00000AF786039603B684FF400525A600023D9
:1022D00018460C37BD465DF8047B704780B483B068
:1022E00000AF7860012318460C37BD465DF8047BCB
:1022F000704780B485B000AFF860B9607A600023A1
:1023000018461437BD465DF8047B704780B586B02B
:1023100000AF7860144A154BD31A7B617B693B612F
:10232000134B1B68002B02D1114B124A1A60104B41
:102330001A687B6813443A699A4207D226F0A4F8D7
:1023400003460C221A604FF0FF3309E0084B1B686C
:10235000FB60074B1A687B681344054A1360FB68EF
:1023600018461837BD4680BD000008240004000050
:102370009C5C002458A60424DFF838D0FEF75CFAF1
:10238000FEF7ACF90C480D490D4A002302E0D45881
:10239000C4500433C4188C42F9D30A4A0A4C0023AF
:1023A00001E013600432A242FBD326F073F8FEF77B
:1023B000B5FE70470000082400000024AC02002491
:1023C00040A30308AC02002454A60424FEE7000046
:1023D00080B483B000AF78607B689A68054B134087
:1023E00043F004027B689A6000BF0C37BD465DF87D
:1023F000047B7047C0FFFF7F80B483B000AF78607C
:102400007B681B6C9BB218460C37BD465DF8047B9D
:10241000704780B483B000AF78607B681B6803F0BE
:102420000403042B01D1012300E0002318460C37DC
:10243000BD465DF8047B704780B483B000AF786020
:102440007B6804221A6000BF0C37BD465DF8047B30
:102450007047000080B500AF0D48FFF7EDFF0C4856
:10246000FFF7B6FF00BF0A48FFF7D3FF0346002B74
:10247000F9D00748FFF7E0FF0548FFF7BDFF034627
:102480001A46044B1A80034B1B88184680BD00BFB8
:1024900000210240A65C002480B584B000AF034652
:1024A000FB711D48FFF7C8FF1B48FFF791FF002392
:1024B000FB6015E000BF1848FFF7ABFF0346002B99
:1024C000F9D01548FFF7B8FF1348FFF795FF03460B
:1024D0001946124AFB6822F81310FB680133FB60AF
:1024E000FB68022BE6DDFB79032B0CD0032B0DDC04
:1024F000012B02D0022B03D008E0084B1B8807E019
:10250000064B5B8804E0054B9B8801E04FF6FF73A8
:1025100018461037BD4680BD00200240A05C002454
:1025200080B483B000AF78607B681B6843F40072AE
:102530007B681A6000BF0C37BD465DF8047B7047AE
:1025400080B483B000AF78607B685B6903F00203FE
:10255000022B01D1012300E0002318460C37BD46B1
:102560005DF8047B704780B483B000AF78600B46A1
:10257000FB707B682033FA781A7000BF0C37BD46B9
:102580005DF8047B704780B582B000AF78600B4681
:10259000FB7000BF7868FFF7D3FF0346002BF9D02C
:1025A000FB7819467868FFF7DEFF7868FFF7B8FF19
:1025B00000BF0837BD4680BD80B483B000AF7860EF
:1025C0007B68DB6903F00203022B01D1012300E0E9
:1025D000002318460C37BD465DF8047B704780B475
:1025E00083B000AF78607B68DB6903F00403042BE1
:1025F00001D1012300E0002318460C37BD465DF8E9
:10260000047B704780B483B000AF78607B68DB697F
:1026100003F00803082B01D1012300E00023184632
:102620000C37BD465DF8047B704780B483B000AFC3
:1026300078607B68DB6903F02003202B01D1012344
:1026400000E0002318460C37BD465DF8047B704758
:1026500080B483B000AF78607B68DB6903F08003EF
:10266000802B01D1012300E0002318460C37BD4622
:102670005DF8047B704780B483B000AF78607B68FE
:1026800002221A6200BF0C37BD465DF8047B70471A
:1026900080B483B000AF78607B6804221A6200BF08
:1026A0000C37BD465DF8047B704780B483B000AF43
:1026B00078607B6808221A6200BF0C37BD465DF85F
:1026C000047B704780B489B000AF78607B68FB60A2
:1026D000FB6853E8003FBB60BB6843F02003FB612D
:1026E0007B68FA69BA617B617969BA6941E800235C
:1026F0003B613B69002BE9D100BF00BF2437BD46D9
:102700005DF8047B704780B489B000AF78607B6867
:10271000FB60FB6853E8003FBB60BB6843F080038D
:10272000FB617B68FA69BA617B617969BA6941E8E2
:1027300000233B613B69002BE9D100BF00BF243778
:10274000BD465DF8047B704780B489B000AF786007
:102750007B68FB60FB6853E8003FBB60BB6823F00D
:102760008003FB617B68FA69BA617B617969BA6948
:1027700041E800233B613B69002BE9D100BF00BF6A
:102780002437BD465DF8047B704780B483B000AF4A
:1027900078607B681B6803F02003202B01D10123A4
:1027A00000E0002318460C37BD465DF8047B7047F7
:1027B00080B483B000AF78607B681B6803F080034F
:1027C000802B01D1012300E0002318460C37BD46C1
:1027D0005DF8047B704780B483B000AF78607B689D
:1027E0005B6ADBB218460C37BD465DF8047B704768
:1027F00080B483B000AF78600B46FB70FA787B68DA
:102800009A6200BF0C37BD465DF8047B704700003C
:1028100080B485B000AF78600023FB6013E00F4AFE
:10282000FB68642101FB03F313441B687A689A4236
:1028300006D1FB68642202FB03F3084A134406E056
:10284000FB680133FB60FB68002BE8DD00231846C2
:102850001437BD465DF8047B704700BF08000024B4
:1028600080B582B002AF4FF4806300930A4B0B4AED
:1028700001210B4817F090FA4FF480630093094B45
:10288000094A0221094817F087FA0948FFF71AFF99
:1028900000231846BD4680BDA85C00241C9C02088D
:1028A0000C000024A8600024289C02083C0000249E
:1028B000004C004080B584B000AF78607868FFF7C6
:1028C000A7FFF860FB68002B02D14FF0FF330EE04A
:1028D000FB68043307F10B021146184617F0D5FACE
:1028E0000346002B01D0FB7A01E04FF0FF3318467E
:1028F0001037BD4680BD80B584B000AF78600B4610
:10290000FB707868FFF784FFF860FB68002B11D03C
:1029100000BFFB683433FA781146184617F06FFA97
:10292000034683F00103DBB2002BF2D17868FFF796
:10293000EAFE00E000BF1037BD4680BD80B584B020
:1029400000AF78607868FFF763FFF860FB68002BE2
:1029500001D1002305E0FB680433184617F0D6FACE
:10296000034618461037BD4680BD80B584B000AF21
:1029700078607868FFF74CFFF860FB68002B53D055
:102980007868FFF752FE0346002B2CD07868FFF7DB
:10299000FCFE0346002B26D07868FFF71CFF034699
:1029A000FB727868FFF72EFE0346002B02D0786892
:1029B000FFF77BFE7868FFF7FFFD0346002B02D090
:1029C0007868FFF758FE7868FFF709FE0346002B8A
:1029D00002D07868FFF75CFEFB680433FA7A114690
:1029E000184617F00CFA7868FFF732FE0346002B02
:1029F0001BD07868FFF7DCFE0346002B15D0FB6880
:102A0000343307F10A021146184617F03EFA03461E
:102A1000002B05D0BB7A19467868FFF7E9FE04E081
:102A20007868FFF791FE00E000BF1037BD4680BD1B
:102A300080B582B002AF4FF400630093084B094A9F
:102A40000321094817F0A8F94FF400630093074BDE
:102A5000074A0421074817F09FF900BFBD4680BD13
:102A6000D86C0024349C0208D8740024A864002484
:102A70003C9C0208A86C002480B582B000AF78604E
:102A80007968044817F001FA034618460837BD462E
:102A900080BD00BFA86C002480B400AF034B1B783E
:102AA000DBB21846BD465DF8047B7047087500240C
:102AB00080B483B000AF0346FB71044AFB79137006
:102AC00000BF0C37BD465DF8047B704708750024D5
:102AD00080B400AFBFF34F8F00BF064BDB6803F439
:102AE000E0620449044B1343CB60BFF34F8F00BF38
:102AF00000BFFDE700ED00E00400FA0580B5C6B0B8
:102B000002AF07F58873A3F58673186007F588731D
:102B1000A3F586731968314811F02BFE034687F838
:102B20000F3197F80F31002B02D097F80F3150E09A
:102B30002B492A4811F08EFE034687F80F3197F88B
:102B40000F31002B3AD1264B9B7D002B36D02549E7
:102B50002548FDF7C5FB0346002B2DD0234922480D
:102B6000FDF7BEFB0346002B26D007F58873A3F5BF
:102B7000867307F10C001C4A00921B681C4A4FF434
:102B8000807125F05FFA164B1B7A03F01003002BBF
:102B90000CD007F10C031846FFF7B0FF034687F887
:102BA0000F3197F80F31002BC2D007E007F10C036B
:102BB000184611F0DBFEBBE700BFB9E7074811F08C
:102BC00031FE07F58873A3F58673186811F0CEFE01
:102BD0000346184607F58877BD4680BD7479002402
:102BE000A4790024449C0208BA790024489C020875
:102BF0004C9C020880B588B000AFF860B9607A607C
:102C000007F11403074A0A21184625F01BFA07F1B9
:102C100014031946F86801F099FA00BF2037BD4641
:102C200080BD00BF4C9E020880B584B000AFF86044
:102C3000B9607A60FFF74CFF80B59CB002AFF860D6
:102C4000B9607A60B86801F079FB0346A7F866308E
:102C5000B7F86630012B04D83449F86801F076FAE9
:102C600060E00121B86801F033FB38660221B868E2
:102C700001F02EFBF8653B6E002B02D0FB6D002BA4
:102C800004D12A49F86801F061FA4BE000220021E2
:102C9000386E25F09BF8B86500220021F86D25F00C
:102CA00095F87865BB6D002B08DBBB6DFF2B05DC51
:102CB0007B6D002B02DB7B6DFF2B04DD1C49F8686C
:102CC00001F044FA2EE0BB6D87F853307B6D87F836
:102CD000523097F8522097F85310002300934FF486
:102CE0007A73022015F032FC0346124A1360114B2E
:102CF0001B68002B04D11049F86801F027FA11E095
:102D000097F8532097F8523007F1100000931346BC
:102D10000A4A402125F096F907F110031946F86890
:102D200001F014FA6837BD4680BD00BF549E02080A
:102D3000709E02080C750024989E0208C09E02082E
:102D400080B5C8B002AF07F58C73A3F58673186021
:102D500007F58C73A3F58873196007F58C73A3F5D9
:102D60008A731A6007F58C73A3F58873186801F0ED
:102D7000E5FA0346A7F80A31B7F80A31022B08D85A
:102D800007F58C73A3F58673D549186801F0DEF951
:102D9000A2E107F58C73A3F588730121186801F08F
:102DA00097FAC7F8040107F58C73A3F5887302211D
:102DB000186801F08DFAC7F8000100220021D7F849
:102DC000040125F003F8C7F8FC0000220021D7F821
:102DD000000124F0FBFFC7F8F800D7F8FC30002B07
:102DE0000BDBD7F8FC30FF2B07DCD7F8F830002BD3
:102DF00003DBD7F8F830FF2B08DD07F58C73A3F55C
:102E00008673B849186801F0A1F965E1D7F8FC307C
:102E100087F8F730D7F8F83087F8F6300023C7F88E
:102E200014310323A7F8123125E0B7F8122107F572
:102E30008C73A3F588731146186801F049FAC7F836
:102E4000D800D7F8D800FDF755FA0246D7F8143164
:102E50001344C7F81431B7F81221B7F80A319A426F
:102E600004D0D7F814310133C7F81431B7F8123150
:102E70000133A7F81231B7F81221B7F80A319A4294
:102E8000D3D9D7F81431002B08D107F58C73A3F5EB
:102E900086739549186801F059F91DE14FF47A736A
:102EA000C7F8F03097F8F62097F8F7100023009352
:102EB000D7F8F030022015F049FBC7F8EC00D7F83E
:102EC000EC30002B08D107F58C73A3F58673874986
:102ED000186801F03BF9FFE0D7F8140114F092FFF5
:102EE000C7F8E800D7F8E830002B0CD1D7F8EC0091
:102EF00015F0C7FA07F58C73A3F586737C4918683B
:102F000001F024F9E8E007F58C73A3F58873032139
:102F1000186801F0DDF9C7F8E400D7F8E400FDF720
:102F2000E9F9C7F8E000D7F8E03003F00103002B1F
:102F300010D007F58C73A3F586736E49186801F0FD
:102F400005F9D7F8EC0015F09CFAD7F8E80014F072
:102F5000F5FFC1E0D7F8E0305B089AB2D7F8E83067
:102F60005A810023C7F80C3144E0D7F80C315B00DC
:102F7000D7F8E42013441B7887F89430D7F80C3145
:102F80005B000133D7F8E42013441B7887F89530B1
:102F9000002387F896300023C7F8903007F190029D
:102FA00007F194035449184625F0A4F80346012B71
:102FB00010D007F58C73A3F586735049186801F09B
:102FC000C5F8D7F8EC0015F05CFAD7F8E80014F073
:102FD000B5FF81E0D7F89030D9B2D7F8E820D7F81C
:102FE0000C31134410330A461A70D7F80C310133F0
:102FF000C7F80C31D7F8E8305B891A46D7F80C319E
:103000009342B2D34FF47A72D7F8E810D7F8EC00B5
:1030100015F0ECFD0346002B10D1D7F8E80014F0B2
:103020008DFFD7F8EC0015F02CFA07F58C73A3F59B
:1030300086733349186801F089F84DE04FF47A71CE
:10304000D7F8EC0015F0C8FCC7F8DC00D7F8DC3086
:10305000002B22D0D7F8DC305B891946D7F8DC305A
:103060005B891A46D7F8DC30103307F11000019362
:1030700000920B46234A802124F0E4FF07F110025E
:1030800007F58C73A3F586731146186801F05EF896
:10309000D7F8DC0014F052FF07E007F58C73A3F5B6
:1030A00086731949186801F051F8D7F8EC0015F04B
:1030B000E8F9D7F8E8305B8907F19800134A402116
:1030C00024F0C0FF07F1980207F58C73A3F586730F
:1030D0001146186801F03AF807F58C77BD4680BDB7
:1030E000DC9E0208049F0208249F0208349F020805
:1030F000489F0208609F02088C9F0208909F020868
:10310000A49F0208B49F0208CC9F0208E89F02080F
:1031100080B584B000AFF860B9607A60064B1B6878
:10312000184615F0AEF90549F86801F00FF800BF30
:103130001037BD4680BD00BF0C750024F89F020803
:1031400080B59CB002AFF860B9607A60B86801F0F1
:10315000F5F80346A7F86630B7F86630002B04D1BF
:103160002749F86800F0F2FF47E00121B86801F054
:10317000AFF8386600220021386E24F027FEF8658B
:10318000FB6D002B02DDFB6D032B04DD1D49F86890
:1031900000F0DCFF31E0FB6DDBB21846FFF77CF995
:1031A0000346A7F85A30B7F85A304FF6FF729342E9
:1031B00004D11549F86800F0C9FF1EE0B7F85A308D
:1031C00040F6E44203FB02F2104B1344104A82FB28
:1031D00003121A44D213DB17D31A7B6507F11400CC
:1031E0007B6D0093FB6D0B4A402124F02BFF07F110
:1031F00014031946F86800F0A9FF6837BD4680BD82
:1032000004A0020824A0020840A00208F4010CFE59
:10321000018000805CA0020880B596B000AFF86025
:10322000B9607A60FFF716F90346A7F85630B7F889
:10323000562013465B0113440E4A82FB03121A44C4
:10324000D213DB17D31A40F2252202FB03F33B65AE
:1032500007F110003B6D084A402124F0F3FE07F10E
:1032600010031946F86800F071FF00BF5837BD46DB
:1032700080BD00BF0180008080A0020880B584B0BE
:1032800000AFF860B9607A60AA210348FFF77BF9C4
:1032900000BF1037BD4680BD0038004080B596B0F5
:1032A00000AFF860B9607A60B86801F047F803468B
:1032B000A7F85630B7F85630002B04D11949F868F2
:1032C00000F044FF2BE00121B86801F001F83865F7
:1032D000386D11F0F3FB03461A46134B1A70124B6C
:1032E0001B78002B0DD107F110003B6D0F4A4021D8
:1032F00024F0A8FE07F110031946F86800F026FF35
:103300000DE0094B1B7807F11000094A402124F019
:1033100099FE07F110031946F86800F017FF5837B7
:10332000BD4680BDA8A0020870790024C8A002088C
:10333000E0A0020880B596B000AFF860B9607A608E
:10334000B86800F0FBFF0346A7F85630B7F85630D0
:10335000002B04D11A49F86800F0F8FE2DE0012195
:10336000B86800F0B5FF38650A22396D154810F0CD
:103370009DFB03461A46144B1A70134B1B78002B07
:103380000DD107F110003B6D104A402124F05AFE88
:1033900007F110031946F86800F0D8FE0DE00A4B5B
:1033A0001B7807F110000A4A402124F04BFE07F178
:1033B00010031946F86800F0C9FE5837BD4680BDB5
:1033C000F8A00208487700247079002414A10208AC
:1033D00028A1020880B5A2B002AFF860B9607A6097
:1033E000B86800F0ABFF0346A7F87430B7F8743044
:1033F000022B04D85849F86800F0A8FEA9E0002381
:10340000FB670023BB670223A7F8763021E0B7F8FB
:1034100076301946B86800F05BFFB8664F49B86E61
:10342000FCF75EFF0346002B02D10123FB670BE094
:103430004B49B86EFCF754FF0346002B02D1002322
:10344000FB6701E0BB6EBB67B7F876300133A7F8C6
:103450007630B7F87620B7F874309A42D7D9BB6F78
:10346000002B04D13F49F86800F070FE71E00321A1
:10347000B86800F02DFF38670121B86800F028FF18
:10348000F866FB6F002B32D00A22396F364810F0F5
:103490000DFB03461A46354B1A70344B1B78002B34
:1034A00010D0324B1B7807F1180000933B6F304A65
:1034B000502124F0C7FD07F118031946F86800F001
:1034C00045FE46E0F86EFCF715FF024607F11403CF
:1034D000F96E254810F0A7FD07F1140302222549D3
:1034E000214810F0A0FD204810F084FF31E0322286
:1034F000396F1D4810F0DAFA03461A461B4B1A7052
:103500001A4B1B78002B10D0184B1B7807F11800B2
:1035100000933B6F164A502124F094FD07F11803E5
:103520001946F86800F012FE13E0F86EFCF7E2FEB0
:10353000024607F11403F96E0B4810F074FD07F111
:10354000140302220B49084810F06DFD064810F0E4
:1035500051FF8037BD4680BD3CA1020864A102082E
:1035600068A102086CA10208487700247079002441
:1035700084A10208A4A1020880B5C6B000AF07F577
:103580008C73A3F58673186007F58C73A3F58873A5
:10359000196007F58C73A3F58A731A6007F58C73AD
:1035A000A3F58873186800F0C9FE0346A7F8163122
:1035B000B7F81631002B08D107F58C73A3F5867385
:1035C0003249186800F0C2FD5BE007F58C73A3F583
:1035D00088730121186800F07BFEC7F810010122F2
:1035E000D7F810112A4810F061FA03461A46294B01
:1035F0001A70284B1B78002B12D007F11000D7F857
:103600001031254A802124F01DFD07F1100207F535
:103610008C73A3F586731146186800F097FD30E0AF
:1036200007F190011D4B7F22194810F0C9FB03469A
:103630001A46184B1A70174B1B78002B16D1174BD4
:103640001B68002B12D0154B1B6803F58C733B4491
:10365000002203F8882C07F1900207F58C73A3F57C
:1036600086731146186800F071FDD9E7084810F01C
:10367000C1FE07F58C73A3F586730949186800F03D
:1036800065FD07F58C77BD4680BD00BFA8A1020887
:103690004877002470790024BCA10208BC7A002479
:1036A000A4A1020880B5ADF55A7D02AF07F55873A5
:1036B000A3F55573186007F55873A3F55673196091
:1036C00007F55873A3F557731A6007F55873A3F5F8
:1036D0005673186800F032FE0346A7F85E33B7F859
:1036E0005E33002B25D007F55873A3F556730121DF
:1036F000186800F0EDFDC7F85803D7F85833002BD1
:103700000ED0D7F858331B78002B09D007F5157069
:10371000D7F85833524A4FF4807124F093FC10E0EC
:1037200007F515734F4A4FF48071184624F08AFC50
:1037300007E007F515734B4A4FF48071184624F0E3
:1037400081FC07F515731946474811F012F8034636
:1037500087F8573397F85733002B17D097F857331C
:1037600007F5157207F58A70009313463F4A4FF428
:10377000A07124F067FC07F58A7207F55873A3F56A
:1037800055731146186800F0E1FC64E007F114037A
:103790004FF48071184610F097FE0346002B09D1B4
:1037A00007F1140307F58A70314A4FF4A07124F031
:1037B00049FC07E007F58A732E4A4FF4A0711846BA
:1037C00024F040FC07F58A7207F55873A3F555738A
:1037D0001146186800F0BAFC2749234811F03AF85E
:1037E000034687F8573397F85733002B30D1224BD5
:1037F0009B7D002B2CD0204B1B7A03F00603002B63
:1038000024D11D4B1B7A03F01003002B08D007F5C1
:103810008A701A4B1A4A4FF4A07124F013FC0AE084
:10382000154B1B6807F58A70144A0092154A4FF42D
:10383000A07124F007FC07F58A7207F55873A3F509
:1038400055731146186800F081FCC5E700BFC3E757
:10385000054810F0E7FF07F55877BD4680BD00BF6B
:10386000E4A10208449C020874790024E8A102083B
:1038700004A2020814A20208A4790024BA79002440
:103880002CA2020844A2020880B5A8B000AFF860DC
:10389000B9607A60B86800F051FD0346A7F89E3021
:1038A000B7F89E30002B03D1124810F0C3FD1EE084
:1038B0000121B86800F00CFDC7F89800D7F898000F
:1038C00010F0B8FD034687F8973097F89730002B33
:1038D0000DD007F11400D7F89830074A802124F062
:1038E000B1FB07F114031946F86800F02FFCA0376C
:1038F000BD4680BD54A2020858A2020880B5C4B0DB
:1039000000AF07F58873A3F58273186007F5887315
:10391000A3F58473196007F58873A3F586731A609D
:1039200007F110034FF48071184610F0CDFD0346E7
:10393000002B12D107F1100207F58873A3F58273EB
:103940001146186800F002FC07F58873A3F582732E
:103950000849186800F0FAFB07E007F58873A3F53B
:1039600082730549186800F0F1FB00BF07F58877FE
:10397000BD4680BDA4A102087CA2020880B5CCB0DF
:1039800002AF07F59473A3F58E73186007F594736F
:10399000A3F59073196007F59473A3F592731A60F9
:1039A00007F59473A3F59073186800F0C7FC0346FD
:1039B000A7F81831B7F81831002B08D107F5947320
:1039C000A3F58E739749186800F0C0FB26E1002329
:1039D000C7F824310023C7F820310023C7F81C3171
:1039E0000123A7F81A312CE0B7F81A2107F59473D0
:1039F000A3F590731146186800F06AFCC7F810012F
:103A00008949D7F81001FCF76BFC0346002B03D162
:103A10000123C7F824310FE08449D7F81001FCF7DF
:103A20005FFC0346002B03D10123C7F8203103E0DC
:103A3000D7F81031C7F81C31B7F81A310133A7F89D
:103A40001A31B7F81A21B7F818319A42CCD9D7F8F9
:103A50001C31002B08D107F59473A3F58E737449BC
:103A6000186800F073FBD9E07249D7F81C0110F018
:103A70003AFF034687F8173197F81731042B18D10E
:103A8000D7F82031002B40F0C88007F11000D7F89C
:103A90001C31694A4FF4807124F0D4FA07F1100206
:103AA00007F59473A3F58E731146186800F04EFB6A
:103AB000B3E097F81731002B16D097F8173107F1BC
:103AC00010000093D7F81C315C4A4FF4807124F049
:103AD000B9FA07F1100207F59473A3F58E73114636
:103AE000186800F033FB99E0524B1B7A03F0100387
:103AF000002B6CD0D7F82431002B26D0D7F81C012E
:103B0000FEF7FCFF034687F8173197F81731002BB3
:103B100000F08480D7F82031002B7FD197F817313F
:103B200007F110000093D7F81C31454A4FF480711B
:103B300024F088FA07F1100207F59473A3F58E7349
:103B40001146186800F002FB68E0D7F81C0110F07D
:103B50000DFF034687F8173197F81731072B17D158
:103B6000D7F82431002B13D107F11000D7F81C31FE
:103B7000344A4FF4807124F065FA07F1100207F51A
:103B80009473A3F58E731146186800F0DFFA45E0D0
:103B900097F81731002B41D0D7F82031002B3DD1B9
:103BA00097F8173107F110000093D7F81C31244A19
:103BB0004FF4807124F046FA07F1100207F5947370
:103BC000A3F58E731146186800F0C0FA26E0D7F806
:103BD0001C0110F0CBFE034687F8173197F8173118
:103BE000002B1BD0D7F82031002B17D197F81731B5
:103BF00007F110000093D7F81C31114A4FF480717F
:103C000024F020FA07F1100207F59473A3F58E73E0
:103C10001146186800F09AFA00E000BF07F59477A3
:103C2000BD4680BDA0A20208C0A20208C4A202082C
:103C3000C8A20208A4790024E0A2020814A3020882
:103C400034A3020858A3020880B400AF024B184600
:103C5000BD465DF8047B70478CB4020880B400AFA9
:103C600011231846BD465DF8047B704780B584B0CB
:103C700000AF78600B46FB70FB78FB7302E001201D
:103C800003F0B2FA07F10F030121184623F06AFB93
:103C90000346012BF3D000BF00BF1037BD4680BDE7
:103CA00080B584B000AF78600B46FB70FB78FB7387
:103CB000FB7B19460348FEF71EFE00BF1037BD46CA
:103CC00080BD00BF004C004080B582B000AF00F066
:103CD0009FF878607B68394ADA607B684FF400624D
:103CE0001A827B6810229A807B684022DA807B6887
:103CF00080221A817B6820225A817B6801229A7473
:103D00007B682F4A1A60FFF79FFF02467B685A6163
:103D1000FFF7A4FF03461A467B681A83786800F011
:103D2000D2F80346274A1360264B1B68002B01D1AB
:103D300001233EE0234B1B68234A1A6000F068F819
:103D400038603B68214ADA603B684FF400621A82AF
:103D50003B6810229A803B684022DA803B688022D0
:103D60001A813B6820225A813B6801229A743B6881
:103D7000174A1A60FFF768FF02463B685A61FFF76F
:103D80006DFF03461A463B681A83386800F09BF8BB
:103D90000346104A13600F4B1B68002B01D101230F
:103DA00007E00C4B1B680C4A1A600C4B01221A707E
:103DB000002318460837BD4680BD00BFC07A0024E6
:103DC00088A30208C08A00246D3C0008C082002439
:103DD00098A30208C48A0024A13C0008C88A0024D1
:103DE00080B400AF034B1B681846BD465DF8047BEA
:103DF000704700BFC08A002480B400AF034B1B682B
:103E00001846BD465DF8047B704700BFC48A002495
:103E100080B400AF114B40229A80104B4022DA80D0
:103E20000E4B80221A810D4B0022DA600B4B0022D0
:103E30001A820A4B08225A81084B01229A74074BB6
:103E4000074A1A60054B00221A83044B00225A616C
:103E5000024B1846BD465DF8047B7047CC8A0024AF
:103E6000C4A3020880B485B000AF78607B685B694A
:103E7000002B02D17B685B8900E00023FB817B681B
:103E80009B8803339A087B68DB8803339B081A44BA
:103E90007B681B8903339B08D118FA8913465B00A2
:103EA0001344DB0003339B08CA18FB8903339B08C8
:103EB000134412339BB29B009BB218461437BD4685
:103EC0005DF8047B704780B588B000AF7860002350
:103ED000FB617868FFF7C6FF0346BB610023FB75F3
:103EE0007B68DB68002B05D07B681B8A1A46BB69A0
:103EF000934201D9002371E07B68DB683B61BA69BA
:103F00000021386924F030FA3B69FB613B691033CA
:103F10003B61FB693A69DA603B6938333B61FB69B5
:103F2000DB68FB60FB683A691A617B689B88033336
:103F300023F003033A6913443B61FB683A69DA6191
:103F40007B68DB88033323F003033A6913443B6146
:103F50007B685A69FB685A627B681A8BFB689A8592
:103F60007B681A8BFB68DA85FB683A695A607B6864
:103F70001A89FB681A81FB7D002B08D0FB6893F837
:103F8000333043F00403DAB2FB6883F833207B68F4
:103F90009B7C002B08D0FB6893F8333043F0200360
:103FA000DAB2FB6883F833207B689A88FB681A834F
:103FB000FB6800229A82FB680022DA827B68DA883A
:103FC000FB685A84FB68002283F832207B681A68F9
:103FD000FB681A60FB6800229A86FB691846203746
:103FE000BD4680BD80B584B000AF78600B46FB70E5
:103FF0007B68DB68FB60FB681033FA781146184673
:1040000000F08AFF034683F00103DBB2002B08D0E7
:10401000FB6893F8333043F00103DAB2FB6883F8AE
:10402000332000BF1037BD4680BD80B584B000AFDF
:1040300078607B681B68002B00F083807B68DB68FE
:10404000FB60FB6893F8333003F00203002B55D17B
:10405000FB6893F8333043F00203DAB2FB6883F86D
:104060003320FB681B681946786800F07EFE45E047
:10407000FB681033184600F027FF0346FB72FB680D
:1040800093F8333003F00803002B05D0FB7A194670
:10409000786800F0F5F92AE0FB6893F832301B2BC2
:1040A0000CD1FB7A5B2B09D1FB6893F8333043F0DA
:1040B0000803DAB2FB6883F8332018E0FB7A18466D
:1040C00000F0AAFE0346002B05D0FB7A194678685B
:1040D00000F086FA0BE0FB7A184600F0BDFE0346BE
:1040E000002B04D0FB7A1946786800F027FA78682C
:1040F00000F012FDFB68FA7A83F83220FB68103377
:10410000184600F0C0FE0346002BB1D1FB6893F8BF
:10411000333003F00103002B14D0FB6800221A8413
:10412000FB68DB69FA68128C134400221A70FB6882
:1041300093F8333023F00103DAB2FB6883F83320BD
:1041400000E000BF1037BD4680BD000080B584B0E0
:1041500000AF786039607B681B68002B3ED07B68BD
:10416000DB68FB60FB689B8E7B81FB6893F83330D8
:1041700003F01003002B02D1786800F0C1FDFB684A
:104180007A899A863968786800F0EFFD154B1B68CC
:104190001946786800F0E9FDFB6893F8333003F0C6
:1041A0001003002B1BD1FB681B681946786800F0D0
:1041B000DCFDFB68DB691946786800F0D6FDFB681A
:1041C0001A8CFB681A86FB689B8E00221946786859
:1041D00000F0ECFD786800F09FFC00E000BF1037B5
:1041E000BD4680BD6C00002480B588B000AF78600B
:1041F0007B68002B66D0354BFB600023FB770023E8
:10420000BB770023BB6100237B6147E07B690133FF
:104210007B61BB7F002B02D00023BB7729E0FB7CB6
:104220005C2B02D10123BB7738E0FB7C222B10D121
:10423000FB7F002B14BF01230023DBB283F00103BB
:10424000DBB2FB77FB7F03F00103FB770023FB74FA
:104250000FE0FB7F83F00103DBB2002B09D0FB7C76
:104260001946F86824F088F80346002B01D0002393
:10427000FB74FB7C002B09D1BB69002B0EDDBB69F5
:10428000013B7A6813441B78002B07D0BB697A681E
:104290001344FA7C1A70BB690133BB617B697A688D
:1042A00013441B78FB74FB7C002BAFD1BB697A688D
:1042B000134400221A70BB6901337A681344002248
:1042C0001A7000E000BF2037BD4680BDC8A30208B9
:1042D00080B584B000AF78600B467B807B88194640
:1042E000786800F020FF0346FB81FB894FF6FF72E0
:1042F000934203D0FB897A68134400E000231846F8
:104300001037BD4680BD80B584B000AF78600B46E5
:104310007B807B881946786800F005FF0346FB81A7
:10432000FB894FF6FF72934203D0FB897A681344EE
:1043300000E0002318461037BD4680BD80B485B02C
:1043400000AF78607B68002B03D07B681B78002B64
:1043500001D1002319E00023FB6001237B81FB686E
:104360007A6813441B78002B09D1FB6801337A6803
:1043700013441B78002B06D07B8901337B81FB68BB
:104380000133FB60EBE700BF7B8918461437BD465D
:104390005DF8047B7047000080B586B000AF7860A0
:1043A0000B46FB707B68DB683B613B699B89002B9C
:1043B0005FD0FB78002B05D03B695A893B699B890C
:1043C0009A4256D0FB7883F00103DBB2002B03D076
:1043D0003B695B89002B4CD0786800F091FC3B690D
:1043E0001B681946786800F0C0FCFB78002B06D0EB
:1043F0003B695B8901339AB23B695A8105E03B69AD
:104400005B89013B9AB23B695A813B691A1D3B6942
:104410005B891946104600F00DFE78617B69002B20
:1044200001D1164B7B617869FBF764FF0346FB8182
:104430003B69DB69FA897969184624F052F83B69CF
:10444000DA69FB89134400221A703B69FA891A84DD
:104450003B69DB691946786800F087FC3B691A8C78
:104460003B691A863B6900229A86786800F054FB03
:1044700000E000BF1837BD4680BD00BFCCA30208D6
:1044800090B585B000AF78600B46FB707B68DB6849
:10449000FB60FB783F2B48D9FB787E2B45D8FB6827
:1044A00093F8333023F00803DAB2FB6883F8332043
:1044B000FB78412B02D0FB78422B09D1FB78412BB2
:1044C0000CBF01230023DBB219467868FFF764FFB5
:1044D000FB78432B0FD1FB689B8E002B0BD0FB6826
:1044E0009B8E013B9AB2FB689A86124B1B68194659
:1044F000786800F03AFCFB78442B16D1FB689B8E61
:104500001C46FB68DB691846FBF7F4FE03469C4239
:104510000BD2FB689B8E01339AB2FB689A86064BDE
:104520001B681946786800F020FC00BF1437BD46B0
:1045300090BD00BF700000247400002480B584B0DA
:1045400000AF78600B46FB707B68DB68FB60FB6844
:104550001B8C0233FA68528C93423BDAFB68DB69AE
:104560001846FBF7C7FE0246FB689B8ED31ABB605A
:10457000FB68DA69BB680133D018FB68DA69BB688D
:10458000D118FB689B8E01331A4623F0D3FEFB68DB
:104590001B8C01339AB2FB681A84FB681B8E0133B3
:1045A0009AB2FB681A86FB68DA69BB681344FA782A
:1045B0001A70FB689B8E002B05D0084B1B681946B0
:1045C000786800F0D2FB7B681B68FA78114678683F
:1045D000984700E000BF1037BD4680BD8000002432
:1045E00080B584B000AF78600B46FB707B68DB68F9
:1045F000FB60FB6893F832300D2B02D1FB780A2B5D
:1046000078D0FB6893F832300A2B02D1FB780D2B5F
:1046100070D0FB780D2B02D0FB780A2B29D178685B
:1046200000F0DCFA354B1B681946786800F09DFBFA
:10463000FB681B8C002B02D0786800F065F8FB68E3
:1046400000221A84FB68DB69FA68128C134400228A
:104650001A70FB6800221A86FB6800225A81FB68E8
:1046600000229A86FB681B681946786800F07DFB7B
:1046700041E0FB78082B02D0FB787F2B33D1FB681D
:104680001B8C1A46FB689B8ED31A002B2BDD1C4B10
:104690001B681946786800F068FB1A4B1B681946BE
:1046A000786800F062FBFB68DB691846FBF722FEC6
:1046B0000246FB689B8ED31ABB60FB68DA69BB6855
:1046C000013BD018FB68DA69BB68D118FB689B8E88
:1046D00001331A4623F02EFEFB681B8C013B9AB275
:1046E000FB681A8407E0FB78092B04D1786800F096
:1046F00075FA00E000BF1037BD4680BD6C00002495
:10470000740000248400002490B58FB000AF78605E
:104710007B68DB68BB61012387F8373000233B638C
:104720000DE0BB69DA693B6B13441B78202B03D087
:10473000002387F8373008E03B6B01333B63BB69EC
:104740001B8C1A463B6B9342EBDB97F83730002B00
:1047500040F0FA80BB691A1DBB69DB691946104637
:1047600000F004FC0023FB620023BB62002387F8F7
:10477000273000233B6230E0BB69DA693B6A1344AF
:104780001B78FB75FB7D202B0FD1BB6A002B05D15D
:10479000BB69DA693B6A134400221A70FB6A002B7A
:1047A00018D0012387F8273014E0FB6A002B05D1CD
:1047B000BB69DA693B6A1344FB620BE0BB6A002BFE
:1047C00008D197F82730002B04D0BB69DA693B6A1F
:1047D0001344BB623B6A01333B62BB691B8C1A46C4
:1047E0003B6A9342C8DBBB69DA69BB691B8C013346
:1047F000134400221A70FB6A002B00F0A7800023EC
:10480000FB6172E0BB69596AFA6913465B001344A5
:10481000DB000B445B681946F86AFBF761FD034651
:10482000002B5FD1BB69596AFA6913465B001344D8
:10483000DB000B445B69002B5ED0BB69596AFA69E7
:1048400013465B001344DB000B441B7B002B02D0A0
:10485000B86AFFF7C9FCBB6993F8333043F0100323
:10486000DAB2BB6983F83320BB6A002B1AD039490E
:10487000B86AFBF735FD0346002B06D03649B86A07
:10488000FBF72EFD0346002B0CD1BB69596AFA6970
:1048900013465B001344DB000B441946786800F0B4
:1048A0005DF815E0BB69596AFA6913465B00134469
:1048B000DB000B445C69BB69596AFA6913465B000B
:1048C0001344DB000B441B691A46B96A7868A04799
:1048D000BB6993F8333023F01003DAB2BB6983F875
:1048E000332034E0FB690133FB61BB699B8D1A46C1
:1048F000FB69934286DB00E000BF7B685B68002BAE
:104900001DD0FB6AFB60BB6A3B61BB6993F8333027
:1049100043F01003DAB2BB6983F833207B685B682D
:1049200007F10C02114678689847BB6993F8333059
:1049300023F01003DAB2BB6983F8332007E0F96A89
:10494000786800F05FFE02E000BF00E000BF3C3787
:10495000BD4690BDD0A30208D4A3020880B582B0A2
:1049600000AF786039603B689B68002B10D07B6893
:104970001B680921786898473B689B6819467868E6
:1049800000F0F3F9044B1B681946786800F0EDF964
:1049900000BF0837BD4680BD6C00002480B58EB0D6
:1049A00000AFF860B9607A6000233B610023BB82EE
:1049B0000023FB827868FBF79DFC7862BB68DB68AC
:1049C0003B623B6A9B8D002B02D07B6A002B08D197
:1049D000FB681A4607F1100393E8030082E803001E
:1049E00095E000237B6383E03B6A596A7A6B134648
:1049F0005B001344DB000B445B68FB61F869FBF769
:104A000079FCB8613B6A9A6A7B6B13441A783B6AFB
:104A1000996A7B6B0B4422F00102D2B21A70BA6918
:104A20007B6A9A425ED3012387F833300023FB620E
:104A300010E07A68FB6A13441A78F969FB6A0B4440
:104A40001B789A4203D0002387F8333006E0FB6AD4
:104A50000133FB62FA6A7B6A9A42EAD397F83330F1
:104A600083F00103DBB2002B3ED13B6A9A6A7B6B79
:104A700013441A783B6A996A7B6B0B4442F001023B
:104A8000D2B21A70FB8A002B04D0BB8A1A46BB69CB
:104A9000934202D2BB699BB2BB82FB8A01339BB2B9
:104AA000FB82FB8A012B02D1FB693B611DE03B6A63
:104AB0001B8CBB6210E03A69BB6A13441A78F9692F
:104AC000BB6A0B441B789A4203D0BB6A9BB2BB8281
:104AD0000BE0BB6A0133BB62BB8A1A46BB6A9342D6
:104AE000E9D302E000BF00E000BF7B6B01337B63D2
:104AF0003B6A9B8D1A467B6B9342FFF675AFFB6852
:104B00001A4607F1100393E8030082E80300F868EF
:104B10003837BD4680BD000080B588B000AF7860F2
:104B20007B68DB687B617B6993F8333003F020039B
:104B3000002B4AD07B69DA6907F10C0379681846C3
:104B4000FFF72CFF7B8A002B02D17B691B8C3B82F9
:104B5000204B1B681946786800F007F97B699B8E2B
:104B600001221946786800F021F97B691B8CFB61F2
:104B70000BE07B681B68F968FA690A4412781146F1
:104B800078689847FB690133FB613B8A1A46FB69E9
:104B90009342EED33B8ABB6107E07B681B68202110
:104BA00078689847BB690133BB617B691B8E1A46E5
:104BB000BB699342F1D33A8A7B691A86064B1B681C
:104BC0001946786800F0D1F800E000BF2037BD46F4
:104BD00080BD00BF780000247C00002480B588B030
:104BE00000AF78607B68DB68BB61BB69DA6907F19D
:104BF0000C0379681846FFF7D1FE7B8A002B78D02A
:104C00007B8A012B04D03A8ABB691B8C9A4231D92A
:104C1000BB69DB69F9683A8A184623F062FC7B8A33
:104C2000012B09D1BB69DB693A8A134420221A702F
:104C30003B8A01339BB23B82BB69DB693A8A1344EE
:104C400000221A70BB69DB69BA69128C1146BA6915
:104C5000928E8A1A13441946786800F086F83A8AC8
:104C6000BB691A84BB691A8CBB691A86BB690022AE
:104C70009A863FE0786800F043F80023FB6121E06A
:104C8000BB699A6AFB6913441B7803F00103002B8C
:104C900014D0BB69596AFA6913465B001344DB0000
:104CA0000B445B687B617969786800F05EF8134BB0
:104CB0001B681946786800F058F800E000BFFB69EF
:104CC0000133FB61BB699B8D1A46FB699342D7DBBD
:104CD000BB691B681946786800F047F8BB69DB6957
:104CE0001946786800F041F8BB691A8CBB691A86CE
:104CF00000E000BF2037BD4680BD00BF6C0000242F
:104D000090B587B000AF78607B68DB683B613B693A
:104D10001B8E1C463B691B681846FBF7EBFA0346E3
:104D20002344FB607B681B680D217868984700234B
:104D30007B6107E07B681B682021786898477B6966
:104D400001337B617A69FB689A42F3D37B681B6805
:104D50000D21786898473B6900221A863B6900223A
:104D60009A8600BF1C37BD4690BD80B584B000AFA9
:104D7000786039603868FBF7BDFAB8600023FB60E3
:104D80000BE07B681B683968FA680A4412781146A0
:104D900078689847FB680133FB60FA68BB689A4201
:104DA000EFD300BF00BF1037BD4680BD80B586B0D1
:104DB00000AF78600B467B8013467B707B88002BAE
:104DC00020D007F10C0300221A605A601A727B7817
:104DD000002B04D00D4B1B6802331B7803E00C4BF7
:104DE0001B6802331B78FB757A88FB7D07F10C008A
:104DF000084923F05DF907F10C0319467868FFF7BD
:104E0000B4FF00E000BF1837BD4680BD700000242D
:104E100074000024DCA3020880B483B000AF034612
:104E2000FB71FB790D2B0BD0FB790A2B08D0FB799A
:104E3000082B05D0FB79092B02D0FB797F2B01D100
:104E4000012300E0002303F00103DBB218460C3716
:104E5000BD465DF8047B704780B483B000AF034665
:104E6000FB71FB791F2B04D9FB797E2B01D8012321
:104E700000E0002303F00103DBB218460C37BD4607
:104E80005DF8047B704780B483B000AF78607B68C6
:104E9000DA887B689B889A4206D37B68DA887B68CD
:104EA0009B88D31A9BB209E07B681A897B689B8830
:104EB000D31A9AB27B68DB8813449BB218460C372E
:104EC000BD465DF8047B704780B485B000AF786064
:104ED0000023FB737B689A887B68DB889A4214D036
:104EE0007B681B687A68928813441B78FB737B6825
:104EF0009B8801339BB27A681289B3FBF2F101FB04
:104F000002F29B1A9AB27B689A80FB7B1846143790
:104F1000BD465DF8047B704780B485B000AF786013
:104F20000B46FB707B68DB8801339BB27A68128981
:104F3000B3FBF2F101FB02F29B1AFB817B689B88B9
:104F4000FA899A420BD07B681B687A68D28813442E
:104F5000FA781A707B68FA89DA80012300E000236E
:104F600018461437BD465DF8047B704780B588B09D
:104F700000AF786039603868FBF7BCF9B8617B68CE
:104F80009B881A46BB6901339A4201D200234DE047
:104F90003968786800F06AF824E07B681B89194654
:104FA000786800F047F878617869FBF7A3F9386111
:104FB0007B681B687A69D31A1A463B69134401332C
:104FC000FB617B689B881A46FB69D31AFB60BB694F
:104FD0000133FA689A420AD27B681B89013B9AB274
:104FE0007B681A817B681B89002BD6D100E000BF4B
:104FF0007B681B89002B0AD07B681A68BB69013368
:10500000D0187B681B68FA69194623F093F97B680E
:105010001868BB6901331A46396823F062FA7B6865
:105020001B8901339AB27B681A8101231846203705
:10503000BD4680BD80B582B000AF78600B467B80F6
:105040007B88002B04D07B681B897A889A4201D91F
:10505000002307E07B681B687A8811461846FFF733
:1050600037F9034618460837BD4680BD80B586B07F
:1050700000AF786039603B68002B4CD07B681B899F
:10508000002B48D000237B6101237B8213E07B68E7
:105090001B687A8A11461846FFF735F97861396836
:1050A0007869FBF71DF90346002B0AD000237B61CA
:1050B0007B8A01337B827B681B897A8A9A42E6D994
:1050C00000E000BF7B69002B27D07B681B89013B78
:1050D0009AB27B681A817A8A7B681B8901339A426B
:1050E0001DD07869FBF706F9F8607B689B88194644
:1050F000FB6801337A691A447B681B68D31ACB1AA0
:10510000BB60FB6801337A691344BA681946786951
:1051100023F010F904E000BF02E000BF00E000BF90
:105120001837BD4680BD80B485B000AF78600B46AF
:105130007B807B68002B02D07B88002B02D14FF64E
:10514000FF7328E00023FB810123BB81BA897B88A0
:105150009A4213D0FB897A6813441B78002B09D13B
:10516000BB890133BB81FB8901337A6813441B7807
:10517000002B05D0FB890133FB81E7E700BF00E08E
:1051800000BFFB897A6813441B78002B01D0FB8990
:1051900001E04FF6FF7318461437BD465DF8047BF7
:1051A000704780B586B000AFF860B9607A600023C0
:1051B0007B6110E07B699B00BA6813441B68194649
:1051C000F868FBF78DF80346002B01D17B6908E0F6
:1051D0007B6901337B617A697B689A42EADB4FF035
:1051E000FF3318461837BD4680BD000080B586B035
:1051F00000AFF860B9607A60B868FBF77BF80346E7
:105200003B61B968F868FFF7B0FD00237B6106E0F9
:105210000849F868FFF7A9FD7B6901337B617A686B
:105220003B69D31A7A699A42F2DB00BF00BF183794
:10523000BD4680BDC8A302082DE9F04395B000AF7C
:10524000F860B9607A60FB68DB687B637B6B9B8D81
:10525000002B0AD18C49F868FFF787FD8B4B1B6840
:105260001946F868FFF781FDBAE1B868FFF766F8FC
:1052700003467B867B8E002B40F0F6806B461E46F5
:105280002023BB62BB6A013B7B62BB6A002298465B
:1052900091464FF000024FF000034FEA491343EAF2
:1052A000D8634FEA4812BB6A00221C4615464FF0ED
:1052B00000024FF000036B0143EAD4636201BB6A52
:1052C0009B000733DB08DB00ADEB030D6B460333BC
:1052D0009B089B003B620023FB640023BB642DE022
:1052E0007B6B596ABA6C13465B001344DB000B44BA
:1052F0001B68002B09D07B6B596ABA6C13465B00A4
:105300001344DB000B441B6800E0614BBB61FA6C8B
:10531000396AB869FFF745FF78617B69002B0ADAC3
:10532000FA6CBB6A9A4206DAFB6C5A1CFA643A6A57
:10533000B96942F82310BB6C0133BB647B6B9B8D56
:105340001A46BB6C9342CBDB00237B6485E051495A
:10535000F868FFF70AFD3B6A7A6C53F82230194669
:10536000F868FFF702FD4C49F868FFF7FEFC474B71
:105370001B681946F868FFF7F8FC00233B645DE002
:105380007B6B596A3A6C13465B001344DB000B4499
:105390001B68002B09D07B6B596A3A6C13465B0083
:1053A0001344DB000B441B6800E0394BFB613B6A94
:1053B0007A6C53F822301946F869FAF791FF0346E0
:1053C000002B38D13549F868FFF7CFFC7B6B596A61
:1053D0003A6C13465B001344DB000B445B681022FD
:1053E0001946F868FFF702FF2D49F868FFF7BDFC82
:1053F0007B6B596A3A6C13465B001344DB000B4429
:105400009B68002B0DD07B6B596A3A6C13465B008E
:105410001344DB000B449B681946F868FFF7A5FCB2
:1054200003E02049F868FFF7A0FC184B1B681946F9
:10543000F868FFF79AFC3B6C01333B647B6B9B8DF8
:105440001A463B6C93429BDB104B1B681946F8686D
:10545000FFF78BFC7B6C01337B647A6CFB6C9A42AC
:10546000FFF675AFB546BBE07B8E012B40F0AE80FA
:105470000121B868FEF72CFFF862002387F83F305F
:105480000023BB638FE000BFE4A302086C0000248C
:10549000FCA302080CA4020810A4020814A4020829
:1054A0001CA4020820A402087B6B596ABA6B13463D
:1054B0005B001344DB000B445B68F96A1846FAF79B
:1054C0000FFF0346002B6BD1012387F83F3046497D
:1054D000F868FFF74AFC7B6B596ABA6B13465B00AE
:1054E0001344DB000B445B681946F868FFF73DFC8A
:1054F0003E4B1B681946F868FFF737FC3C49F868D3
:10550000FFF733FC7B6B596ABA6B13465B0013449D
:10551000DB000B441B68002B09D07B6B596ABA6B0C
:1055200013465B001344DB000B441B6800E0314B67
:105530001946F868FFF719FC2C4B1B681946F868E8
:10554000FFF713FC7B6B596ABA6B13465B0013447D
:10555000DB000B449B68002B17D02749F868FFF746
:1055600004FC7B6B596ABA6B13465B001344DB0087
:105570000B449B681946F868FFF7F7FB1B4B1B6849
:105580001946F868FFF7F1FB14E01C49F868FFF7CB
:10559000ECFB164B1B681946F868FFF7E6FB09E0C1
:1055A000BB6B0133BB637B6B9B8D1A46BB6B93421A
:1055B000FFF67AAF97F83F3083F00103DBB2002BA0
:1055C0000ED0F96AF86800F01DF809E00C49F86897
:1055D000FFF7CBFB054B1B681946F868FFF7C5FBC7
:1055E0005437BD46BDE8F0832CA402086C000024AB
:1055F00038A40208FCA3020844A4020820A402085C
:105600004CA4020880B582B000AF786039600B49C5
:105610007868FFF7AAFB39687868FFF7A6FB0849A6
:105620007868FFF7A2FB074B1B6819467868FFF7FD
:105630009CFB00BF0837BD4680BD00BF7CA40208AC
:1056400090A402086C00002480B582B000AF202036
:1056500003F05CFF78607B68002B0AD07B68002237
:105660001A607B680433184600F01AFA7B6800223F
:105670001A777B6818460837BD4680BD80B590B064
:1056800000AFF860B9607A603B60FB687B63002321
:10569000BB6300233B63FB68002B0DD14FF050032D
:1056A00072B683F31188BFF36F8FBFF34F8F62B66B
:1056B0003B6200BF00BFFDE7BB68B3F1807F0DD345
:1056C0004FF0500372B683F31188BFF36F8FBFF3AF
:1056D0004F8F62B6FB6100BF00BFFDE7BB68002BC8
:1056E0000DD14FF0500372B683F31188BFF36F8F63
:1056F000BFF34F8F62B6BB6100BF00BFFDE702F092
:105700001BFD0346002B02D1BB6C002B01D10123F2
:1057100000E00023002B0DD14FF0500372B683F34D
:105720001188BFF36F8FBFF34F8F62B67B6100BFED
:1057300000BFFDE701F040FE7B6B1B68FB623A682F
:10574000B968F86A00F08AF9B862BB6A002B0ED01B
:10575000FB6AFB630023BB647B68002B28D07B6B58
:105760001A68BB68DB431A407B6B1A6020E0BB6C95
:10577000002B04D1FB6AFB6301233B6318E07B68C9
:10578000002B03D0BB6B43F08073BB633B68002BE3
:1057900003D0BB6B43F08063BB637B6B181DBA689F
:1057A000BB6B1343BA6C194602F0F0F80023FB639D
:1057B00001F010FE7862BB6C002B31D07B6A002BAD
:1057C00007D11A4B4FF080521A60BFF34F8FBFF3CF
:1057D0006F8F02F0DDFEF863FB6B03F00073002BAC
:1057E0001AD103F05FFD7B6B1B68FB633A68B968F5
:1057F000F86B00F033F90346002B09D07B68002BCF
:1058000006D07B6B1A68BB68DB431A407B6B1A605F
:1058100001233B6303F07CFDFB6B23F07F43FB63C1
:10582000FB6B18464037BD4680BD00BF04ED00E06D
:1058300080B586B000AF786039607B687B617B683B
:10584000002B0DD14FF0500372B683F31188BFF3D4
:105850006F8FBFF34F8F62B6FB6000BF00BFFDE7E5
:105860003B68B3F1807F0DD34FF0500372B683F3E2
:105870001188BFF36F8FBFF34F8F62B6BB6000BF5D
:1058800000BFFDE703F00EFD7B691B683B617B6990
:105890001A683B68DB431A407B691A6003F038FDE5
:1058A0003B6918461837BD4680BD80B58EB000AF45
:1058B0007860396000233B637B68BB620023FB6236
:1058C0007B68002B0DD14FF0500372B683F3118823
:1058D000BFF36F8FBFF34F8F62B63B6100BF00BF56
:1058E000FDE73B68B3F1807F0DD34FF0500372B6F4
:1058F00083F31188BFF36F8FBFF34F8F62B6FB60E6
:1059000000BF00BFFDE7BB6A04337B627B6A0833DC
:105910003B6201F051FD7B6ADB687B63BB6A1A68FE
:105920003B681A43BB6A1A603CE07B6B5B68FB61B7
:105930007B6B1B68BB610023FB62BB6903F07F4389
:105940007B61BB6923F07F43BB617B6903F08063AC
:10595000002B08D1BB6A1A68BB691340002B0BD01F
:105960000123FB6208E0BB6A1A68BB691340BA698D
:105970009A4201D10123FB62FB6A002B10D07B69A4
:1059800003F08073002B03D03A6BBB6913433B6376
:10599000BB6A1B6843F000731946786B02F076F916
:1059A000FB697B637A6B3B6A9A42BED1BB6A1A6819
:1059B0003B6BDB431A40BB6A1A6001F00BFDBB6A0C
:1059C0001B6818463837BD4680BD80B586B000AF2D
:1059D00078607B687B617B69002B0DD14FF05003B1
:1059E00072B683F31188BFF36F8FBFF34F8F62B628
:1059F000FB6000BF00BFFDE77B6904333B6101F042
:105A0000DBFC1AE03B69DA683B6908339A420DD146
:105A10004FF0500372B683F31188BFF36F8FBFF35B
:105A20004F8F62B6BB6000BF00BFFDE73B69DB681C
:105A30004FF00071184602F029F93B691B68002BF2
:105A4000E0D101F0C7FC7B691B7F002B02D1786994
:105A500003F09AFE00BF1837BD4680BD80B487B002
:105A600000AFF860B9607A6000237B617B68002B2F
:105A700007D1FA68BB681340002B0AD001237B6171
:105A800007E0FA68BB681340BA689A4201D1012363
:105A90007B617B6918461C37BD465DF8047B704707
:105AA00080B483B000AF78607B6803F108027B6844
:105AB0005A607B684FF0FF329A607B6803F10802FE
:105AC0007B68DA607B6803F108027B681A617B6897
:105AD00000221A6000BF0C37BD465DF8047B70479A
