:020000040800F2
:1000000000000824C11B0008C5190008CD1900080C
:10001000D5190008DD190008E519000800000000E6
:10002000000000000000000000000000616F0008F8
:10003000ED1900080000000021720008FB190008FB
:10004000151C0008151C0008151C0008151C0008CC
:10005000151C0008151C0008151C0008151C0008BC
:10006000151C0008151C0008151C0008151C0008AC
:10007000151C0008151C0008151C0008151C00089C
:10008000151C0008151C0008151C0008151C00088C
:100090000D1A0008151C0008151C0008151C000886
:1000A000151C0008151C0008151C0008151C00086C
:1000B000151C0008151C0008151C0008151C00085C
:1000C000151C0008151C0008151C0008151C00084C
:1000D000151C0008151C0008151C0008151C00083C
:1000E000151C0008151C000800000000151C000865
:1000F000151C0008151C0008151C0008151C00081C
:10010000151C0008151C0008151C0008151C00080B
:10011000211A0008151C0008151C0008151C0008F1
:10012000151C0008151C0008151C0008151C0008EB
:10013000151C0008151C0008151C0008151C0008DB
:10014000151C0008151C000800000000000000003D
:10015000151C0008151C0008151C0008151C0008BB
:10016000151C0008151C0008151C0008151C0008AB
:10017000151C0008151C0008151C000800000000D4
:10018000151C0008151C0008151C0008151C00088B
:10019000151C0008151C0008151C0008151C00087B
:1001A000151C0008151C0008151C0008151C00086B
:1001B000151C0008151C0008151C0008151C00085B
:1001C000151C0008151C0008151C0008151C00084B
:1001D000151C0008151C0008151C0008151C00083B
:1001E000151C0008151C0008151C0008151C00082B
:1001F000151C0008151C0008151C0008151C00081B
:10020000151C0008151C0008151C0008151C00080A
:10021000151C0008151C0008151C0008151C0008FA
:10022000151C0008151C0008151C00080000000023
:10023000151C0008151C0008151C0008151C0008DA
:10024000151C0008151C0008151C0008151C0008CA
:10025000151C0008151C0008151C0008151C0008BA
:10026000151C0008151C0008151C0008151C0008AA
:10027000151C0008151C0008151C0008151C00089A
:10028000151C0008151C0008151C000800000000C3
:08029000151C0008151C0008F4
:1002A00010B5054C237833B9044B13B10448AFF3B0
:1002B00000800123237010BD3801002400000000DD
:1002C000680F010808B5034B1BB103490348AFF39E
:1002D000008008BD000000003C010024680F0108F8
:1002E00010F8012B11F8013B012A28BF9A42F7D0E0
:1002F000D01A7047034613F8012B002AFBD1181AB5
:1003000001387047000000000000000000000000FD
:1003100001F0FF01102A2BDB10F0070F08D010F8B6
:10032000013B013A8B422DD010F0070F42B3F6D1BA
:10033000F0B441EA012141EA014122F007047FF0D3
:1003400000070023F0E80256083C85EA010586EA2A
:10035000010685FA47F5A3FA87F586FA47F6A5FA66
:1003600087F68EB9EED1F0BC01F0FF0102F0070272
:1003700032B110F8013B013A83EA010313B1F8D11D
:100380000020704701387047002D06BF35460338FE
:10039000073815F0010F07D1013015F4807F02BF37
:1003A000013015F4C03F0130F0BC0138704700BF88
:1003B00080B400AF494BD3F88830484A43F4700307
:1003C000C2F88830454B1B69444A43F0100313615F
:1003D000434B1B6803F00F03062B07D8404B1B68E9
:1003E00023F00F033E4A43F0070313603D4B1B68A5
:1003F0003C4A43F0010313603A4B00221A61394B27
:100400001A683849384B13400B60354B1B6803F0B2
:100410000803002B07D0324B1B6823F00F03304A30
:1004200043F0070313602F4B00229A612D4B0022EB
:10043000DA612C4B00221A622A4B2C4A9A62294B11
:100440002B4ADA62274B2B4A1A63264B00225A6347
:10045000244B284A9A63234B0022DA63214B254A16
:100460001A64204B00225A641E4B1B681D4A23F459
:10047000802313601B4B00221A661F4B5B6A1E4AC7
:1004800043F4804353621D4B1A681D4B1340B3F174
:10049000005F02D21B4B01221A60124BD3F8D430FA
:1004A00003F48053002B13D10E4BD3F8D4300D4AF4
:1004B00043F48053C2F8D430134B43F2D2021A6093
:1004C000084BD3F8D430074A23F48053C2F8D43011
:1004D00000BFBD465DF8047B704700BF00ED00E043
:1004E00000200052004402587FEDF6EA00020202AA
:1004F0000000FF0180020101C00000580010005CF4
:100500000000FFFF088100510040005280B400AF9E
:100510000A4BDB6823F00603084A43F00203D3606A
:1005200000BF064B5B6803F40053002BF9D000BFFB
:1005300000BFBD465DF8047B704700BF004802580D
:1005400080B400AF044BDB681B0A03F007031846B6
:10055000BD465DF8047B704700ED00E080B483B0D9
:1005600000AF0346FB80B7F90630002B0BDBFB889E
:1005700003F01F020749B7F906305B09012000FAB2
:1005800002F241F8232000BF0C37BD465DF8047B22
:10059000704700BF00E100E080B483B000AF0346C5
:1005A0003960FB80B7F90630002B0ADB3B68DAB212
:1005B0000C49B7F906301201D2B20B4483F800237C
:1005C0000AE03B68DAB20849FB8803F00F03043BFA
:1005D0001201D2B20B441A7600BF0C37BD465DF84B
:1005E000047B704700E100E000ED00E080B489B0DA
:1005F00000AFF860B9607A60FB6803F00703FB6145
:10060000FB69C3F10703042B28BF0423BB61FB690B
:100610000433062B02D9FB69033B00E000237B6116
:100620004FF0FF32BB6902FA03F3DA43BB681A40AA
:100630007B699A404FF0FF317B6901FA03F3D9439C
:100640007B680B40134318462437BD465DF8047B96
:10065000704780B487B000AF786039603B68C3F3FF
:100660001303002B07D13B689B0E03F01F030122ED
:1006700002FA03F315E03B683B613B6993FAA3F38D
:10068000FB60FB687B617B69002B01D1202303E0C9
:100690007B69B3FA83F3DBB203F01F03012202FA92
:1006A00003F37A68D2691A437B68DA6100BF1C37AA
:1006B000BD465DF8047B704780B487B000AFF8603A
:1006C000B9607A60FB6830331A46BB681B0A9B002E
:1006D00003F00C0313447B617B691A68BB6803F069
:1006E0001F031F2101FA03F3DB431A407B689B0EB3
:1006F00003F01F01BB6803F01F0301FA03F31A4361
:100700007B691A6000BF1C37BD465DF8047B7047EB
:1007100080B483B000AF786039607B68DB6823F019
:1007200003023B681A437B68DA6000BF0C37BD46A2
:100730005DF8047B704780B487B000AFF860B960A3
:100740007A60FB6814331A46BB685B0E9B0003F0AB
:10075000040313447B617B691A68BB681B0D03F0BB
:100760001F03072101FA03F3DB431A40BB681B0D8B
:1007700003F01F03796801FA03F31A437B691A60D7
:1007800000BF1C37BD465DF8047B704780B485B060
:1007900000AFF860B9607A60FB68D3F8C020BB682E
:1007A000C3F31303DB431A407B6803F018030849C3
:1007B000D940BB680B40C3F313031A43FB68C3F86B
:1007C000C02000BF1437BD465DF8047B704700BFF2
:1007D000FFFF0F0080B483B000AF786039607B68A2
:1007E0001A69064B13403A681A437B681A6100BFC6
:1007F0000C37BD465DF8047B704700BFFCFBFFFF74
:1008000080B483B000AF78607B689A68044B134073
:100810007A68936000BF0C37BD465DF8047B704773
:10082000C0FFFF5F80B483B000AF78607B689A68D8
:10083000054B134043F080527B689A6000BF0C3731
:10084000BD465DF8047B7047C0FFFF6F80B483B086
:1008500000AF78607B689A68054B134043F0010253
:100860007B689A6000BF0C37BD465DF8047B70471B
:10087000C0FFFF7F80B483B000AF78607B681B68E7
:1008800003F00103012B01D1012300E000231846EE
:100890000C37BD465DF8047B704780B483B000AF71
:1008A00078607B681B6823F400327B681A6000BFA5
:1008B0000C37BD465DF8047B704780B483B000AF51
:1008C00078607B681B6823F400227B681A6000BF95
:1008D0000C37BD465DF8047B7047000080B485B0DE
:1008E00000AFF860B9607A60FB68DA68064B1340C5
:1008F000B9687A680A431A43FB68DA6000BF1437A4
:10090000BD465DF8047B704701F8FFFF80B483B0FB
:1009100000AF78607B68DB6823F400427B68DA60B4
:1009200000BF0C37BD465DF8047B704780B483B0D0
:1009300000AF78607B685B6843F000727B685A6048
:1009400000BF0C37BD465DF8047B704780B483B0B0
:1009500000AF78607B681B6843F001027B681A6017
:1009600000BF0C37BD465DF8047B704780B483B090
:1009700000AF78607B681B6823F000527B681A60C8
:1009800000BF0C37BD465DF8047B704780B489B06A
:1009900000AF786039607B680833FB60FB6853E820
:1009A000003FBB60BB6823F060423B685B071343BA
:1009B000FB617B680833FA69BA617B617969BA695E
:1009C00041E800233B613B69002BE4D100BF00BF3D
:1009D0002437BD465DF8047B704780B489B000AF12
:1009E000786039607B680833FB60FB6853E8003F40
:1009F000BB60BB6823F060623B685B061343FB612E
:100A00007B680833FA69BA617B617969BA6941E840
:100A100000233B613B69002BE4D100BF00BF2437BA
:100A2000BD465DF8047B704780B483B000AF78604A
:100A30007B685B6823F490427B685A607B689B68A4
:100A400023F02A027B689A6000BF0C37BD465DF830
:100A5000047B704780B483B000AF78607B68DB694B
:100A600003F40013B3F5001F01D1012300E00023BC
:100A700018460C37BD465DF8047B704780B483B0E0
:100A800000AF78607B68DB6903F48003B3F5800F07
:100A900001D1012300E0002318460C37BD465DF864
:100AA000047B704780B483B000AF7860054B5A6810
:100AB00004497B6813434B6000BF0C37BD465DF8AB
:100AC000047B70470004005880B483B000AF7860A6
:100AD00039607B683A689A6100BF0C37BD465DF8A3
:100AE000047B704780B483B000AF786039603B68A6
:100AF0001A047B689A6100BF0C37BD465DF8047B21
:100B0000704780B485B000AF786039607B685B69FE
:100B1000FB60FA683B6813401A04FB68D9433B68E2
:100B20000B401A437B689A6100BF1437BD465DF8DD
:100B3000047B704780B485B000AF78600A4BD3F86F
:100B4000D82009497B681343C1F8D830064BD3F845
:100B5000D8207B681340FB60FB6800BF1437BD469C
:100B60005DF8047B704700BF0044025880B485B034
:100B700000AF78600A4BD3F8E02009497B68134343
:100B8000C1F8E030064BD3F8E0207B681340FB60EF
:100B9000FB6800BF1437BD465DF8047B704700BF9B
:100BA0000044025880B485B000AF78600A4BD3F897
:100BB000E82009497B681343C1F8E830064BD3F8B5
:100BC000E8207B681340FB60FB6800BF1437BD461C
:100BD0005DF8047B704700BF0044025880B483B0C6
:100BE00000AF78607B6801221A707B68134A5A60F4
:100BF0007B68134A9A607B68124ADA607B680A2233
:100C00001A747B680A225A747B6819229A747B686A
:100C10001822DA747B6814221A757B680A22DA8239
:100C20007B684FF480721A837B680022DA6100BF10
:100C30000C37BD465DF8047B704700BF800F01088C
:100C40008C0F0108940F010880B582B000AF786066
:100C500010210448FFF755FF4FF4FA7004F04CFDE3
:100C600000BFF5E70000025880B584B000AF78609F
:100C70000E4801F03BFA0346002B12D00B4801F05E
:100C8000F1F90346FB7301F063FE0246FB7B194654
:100C9000104601F053FF01F05BFE0346184601F0D9
:100CA00070FF012004F028FDE2E700BF004C004087
:100CB00090B5AFB004AF7860002007F07FFEC7F8B2
:100CC000A000FF21D7F8A00008F0E0F80A21D7F82B
:100CD000A00008F0B5F84FF47A71D7F8A00007F03B
:100CE000F7FEC7F89C00D7F89C30002B00F01E815F
:100CF00008E1D7F89C0007F0FDFC0346073B012BF9
:100D000000F2FA80D7F898301B7C03F0F003002B38
:100D100000F0B880D7F898301B7C03F0F003102B5C
:100D200040F0B080D7F898305B7C042B3BD1062391
:100D3000C7F88C30042007F039F8C7F88800D7F8D6
:100D400098301B7C03F00F03DAB2D7F888301A749E
:100D5000D7F898305A7CD7F888305A74D7F888304A
:100D600000229A74D7F888300022DA74D7F88830D5
:100D700000221A75D7F8883018225A75D7F88830AB
:100D800006225A814FF47A72D7F88810D7F89C005F
:100D900007F0CAFF0346002B40F0B380D7F8880065
:100DA00007F0A0F8ADE0D7F898305B7C184600F06B
:100DB00097FF0346A7F89630B7F8963040F6E4421E
:100DC00003FB02F25A4B13445A4A82FB03121A44A1
:100DD000D213DB17D31AC7F8A430D7F8A43040F2E7
:100DE000E242934204DD40F2E243C7F8A43007E058
:100DF000D7F8A43013F5C87F02DA4F4BC7F8A430F8
:100E0000042006F0D3FFC7F89000D7F898301B7C79
:100E100003F00F03DAB2D7F890301A74D7F898308D
:100E20005A7CD7F890305A74D7F8A4301B16DAB22F
:100E3000D7F890309A74D7F8A4301B14DAB2D7F8E8
:100E40009030DA74D7F8A4301B12DAB2D7F89030A9
:100E50001A75D7F8A430DAB2D7F890305A75D7F8A7
:100E6000903006225A814FF47A72D7F89010D7F852
:100E70009C0007F059FF0346002B03D1D7F89000E0
:100E800007F030F82D4B9B78002B07D0D7F898301F
:100E900010331A462A49022007F04AFCD7F89C0072
:100EA00007F037FC0446D7F89C0007F023FC024605
:100EB000D7F898305B891946D7F89830103307F186
:100EC000080002930191009223461E4A80210EF0F1
:100ED00013FF01F03DFD024607F1080319461046D5
:100EE00001F0E0FED7F8980006F0FCFF164B1B68F7
:100EF0000133154A136005E0D7F8980006F0F2FFB9
:100F000000E000BF6421D7F89C0007F003FEC7F89B
:100F10009800D7F89830002B7FF4EBAED7F89C0000
:100F200007F083FA642004F0E7FBD4E600BFD2E6C2
:100F3000F4010CFE0180008070FEFFFF8C00002495
:100F4000A80F0108D00F0108F401002480B582B079
:100F500000AF78604FF400510848FFF7C3FDC82088
:100F600004F0CAFB4FF400510448FFF7ADFD4FF405
:100F7000167004F0C1FB00BFECE700BF000C025884
:100F800080B582B002AF09F011F900F07BF800F0F3
:100F9000F5F800F029FC00F087FB00F09DFA00F066
:100FA000FFFA00F01BF900F0F9F901F019F901F06E
:100FB0002FF801F081FC2948FFF710FE274B0C2287
:100FC0001A70264807F0B6FC08F008FB06214FF41B
:100FD000FA7008F0A9FAFF23214A0521032008F03E
:100FE000C1FEFF231E4A0521022008F0BBFEFF239D
:100FF0001B4A0521012008F0B5FE002301930423BC
:10100000009300234FF4A0621649174804F025FA14
:10101000002301930623009300234FF4A062134999
:10102000134804F01AFA00230193062300930023C7
:101030004FF4A0620F49104804F00FFA0023019307
:101040000623009300234FF420720C490C4804F04F
:1010500004FA04F0F1FB00BFFDE700BFEC2B042411
:101060001C2C0424F40F0108490C0008FC0F010893
:10107000690C000810100108B10C00081C100108D0
:101080004D0F000880B59CB000AF07F124034C223F
:10109000002118460EF084FF3B1D20220021184637
:1010A0000EF07EFF02200AF0ADFD00233B60314BC5
:1010B000DB6A304A23F00103D3622E4BDB6A03F074
:1010C00001033B602C4B9B6923F440432A4A43F4C1
:1010D00080439361284B9B6903F440433B603B682A
:1010E00000BF254B9B6903F40053B3F5005FF8D1B3
:1010F00001237B624FF48033BB620223BB64022373
:10110000FB6402233B650C237B650223BB65032341
:10111000FB6502233B660C237B660223BB66002330
:10112000FB6607F1240318460AF0C6FD0346002BB0
:1011300001D000F0B5FB3F237B600323BB6000239D
:10114000FB6000233B6100237B614023BB610023E4
:10115000FB6100233B623B1D012118460BF006FAA0
:101160000346002B01D000F09BFB00BF7037BD464B
:1011700080BD00BF000400580048025880B5B0B0E0
:1011800000AF3B46C022002118460EF009FF4FF485
:1011900000224FF00003C7E900230223BB600C23A9
:1011A000FB6003233B6102237B610223BB61C023FD
:1011B000FB6120233B6200237B620023C7F8A4303D
:1011C0003B4618460BF002FD0346002B01D000F011
:1011D00067FB00BFC037BD4680BD000080B594B03E
:1011E00000AF07F1440300221A605A609A6007F1C9
:1011F0002C0300221A605A609A60DA601A615A6100
:1012000007F11C0300221A605A609A60DA603B1DE5
:1012100000221A605A609A60DA601A615A612020CE
:10122000FFF788FC0120FFF7A1FC40237B6003232C
:10123000BB6000237B613B1D194650480DF002FA4C
:101240004FF04070FFF72EFC00214D48FFF7C2FA27
:1012500000237B640023FB640023BB6407F1440389
:10126000194647480DF09EF80023FB6202233B63BA
:1012700000237B634FF40053BB634FF480533B6404
:1012800007F12C0319463E480DF0B8F800213C4800
:10129000FFF73EFA4FF48023FB6100233B6207F126
:1012A0001C03194637480DF025F83548FFF7A8FA12
:1012B0003348FFF7B7FA344B1B689B09334AA2FB4C
:1012C00003239A0913469B0013445B001A46304BD4
:1012D000A3FB0223DB083B6002E03B68013B3B6071
:1012E0003B68002BF9D1012206212548FFF7E4F9DC
:1012F000002201212248FFF71EFA40F2FF7201216D
:101300001F48FFF743FA01211D48FFF7A2F9214AC0
:101310000C211B48FFF7D0F900221E491848FFF79F
:101320000AFA40F2FF721B491548FFF72FFA1949D4
:101330001348FFF78EF9184A12211148FFF7BCF93C
:10134000002215490E48FFF7F6F940F2FF721249E4
:101350000B48FFF71BFA10490948FFF77AF90848CC
:10136000FFF774FA00BF0648FFF784FA0346002B24
:10137000F9D000BF00BF5037BD4680BD0000025805
:10138000002002400023024000000024632D3E059F
:10139000CDCCCCCC020030040800900C80B590B0CD
:1013A00000AF07F1340300221A605A609A6007F117
:1013B0001C0300221A605A609A60DA601A615A614E
:1013C0003B1D00221A605A609A60DA601A615A6105
:1013D0002020FFF7AFFB0420FFF7C8FB10237B6042
:1013E0000323BB6000237B613B1D194634480DF08D
:1013F00029F900213348FFF7EDF900237B6300232F
:10140000FB630023BB6307F1340319462D480CF03E
:10141000C9FF0023FB6100233B6200237B624FF482
:101420000053BB624FF480533B6307F11C03194622
:1014300024480CF0E3FF00212248FFF769F9214816
:10144000FFF7DEF91F48FFF7EDF91F4B1B689B09FB
:101450001E4AA2FB03239A0913469B0013445B0018
:101460001A461B4BA3FB0223DB083B6002E03B68F0
:10147000013B3B603B68002BF9D1164A062111481D
:10148000FFF71AF9002213490E48FFF754F940F20A
:10149000FF7210490B48FFF779F90E490948FFF729
:1014A000D8F80848FFF7D2F900BF0648FFF7E2F97D
:1014B0000346002BF9D000BF00BF4037BD4680BDBA
:1014C000000802580021024000000024632D3E0560
:1014D000CDCCCCCC1000C01080B500AF2E4B2F4A25
:1014E0001A602D4B00229A602B4B0022DA602A4BA7
:1014F00000221A74284B00225A74274B00229A7437
:10150000254B0A225A61244B01229A61224B082260
:10151000DA61214B01221A621F4B01225A621E4BD3
:1015200001229A621C4B0122DA621B4B01221A63D0
:10153000194B00225A63184B00229A63164B012262
:10154000DA63154B08221A64134B04225A64124BB7
:1015500000229A64104B0422DA640F4B00221A65B1
:101560000D4B04225A650C4B00229A650A4B00224F
:10157000DA65094B08221A66074B00225A66064BA9
:1015800004229A66044808F0BFFF0346002B01D0EE
:1015900000F086F900BF80BD5401002400A4004083
:1015A00080B5BEB000AF07F1DC0300221A605A60BC
:1015B0009A60DA601A615A619A6107F1C4030022E5
:1015C0001A605A609A60DA601A615A613B46C0221A
:1015D000002118460EF0E4FC4FF008024FF0000323
:1015E000C7E900230023C7F884303B4618460BF0B8
:1015F000EDFA0346002B01D000F052F90220FFF76C
:10160000B5FAC023C7F8C4300223C7F8C830002396
:10161000C7F8CC300123C7F8D0300023C7F8D43046
:101620000423C7F8D83007F1C40319461B480DF04E
:1016300009F84FF40010FFF7B5FA1948FFF776F9EB
:10164000002200211648FFF749F91548FFF75EF917
:101650001348FFF732F91248FFF71FF90023C7F8C4
:10166000DC30104BC7F8E0300023C7F8E43000232B
:10167000C7F8E8300023C7F8EC300023C7F8F03093
:101680000023C7F8F43007F1DC03194604480DF0D5
:10169000EBF800BFF837BD4680BD00BF000402581C
:1016A00000540040CE9F900080B5BEB000AF07F15F
:1016B000D8032022002118460EF072FC07F1C00367
:1016C00000221A605A609A60DA601A615A613B46D9
:1016D000C022002118460EF063FC4FF002024FF0CA
:1016E0000003C7E900230023BB673B4618460BF005
:1016F0006DFA0346002B01D000F0D2F84FF4002021
:10170000FFF750FA0120FFF731FA0323C7F8C03082
:101710000223C7F8C4300023C7F8C8300023C7F835
:10172000CC300023C7F8D0300823C7F8D43007F1F5
:10173000C00319462A480CF085FFFEF701FF034657
:10174000002200211846FEF751FF034619463420B7
:10175000FEF722FF3420FEF701FF0023C7F8D83040
:101760004FF4E133C7F8DC300023C7F8E030002342
:10177000C7F8E4300023C7F8E8300C23C7F8EC3092
:101780000023C7F8F0300023C7F8F43007F1D8037E
:10179000194614480DF0E4FF1248FFF7E7F800215E
:1017A0001048FFF7F3F800210E48FFF716F90D482F
:1017B000FFF73AF90B48FFF7C9F800BF0948FFF7F0
:1017C00049F90346002BF9D00648FFF757F90346BD
:1017D000002BF3D000BF00BFF837BD4680BD00BF6F
:1017E00000000258004C004080B586B000AF3B4678
:1017F00000221A605A609A60DA601A615A61022007
:10180000FFF7B4F90120FFF7B1F90820FFF7AEF9AF
:101810000420FFF7ABF94FF400511E48FFF754F9CD
:1018200018211D48FFF75EF94FF400533B60012378
:101830007B600023BB600023FB6000233B613B46D1
:10184000194614480CF0FEFE4FF440433B6002235F
:101850007B600023BB600023FB6000233B610C2303
:101860007B613B4619460D480CF0ECFE18233B60AB
:1018700001237B600023BB600023FB6000233B61EE
:101880003B46194604480CF0DDFE00BF1837BD4644
:1018900080BD00BF000C025800000258000402582E
:1018A00080B400AF72B600BF00BFFDE780B483B064
:1018B00000AF0A4BD3F8F430084A43F00203C2F8F1
:1018C000F430064BD3F8F43003F002037B607B68FE
:1018D00000BF0C37BD465DF8047B704700440258DA
:1018E00080B5BAB000AF786007F1D40300221A6067
:1018F0005A609A60DA601A6107F11003C022002171
:1019000018460EF04DFB7B681B682B4A93424FD163
:101910004FF400424FF00003C7E904234FF0805317
:10192000C7F8803007F1100318460BF04FF9034653
:10193000002B01D0FFF7B4FF204BD3F8EC301F4A47
:1019400043F48073C2F8EC301C4BD3F8EC3003F452
:101950008073FB60FB68194BD3F8E030174A43F003
:101960000203C2F8E030154BD3F8E03003F0020375
:10197000BB60BB684FF44053C7F8D4300223C7F8AC
:10198000D8300023C7F8DC300023C7F8E030092343
:10199000C7F8E43007F1D4031946094809F082FF7B
:1019A00000220521142008F07AFD142008F091FD92
:1019B00000BFE837BD4680BD00A400400044025887
:1019C0000004025880B400AF00BFFDE780B400AF50
:1019D00000BFFDE780B400AF00BFFDE780B400AFFB
:1019E00000BFFDE780B400AF00BFFDE780B400AFEB
:1019F00000BFBD465DF8047B704780B500AF08F0BE
:101A000047FC05F041FC00BF80BD000080B500AF81
:101A1000024809F039FA00BF80BD00BF540100241C
:101A200080B500AF024800F078FB00BF80BD00BF6A
:101A3000004C004080B400AF01231846BD465DF85D
:101A4000047B704780B582B000AF786039600EF0DB
:101A500037FB034616221A604FF0FF33184608374B
:101A6000BD4680BD80B582B000AF78604FF0FF31D9
:101A70007868FFF7E7FF00BFFDE780B586B000AFED
:101A8000F860B9607A6000237B610AE0AFF3008000
:101A90000146BB685A1CBA60CAB21A707B6901332E
:101AA0007B617A697B689A42F0DB7B68184618375D
:101AB000BD4680BD80B586B000AFF860B9607A6081
:101AC00000237B6109E0BB685A1CBA601B7818468A
:101AD000AFF300807B6901337B617A697B689A424E
:101AE000F1DB7B6818461837BD4680BD80B483B0F3
:101AF00000AF78604FF0FF3318460C37BD465DF8F5
:101B0000047B704780B483B000AF786039603B6875
:101B10004FF400525A60002318460C37BD465DF85A
:101B2000047B704780B483B000AF7860012318460F
:101B30000C37BD465DF8047B704780B485B000AFBC
:101B4000F860B9607A60002318461437BD465DF826
:101B5000047B704780B586B000AF7860144A154B9F
:101B6000D31A7B617B693B61134B1B68002B02D14D
:101B7000114B124A1A60104B1A687B6813443A6979
:101B80009A4207D20EF09CFA03460C221A604FF0DC
:101B9000FF3309E0084B1B68FB60074B1A687B6842
:101BA0001344054A1360FB6818461837BD4680BDCC
:101BB0000000082400040000F8010024282E04245A
:101BC000DFF838D0FEF7A2FCFEF7F2FB0C480D4917
:101BD0000D4A002302E0D458C4500433C4188C4288
:101BE000F9D30A4A0A4C002301E013600432A242EE
:101BF000FBD30EF06BFAFFF7C3F97047000008241F
:101C00000000002438010024C82501083801002400
:101C1000282E0424FEE7000080B483B000AF786073
:101C20007B689A68054B134043F004027B689A6016
:101C300000BF0C37BD465DF8047B7047C0FFFF7FD7
:101C400080B483B000AF78607B681B6C9BB2184691
:101C50000C37BD465DF8047B704780B483B000AF9D
:101C600078607B681B6803F00403042B01D1012317
:101C700000E0002318460C37BD465DF8047B704732
:101C800080B483B000AF78607B6804221A6000BF24
:101C90000C37BD465DF8047B7047000080B500AF8F
:101CA0000D48FFF7EDFF0C48FFF7B6FF00BF0A48ED
:101CB000FFF7D3FF0346002BF9D00748FFF7E0FFFB
:101CC0000548FFF7BDFF03461A46044B1A80034B35
:101CD0001B88184680BD00BF00210240020200247C
:101CE00080B584B000AF0346FB711D48FFF7C8FF05
:101CF0001B48FFF791FF0023FB6015E000BF184869
:101D0000FFF7ABFF0346002BF9D01548FFF7B8FFEC
:101D10001348FFF795FF03461946124AFB6822F85D
:101D20001310FB680133FB60FB68022BE6DDFB79D7
:101D3000032B0CD0032B0DDC012B02D0022B03D084
:101D400008E0084B1B8807E0064B5B8804E0054B66
:101D50009B8801E04FF6FF7318461037BD4680BDE3
:101D600000200240FC01002480B483B000AF786002
:101D70007B68DB6903F00203022B01D1012300E041
:101D8000002318460C37BD465DF8047B704780B4CD
:101D900083B000AF78607B68DB6903F00403042B39
:101DA00001D1012300E0002318460C37BD465DF841
:101DB000047B704780B483B000AF78607B68DB69D8
:101DC00003F00803082B01D1012300E0002318468B
:101DD0000C37BD465DF8047B704780B483B000AF1C
:101DE00078607B68DB6903F02003202B01D101239D
:101DF00000E0002318460C37BD465DF8047B7047B1
:101E000080B483B000AF78607B68DB6903F0800347
:101E1000802B01D1012300E0002318460C37BD467A
:101E20005DF8047B704780B483B000AF78607B6856
:101E300002221A6200BF0C37BD465DF8047B704772
:101E400080B483B000AF78607B6804221A6200BF60
:101E50000C37BD465DF8047B704780B483B000AF9B
:101E600078607B6808221A6200BF0C37BD465DF8B7
:101E7000047B704780B489B000AF78607B68FB60FA
:101E8000FB6853E8003FBB60BB6843F02003FB6185
:101E90007B68FA69BA617B617969BA6941E80023B4
:101EA0003B613B69002BE9D100BF00BF2437BD4631
:101EB0005DF8047B704780B489B000AF78607B68C0
:101EC000FB60FB6853E8003FBB60BB6843F08003E6
:101ED000FB617B68FA69BA617B617969BA6941E83B
:101EE00000233B613B69002BE9D100BF00BF2437D1
:101EF000BD465DF8047B704780B489B000AF786060
:101F00007B68FB60FB6853E8003FBB60BB6823F065
:101F10008003FB617B68FA69BA617B617969BA69A0
:101F200041E800233B613B69002BE9D100BF00BFC2
:101F30002437BD465DF8047B704780B483B000AFA2
:101F400078607B681B6803F02003202B01D10123FC
:101F500000E0002318460C37BD465DF8047B70474F
:101F600080B483B000AF78607B681B6803F08003A7
:101F7000802B01D1012300E0002318460C37BD4619
:101F80005DF8047B704780B483B000AF78607B68F5
:101F90005B6ADBB218460C37BD465DF8047B7047C0
:101FA00080B483B000AF78600B46FB70FA787B6832
:101FB0009A6200BF0C37BD465DF8047B7047000095
:101FC00080B485B000AF78600023FB6013E00F4A57
:101FD000FB68642101FB03F313441B687A689A428F
:101FE00006D1FB68642202FB03F3084A134406E0AF
:101FF000FB680133FB60FB68002BE8DD002318461B
:102000001437BD465DF8047B704700BF080000240C
:1020100080B582B002AF4FF4806300930A4B0B4A45
:1020200001210B4807F0E2FF4FF480630093094B56
:10203000094A0221094807F0D9FF0948FFF71AFFAA
:1020400000231846BD4680BD040200242810010864
:102050000C00002404060024341001083C00002475
:10206000004C004080B584B000AF78607868FFF71E
:10207000A7FFF860FB68002B02D14FF0FF330EE0A2
:10208000FB68043307F10B021146184608F027F8E5
:102090000346002B01D0FB7A01E04FF0FF331846D6
:1020A0001037BD4680BD80B584B000AF78600B4668
:1020B000FB707868FFF784FFF860FB68002B11D095
:1020C00000BFFB683433FA781146184607F0C1FFA9
:1020D000034683F00103DBB2002BF2D17868FFF7EF
:1020E000EAFE00E000BF1037BD4680BD80B584B079
:1020F00000AF78607868FFF763FFF860FB68002B3B
:1021000001D1002305E0FB680433184608F028F8E5
:10211000034618461037BD4680BD80B584B000AF79
:1021200078607868FFF74CFFF860FB68002B53D0AD
:102130007868FFF752FE0346002B2CD07868FFF733
:10214000FCFE0346002B26D07868FFF71CFF0346F1
:10215000FB727868FFF72EFE0346002B02D07868EA
:10216000FFF77BFE7868FFF7FFFD0346002B02D0E8
:102170007868FFF758FE7868FFF709FE0346002BE2
:1021800002D07868FFF75CFEFB680433FA7A1146E8
:10219000184607F05EFF7868FFF732FE0346002B13
:1021A0001BD07868FFF7DCFE0346002B15D0FB68D8
:1021B000343307F10A021146184607F090FF034630
:1021C000002B05D0BB7A19467868FFF7E9FE04E0DA
:1021D0007868FFF791FE00E000BF1037BD4680BD74
:1021E00080B582B002AF4FF400630093084B094AF8
:1021F0000321094807F0FAFE4FF400630093074BF0
:10220000074A0421074807F0F1FE00BFBD4680BD24
:102210003412002440100108341A0024040A002457
:10222000481001080412002480B400AFBFF34F8FA0
:1022300000BF064BDB6803F4E0620449044B134320
:10224000CB60BFF34F8F00BF00BFFDE700ED00E0A4
:102250000400FA0580B588B000AFF860B9607A6014
:1022600007F11403074A0A2118460DF045FD07F14E
:1022700014031946F86800F015FD00BF2037BD466D
:1022800080BD00BF8011010880B584B000AFF86048
:10229000B9607A60FFF7C8FF80B59CB002AFF86004
:1022A000B9607A60B86800F0F5FD0346A7F86630BB
:1022B000B7F86630012B04D83449F86800F0F2FC16
:1022C00060E00121B86800F0AFFD38660221B8680F
:1022D00000F0AAFDF8653B6E002B02D0FB6D002BD1
:1022E00004D12A49F86800F0DDFC4BE0002200210F
:1022F000386E0DF0C5FBB86500220021F86D0DF0B9
:10230000BFFB7865BB6D002B08DBBB6DFF2B05DCCD
:102310007B6D002B02DB7B6DFF2B04DD1C49F86815
:1023200000F0C0FC2EE0BB6D87F853307B6D87F862
:10233000523097F8522097F85310002300934FF42F
:102340007A73022006F0D6F80346124A1360114B46
:102350001B68002B04D11049F86800F0A3FC11E0C1
:1023600097F8532097F8523007F110000093134666
:102370000A4A40210DF0C0FC07F110031946F86825
:1023800000F090FC6837BD4680BD00BF8811010891
:10239000A4110108641A0024CC110108F4110108E9
:1023A00080B5C6B002AF07F58873A3F582731860D5
:1023B00007F58873A3F58473196007F58873A3F58F
:1023C00086731A6007F58873A3F58473186800F0A4
:1023D00061FD0346A7F80031B7F80031022B08D899
:1023E00007F58873A3F58273BC49186800F05AFC9E
:1023F00070E107F58873A3F584730121186800F074
:1024000013FDC7F8FC0007F58873A3F58473022158
:10241000186800F009FDC7F8F80000220021D7F87D
:10242000FC000DF02DFBC7F8F40000220021D7F8C6
:10243000F8000DF025FBC7F8F000D7F8F430002BBA
:102440000BDBD7F8F430FF2B07DCD7F8F030002B8C
:1024500003DBD7F8F030FF2B08DD07F58873A3F511
:1024600082739F49186800F01DFC33E1D7F8F430FF
:1024700087F8EF30D7F8F03087F8EE300023C7F850
:102480000C310323A7F80A3125E0B7F80A2107F534
:102490008873A3F584731146186800F0C5FCC7F86B
:1024A000D000D7F8D000FDF725FF0246D7F80C3151
:1024B0001344C7F80C31B7F80A21B7F800319A4233
:1024C00004D0D7F80C310133C7F80C31B7F80A3112
:1024D0000133A7F80A31B7F80A21B7F800319A4258
:1024E000D3D9D7F80C31002B08D107F58873A3F5A1
:1024F00082737C49186800F0D5FBEBE04FF47A73E7
:10250000C7F8E83097F8EE2097F8EF100023009313
:10251000D7F8E830022005F0EDFFC7F8E400D7F85F
:10252000E430002B08D107F58873A3F582736E4958
:10253000186800F0B7FBCDE0D7F80C0105F036FCC9
:10254000C7F8E000D7F8E030002B0CD1D7F8E40052
:1025500005F06BFF07F58873A3F58273634918686C
:1025600000F0A0FBB6E00023C7F804310323A7F86E
:1025700002313AE0B7F8022107F58873A3F58473B6
:102580001146186800F050FCC7F8D800D7F8D800FA
:10259000FDF7B0FEC7F8D400D7F804311033D7F8F0
:1025A000E0201344D7F8D420D7F8D81018460DF0FF
:1025B000B4FDD7F80421D7F8D4301344C7F8043158
:1025C000B7F80221B7F800319A4209D0D7F80431A0
:1025D0005A1CC7F80421D7F8E020134420221A74AB
:1025E000B7F802310133A7F80231B7F80221B7F882
:1025F00000319A42BED9D7F80C319AB2D7F8E03000
:102600005A814FF47A72D7F8E010D7F8E40006F058
:102610008BFB0346002B10D1D7F8E00005F062FCDD
:10262000D7F8E40005F001FF07F58873A3F582737E
:102630002F49186800F036FB4CE04FF47A71D7F858
:10264000E40006F067FAC7F8DC00D7F8DC30002BAE
:1026500022D0D7F8DC305B891946D7F8DC305B89AB
:102660001A46D7F8DC30103307F1100001930092BE
:102670000B46204A80210DF03FFB07F1100207F5C1
:102680008873A3F582731146186800F00BFBD7F826
:10269000DC0005F027FC07E007F58873A3F58273DB
:1026A0001549186800F0FEFAD7F8E40005F0BDFE01
:1026B00007F19000D7F80C31104A40210DF01CFBB7
:1026C00007F1900207F58873A3F582731146186825
:1026D00000F0E8FA07F58877BD4680BD10120108C2
:1026E0003812010858120108681201087C1201080A
:1026F00094120108A4120108BC120108D8120108A2
:1027000080B584B000AFF860B9607A60064B1B6892
:10271000184605F08AFE0549F86800F0C3FA00BFC4
:102720001037BD4680BD00BF641A0024E8120108BE
:1027300080B59CB002AFF860B9607A60B86800F00C
:10274000A9FB0346A7F86630B7F86630002B04D122
:102750002749F86800F0A6FA47E00121B86800F0C0
:1027600063FB386600220021386E0DF089F9F865A8
:10277000FB6D002B02DDFB6D032B04DD1D49F868AA
:1027800000F090FA31E0FB6DDBB21846FFF7A8FAD3
:102790000346A7F85A30B7F85A304FF6FF72934203
:1027A00004D11549F86800F07DFA1EE0B7F85A30F8
:1027B00040F6E44203FB02F2104B1344104A82FB42
:1027C00003121A44D213DB17D31A7B6507F11400E6
:1027D0007B6D0093FB6D0B4A40210DF08DFA07F1E4
:1027E00014031946F86800F05DFA6837BD4680BDED
:1027F000F41201081413010830130108F4010CFE4F
:10280000018000804C13010880B596B000AFF860DD
:10281000B9607A60FFF742FA0346A7F85630B7F876
:10282000562013465B0113440E4A82FB03121A44DE
:10283000D213DB17D31A40F2252202FB03F33B65C8
:1028400007F110003B6D084A40210DF055FA07F1E1
:1028500010031946F86800F025FA00BF5837BD4646
:1028600080BD00BF018000807013010880B400AFFC
:10287000024B1846BD465DF8047B7047B422010840
:1028800080B400AF08231846BD465DF8047B70474E
:1028900080B584B000AF78600B46FB70FB78FB73AB
:1028A000FB7B19460348FFF7FEFB00BF1037BD4610
:1028B00080BD00BF004C004080B582B000AF00F08A
:1028C00053F878607B681D4ADA607B684FF40062D9
:1028D0001A827B6810229A807B684022DA807B68AB
:1028E00080221A817B6820225A817B6801229A7497
:1028F0007B68134A1A60FFF7B9FF02467B685A618A
:10290000FFF7BEFF03461A467B681A83786800F01B
:1029100086F803460B4A13600A4B1B68002B01D153
:10292000012307E0074B1B68074A1A60074B012287
:102930001A70002318460837BD4680BD681A002467
:102940009813010868220024912800086C220024B2
:1029500080B400AF034B1B681846BD465DF8047B8E
:10296000704700BF6822002480B400AF114B4022A2
:102970009A80104B4022DA800E4B80221A810D4B38
:102980000022DA600B4B00221A820A4B08225A817D
:10299000084B01229A74074B074A1A60054B002224
:1029A0001A83044B00225A61024B1846BD465DF85B
:1029B000047B704770220024C413010880B485B0E2
:1029C00000AF78607B685B69002B02D17B685B8914
:1029D00000E00023FB817B689B8803339A087B68B7
:1029E000DB8803339B081A447B681B8903339B08ED
:1029F000D118FA8913465B001344DB0003339B08AC
:102A0000CA18FB8903339B08134412339BB29B0003
:102A10009BB218461437BD465DF8047B704780B5FD
:102A200088B000AF78600023FB617868FFF7C6FFCD
:102A30000346BB610023FB757B68DB68002B05D078
:102A40007B681B8A1A46BB69934201D9002371E057
:102A50007B68DB683B61BA69002138690DF0A0FA38
:102A60003B69FB613B6910333B61FB693A69DA60A2
:102A70003B6938333B61FB69DB68FB60FB683A69A3
:102A80001A617B689B88033323F003033A6913447C
:102A90003B61FB683A69DA617B68DB88033323F0CA
:102AA00003033A6913443B617B685A69FB685A62C5
:102AB0007B681A8BFB689A857B681A8BFB68DA85C2
:102AC000FB683A695A607B681A89FB681A81FB7D4A
:102AD000002B08D0FB6893F8333043F00403DAB2DC
:102AE000FB6883F833207B689B7C002B08D0FB6855
:102AF00093F8333043F02003DAB2FB6883F83320D5
:102B00007B689A88FB681A83FB6800229A82FB68BC
:102B10000022DA827B68DA88FB685A84FB6800222C
:102B200083F832207B681A68FB681A60FB68002211
:102B30009A86FB6918462037BD4680BD80B584B0B3
:102B400000AF78600B46FB707B68DB68FB60FB685E
:102B50001033FA781146184600F08AFF034683F0D6
:102B60000103DBB2002B08D0FB6893F8333043F04D
:102B70000103DAB2FB6883F8332000BF1037BD468B
:102B800080BD80B584B000AF78607B681B68002B87
:102B900000F083807B68DB68FB60FB6893F8333070
:102BA00003F00203002B55D1FB6893F8333043F058
:102BB0000203DAB2FB6883F83320FB681B6819460E
:102BC000786800F07EFE45E0FB681033184600F0A0
:102BD00027FF0346FB72FB6893F8333003F00803CA
:102BE000002B05D0FB7A1946786800F0F5F92AE049
:102BF000FB6893F832301B2B0CD1FB7A5B2B09D18D
:102C0000FB6893F8333043F00803DAB2FB6883F8CB
:102C1000332018E0FB7A184600F0AAFE0346002B8A
:102C200005D0FB7A1946786800F086FA0BE0FB7A4B
:102C3000184600F0BDFE0346002B04D0FB7A19466F
:102C4000786800F027FA786800F012FDFB68FA7ADD
:102C500083F83220FB681033184600F0C0FE0346AC
:102C6000002BB1D1FB6893F8333003F00103002B44
:102C700014D0FB6800221A84FB68DB69FA68128CA6
:102C8000134400221A70FB6893F8333023F00103D9
:102C9000DAB2FB6883F8332000E000BF1037BD468E
:102CA00080BD000080B584B000AF786039607B687B
:102CB0001B68002B3ED07B68DB68FB60FB689B8E4B
:102CC0007B81FB6893F8333003F01003002B02D1B3
:102CD000786800F0C1FDFB687A899A86396878685F
:102CE00000F0EFFD154B1B681946786800F0E9FD10
:102CF000FB6893F8333003F01003002B1BD1FB6803
:102D00001B681946786800F0DCFDFB68DB69194632
:102D1000786800F0D6FDFB681A8CFB681A86FB68A1
:102D20009B8E00221946786800F0ECFD786800F070
:102D30009FFC00E000BF1037BD4680BD6C00002442
:102D400080B588B000AF78607B68002B66D0354BCB
:102D5000FB600023FB770023BB770023BB610023CC
:102D60007B6147E07B6901337B61BB7F002B02D035
:102D70000023BB7729E0FB7C5C2B02D10123BB77CE
:102D800038E0FB7C222B10D1FB7F002B14BF0123EA
:102D90000023DBB283F00103DBB2FB77FB7F03F0A0
:102DA0000103FB770023FB740FE0FB7F83F001033B
:102DB000DBB2002B09D0FB7C1946F8680DF0F8F85F
:102DC0000346002B01D00023FB74FB7C002B09D1B0
:102DD000BB69002B0EDDBB69013B7A6813441B788D
:102DE000002B07D0BB697A681344FA7C1A70BB6960
:102DF0000133BB617B697A6813441B78FB74FB7CED
:102E0000002BAFD1BB697A68134400221A70BB69EA
:102E100001337A68134400221A7000E000BF2037A3
:102E2000BD4680BDC813010880B584B000AF78608E
:102E30000B467B807B881946786800F020FF0346AC
:102E4000FB81FB894FF6FF72934203D0FB897A68BE
:102E5000134400E0002318461037BD4680BD80B5FE
:102E600084B000AF78600B467B807B881946786819
:102E700000F005FF0346FB81FB894FF6FF7293428A
:102E800003D0FB897A68134400E00023184610370A
:102E9000BD4680BD80B485B000AF78607B68002BF4
:102EA00003D07B681B78002B01D1002319E000239D
:102EB000FB6001237B81FB687A6813441B78002B3D
:102EC00009D1FB6801337A6813441B78002B06D0C4
:102ED0007B8901337B81FB680133FB60EBE700BF3B
:102EE0007B8918461437BD465DF8047B70470000A7
:102EF00080B586B000AF78600B46FB707B68DB68FE
:102F00003B613B699B89002B5FD0FB78002B05D090
:102F10003B695A893B699B899A4256D0FB7883F07A
:102F20000103DBB2002B03D03B695B89002B4CD043
:102F3000786800F091FC3B691B681946786800F0DE
:102F4000C0FCFB78002B06D03B695B8901339AB249
:102F50003B695A8105E03B695B89013B9AB23B6959
:102F60005A813B691A1D3B695B891946104600F07E
:102F70000DFE78617B69002B01D1164B7B6178696E
:102F8000FDF7B8F90346FB813B69DB69FA8979698A
:102F900018460DF0C2F83B69DA69FB891344002238
:102FA0001A703B69FA891A843B69DB6919467868AB
:102FB00000F087FC3B691A8C3B691A863B6900224A
:102FC0009A86786800F054FB00E000BF1837BD46D1
:102FD00080BD00BFCC13010890B585B000AF78600C
:102FE0000B46FB707B68DB68FB60FB783F2B48D9A6
:102FF000FB787E2B45D8FB6893F8333023F0080329
:10300000DAB2FB6883F83320FB78412B02D0FB78DF
:10301000422B09D1FB78412B0CBF01230023DBB2EB
:1030200019467868FFF764FFFB78432B0FD1FB68E4
:103030009B8E002B0BD0FB689B8E013B9AB2FB68EA
:103040009A86124B1B681946786800F03AFCFB78A8
:10305000442B16D1FB689B8E1C46FB68DB69184627
:10306000FDF748F903469C420BD2FB689B8E013367
:103070009AB2FB689A86064B1B681946786800F07E
:1030800020FC00BF1437BD4690BD00BF7000002477
:103090007400002480B584B000AF78600B46FB70EC
:1030A0007B68DB68FB60FB681B8C0233FA68528C20
:1030B00093423BDAFB68DB691846FDF71BF90246D1
:1030C000FB689B8ED31ABB60FB68DA69BB6801336F
:1030D000D018FB68DA69BB68D118FB689B8E013396
:1030E0001A460CF043FFFB681B8C01339AB2FB6855
:1030F0001A84FB681B8E01339AB2FB681A86FB6840
:10310000DA69BB681344FA781A70FB689B8E002B4F
:1031100005D0084B1B681946786800F0D2FB7B6825
:103120001B68FA7811467868984700E000BF1037AE
:10313000BD4680BD8000002480B584B000AF7860BB
:103140000B46FB707B68DB68FB60FB6893F83230F2
:103150000D2B02D1FB780A2B78D0FB6893F8323024
:103160000A2B02D1FB780D2B70D0FB780D2B02D0EF
:10317000FB780A2B29D1786800F0DCFA354B1B6804
:103180001946786800F09DFBFB681B8C002B02D071
:10319000786800F065F8FB6800221A84FB68DB6938
:1031A000FA68128C134400221A70FB6800221A86F7
:1031B000FB6800225A81FB6800229A86FB681B6824
:1031C0001946786800F07DFB41E0FB78082B02D0BF
:1031D000FB787F2B33D1FB681B8C1A46FB689B8ED8
:1031E000D31A002B2BDD1C4B1B681946786800F0A6
:1031F00068FB1A4B1B681946786800F062FBFB6895
:10320000DB691846FDF776F80246FB689B8ED31AF9
:10321000BB60FB68DA69BB68013BD018FB68DA6900
:10322000BB68D118FB689B8E01331A460CF09EFEDA
:10323000FB681B8C013B9AB2FB681A8407E0FB78A1
:10324000092B04D1786800F075FA00E000BF103750
:10325000BD4680BD6C00002474000024840000245E
:1032600090B58FB000AF78607B68DB68BB610123ED
:1032700087F8373000233B630DE0BB69DA693B6BAD
:1032800013441B78202B03D0002387F8373008E045
:103290003B6B01333B63BB691B8C1A463B6B934210
:1032A000EBDB97F83730002B40F0FA80BB691A1D32
:1032B000BB69DB691946104600F004FC0023FB6281
:1032C0000023BB62002387F8273000233B6230E0F5
:1032D000BB69DA693B6A13441B78FB75FB7D202BC5
:1032E0000FD1BB6A002B05D1BB69DA693B6A134475
:1032F00000221A70FB6A002B18D0012387F82730B0
:1033000014E0FB6A002B05D1BB69DA693B6A134400
:10331000FB620BE0BB6A002B08D197F82730002B2B
:1033200004D0BB69DA693B6A1344BB623B6A013370
:103330003B62BB691B8C1A463B6A9342C8DBBB6984
:10334000DA69BB691B8C0133134400221A70FB6AD3
:10335000002B00F0A7800023FB6172E0BB69596A73
:10336000FA6913465B001344DB000B445B681946A3
:10337000F86AFCF7B5FF0346002B5FD1BB69596AB9
:10338000FA6913465B001344DB000B445B69002BB6
:103390005ED0BB69596AFA6913465B001344DB00CF
:1033A0000B441B7B002B02D0B86AFFF7C9FCBB693A
:1033B00093F8333043F01003DAB2BB6983F833205B
:1033C000BB6A002B1AD03949B86AFCF789FF03465B
:1033D000002B06D03649B86AFCF782FF0346002B63
:1033E0000CD1BB69596AFA6913465B001344DB00D0
:1033F0000B441946786800F05DF815E0BB69596A1E
:10340000FA6913465B001344DB000B445C69BB693B
:10341000596AFA6913465B001344DB000B441B69CD
:103420001A46B96A7868A047BB6993F8333023F02D
:103430001003DAB2BB6983F8332034E0FB6901334F
:10344000FB61BB699B8D1A46FB69934286DB00E0FA
:1034500000BF7B685B68002B1DD0FB6AFB60BB6A0A
:103460003B61BB6993F8333043F01003DAB2BB69B8
:1034700083F833207B685B6807F10C02114678689B
:103480009847BB6993F8333023F01003DAB2BB6975
:1034900083F8332007E0F96A786800F05FFE02E005
:1034A00000BF00E000BF3C37BD4690BDD01301080F
:1034B000D413010880B582B000AF786039603B68F2
:1034C0009B68002B10D07B681B680921786898479F
:1034D0003B689B681946786800F0F3F9044B1B6859
:1034E0001946786800F0EDF900BF0837BD4680BD89
:1034F0006C00002480B58EB000AFF860B9607A60CF
:1035000000233B610023BB820023FB827868FCF729
:10351000F1FE7862BB68DB683B623B6A9B8D002BE7
:1035200002D07B6A002B08D1FB681A4607F1100312
:1035300093E8030082E8030095E000237B6383E0C7
:103540003B6A596A7A6B13465B001344DB000B44F9
:103550005B68FB61F869FCF7CDFEB8613B6A9A6A6B
:103560007B6B13441A783B6A996A7B6B0B4422F09D
:103570000102D2B21A70BA697B6A9A425ED3012301
:1035800087F833300023FB6210E07A68FB6A13444B
:103590001A78F969FB6A0B441B789A4203D000231E
:1035A00087F8333006E0FB6A0133FB62FA6A7B6A14
:1035B0009A42EAD397F8333083F00103DBB2002B51
:1035C0003ED13B6A9A6A7B6B13441A783B6A996ACC
:1035D0007B6B0B4442F00102D2B21A70FB8A002BC3
:1035E00004D0BB8A1A46BB69934202D2BB699BB224
:1035F000BB82FB8A01339BB2FB82FB8A012B02D187
:10360000FB693B611DE03B6A1B8CBB6210E03A69C1
:10361000BB6A13441A78F969BB6A0B441B789A4257
:1036200003D0BB6A9BB2BB820BE0BB6A0133BB62B7
:10363000BB8A1A46BB6A9342E9D302E000BF00E0AE
:1036400000BF7B6B01337B633B6A9B8D1A467B6BB0
:103650009342FFF675AFFB681A4607F1100393E833
:10366000030082E80300F8683837BD4680BD0000DB
:1036700080B588B000AF78607B68DB687B617B6970
:1036800093F8333003F02003002B4AD07B69DA69CA
:1036900007F10C0379681846FFF72CFF7B8A002B93
:1036A00002D17B691B8C3B82204B1B6819467868D2
:1036B00000F007F97B699B8E01221946786800F0BB
:1036C00021F97B691B8CFB610BE07B681B68F96847
:1036D000FA690A441278114678689847FB69013301
:1036E000FB613B8A1A46FB699342EED33B8ABB617E
:1036F00007E07B681B68202178689847BB69013325
:10370000BB617B691B8E1A46BB699342F1D33A8A2F
:103710007B691A86064B1B681946786800F0D1F859
:1037200000E000BF2037BD4680BD00BF7800002408
:103730007C00002480B588B000AF78607B68DB68CF
:10374000BB61BB69DA6907F10C0379681846FFF7BA
:10375000D1FE7B8A002B78D07B8A012B04D03A8A59
:10376000BB691B8C9A4231D9BB69DB69F9683A8A1B
:1037700018460CF0D2FC7B8A012B09D1BB69DB69AE
:103780003A8A134420221A703B8A01339BB23B824F
:10379000BB69DB693A8A134400221A70BB69DB6992
:1037A000BA69128C1146BA69928E8A1A1344194664
:1037B000786800F086F83A8ABB691A84BB691A8C6B
:1037C000BB691A86BB6900229A863FE0786800F0E0
:1037D00043F80023FB6121E0BB699A6AFB6913444B
:1037E0001B7803F00103002B14D0BB69596AFA69F6
:1037F00013465B001344DB000B445B687B61796913
:10380000786800F05EF8134B1B681946786800F082
:1038100058F800E000BFFB690133FB61BB699B8D79
:103820001A46FB699342D7DBBB691B681946786867
:1038300000F047F8BB69DB691946786800F041F889
:10384000BB691A8CBB691A8600E000BF2037BD46F1
:1038500080BD00BF6C00002490B587B000AF7860D9
:103860007B68DB683B613B691B8E1C463B691B68C0
:103870001846FCF73FFD03462344FB607B681B684A
:103880000D217868984700237B6107E07B681B68FF
:103890002021786898477B6901337B617A69FB68EE
:1038A0009A42F3D37B681B680D21786898473B697F
:1038B00000221A863B6900229A8600BF1C37BD464B
:1038C00090BD80B584B000AF786039603868FCF78F
:1038D00011FDB8600023FB600BE07B681B68396852
:1038E000FA680A441278114678689847FB680133F1
:1038F000FB60FA68BB689A42EFD300BF00BF103785
:10390000BD4680BD80B586B000AF78600B467B8039
:1039100013467B707B88002B20D007F10C0300221C
:103920001A605A601A727B78002B04D00D4B1B680A
:1039300002331B7803E00C4B1B6802331B78FB75CA
:103940007A88FB7D07F10C0008490CF00BFA07F1AF
:103950000C0319467868FFF7B4FF00E000BF183782
:10396000BD4680BD7000002474000024DC130108F3
:1039700080B483B000AF0346FB71FB790D2B0BD0F5
:10398000FB790A2B08D0FB79082B05D0FB79092B92
:1039900002D0FB797F2B01D1012300E0002303F04B
:1039A0000103DBB218460C37BD465DF8047B704757
:1039B00080B483B000AF0346FB71FB791F2B04D9A1
:1039C000FB797E2B01D8012300E0002303F00103E3
:1039D000DBB218460C37BD465DF8047B704780B4F7
:1039E00083B000AF78607B68DA887B689B889A42F6
:1039F00006D37B68DA887B689B88D31A9BB209E080
:103A00007B681A897B689B88D31A9AB27B68DB88AB
:103A100013449BB218460C37BD465DF8047B7047D3
:103A200080B485B000AF78600023FB737B689A8810
:103A30007B68DB889A4214D07B681B687A6892881E
:103A400013441B78FB737B689B8801339BB27A68B5
:103A50001289B3FBF2F101FB02F29B1A9AB27B6866
:103A60009A80FB7B18461437BD465DF8047B70478F
:103A700080B485B000AF78600B46FB707B68DB8854
:103A800001339BB27A681289B3FBF2F101FB02F2B7
:103A90009B1AFB817B689B88FA899A420BD07B68D2
:103AA0001B687A68D2881344FA781A707B68FA899E
:103AB000DA80012300E0002318461437BD465DF884
:103AC000047B704780B588B000AF78603960386893
:103AD000FCF710FCB8617B689B881A46BB69013310
:103AE0009A4201D200234DE03968786800F06AF804
:103AF00024E07B681B891946786800F047F87861F4
:103B00007869FCF7F7FB38617B681B687A69D31A20
:103B10001A463B6913440133FB617B689B881A4654
:103B2000FB69D31AFB60BB690133FA689A420AD277
:103B30007B681B89013B9AB27B681A817B681B8971
:103B4000002BD6D100E000BF7B681B89002B0AD078
:103B50007B681A68BB690133D0187B681B68FA69F7
:103B600019460CF003FA7B681868BB6901331A46E2
:103B700039680CF0D2FA7B681B8901339AB27B68F2
:103B80001A81012318462037BD4680BD80B582B01A
:103B900000AF78600B467B807B88002B04D07B686D
:103BA0001B897A889A4201D9002307E07B681B6849
:103BB0007A8811461846FFF737F903461846083742
:103BC000BD4680BD80B586B000AF786039603B6887
:103BD000002B4CD07B681B89002B48D000237B61D5
:103BE00001237B8213E07B681B687A8A11461846A2
:103BF000FFF735F9786139687869FCF771FB03469E
:103C0000002B0AD000237B617B8A01337B827B6897
:103C10001B897A8A9A42E6D900E000BF7B69002BB3
:103C200027D07B681B89013B9AB27B681A817A8A0C
:103C30007B681B8901339A421DD07869FCF75AFBD7
:103C4000F8607B689B881946FB6801337A691A44DF
:103C50007B681B68D31ACB1ABB60FB6801337A6997
:103C60001344BA68194678690CF080F904E000BF83
:103C700002E000BF00E000BF1837BD4680BD80B441
:103C800085B000AF78600B467B807B68002B02D04C
:103C90007B88002B02D14FF6FF7328E00023FB81C5
:103CA0000123BB81BA897B889A4213D0FB897A6849
:103CB00013441B78002B09D1BB890133BB81FB89DD
:103CC00001337A6813441B78002B05D0FB8901333C
:103CD000FB81E7E700BF00E000BFFB897A6813447F
:103CE0001B78002B01D0FB8901E04FF6FF731846CB
:103CF0001437BD465DF8047B704780B586B000AFD1
:103D0000F860B9607A6000237B6110E07B699B00FA
:103D1000BA6813441B681946F868FCF7E1FA0346D1
:103D2000002B01D17B6908E07B6901337B617A69F3
:103D30007B689A42EADB4FF0FF3318461837BD46DE
:103D400080BD000080B586B000AFF860B9607A60D1
:103D5000B868FCF7CFFA03463B61B968F868FFF72B
:103D6000B0FD00237B6106E00849F868FFF7A9FD74
:103D70007B6901337B617A683B69D31A7A699A421D
:103D8000F2DB00BF00BF1837BD4680BDC813010875
:103D90002DE9F04395B000AFF860B9607A60FB6838
:103DA000DB687B637B6B9B8D002B0AD18C49F868A9
:103DB000FFF787FD8B4B1B681946F868FFF781FDFD
:103DC000BAE1B868FFF766F803467B867B8E002B66
:103DD00040F0F6806B461E462023BB62BB6A013B67
:103DE0007B62BB6A0022984691464FF000024FF07A
:103DF00000034FEA491343EAD8634FEA4812BB6A0B
:103E000000221C4615464FF000024FF000036B01E4
:103E100043EAD4636201BB6A9B000733DB08DB0023
:103E2000ADEB030D6B4603339B089B003B62002305
:103E3000FB640023BB642DE07B6B596ABA6C1346AC
:103E40005B001344DB000B441B68002B09D07B6B29
:103E5000596ABA6C13465B001344DB000B441B68C1
:103E600000E0614BBB61FA6C396AB869FFF745FF46
:103E700078617B69002B0ADAFA6CBB6A9A4206DA2F
:103E8000FB6C5A1CFA643A6AB96942F82310BB6C9D
:103E90000133BB647B6B9B8D1A46BB6C9342CBDBBF
:103EA00000237B6485E05149F868FFF70AFD3B6A0F
:103EB0007A6C53F822301946F868FFF702FD4C4936
:103EC000F868FFF7FEFC474B1B681946F868FFF7D8
:103ED000F8FC00233B645DE07B6B596A3A6C134647
:103EE0005B001344DB000B441B68002B09D07B6B89
:103EF000596A3A6C13465B001344DB000B441B68A1
:103F000000E0394BFB613B6A7A6C53F8223019466A
:103F1000F869FCF7E5F90346002B38D13549F86814
:103F2000FFF7CFFC7B6B596A3A6C13465B00134476
:103F3000DB000B445B6810221946F868FFF702FFAC
:103F40002D49F868FFF7BDFC7B6B596A3A6C134644
:103F50005B001344DB000B449B68002B0DD07B6B94
:103F6000596A3A6C13465B001344DB000B449B68B0
:103F70001946F868FFF7A5FC03E02049F868FFF749
:103F8000A0FC184B1B681946F868FFF79AFC3B6CBD
:103F900001333B647B6B9B8D1A463B6C93429BDBEE
:103FA000104B1B681946F868FFF78BFC7B6C0133DC
:103FB0007B647A6CFB6C9A42FFF675AFB546BBE04A
:103FC0007B8E012B40F0AE800121B868FEF72CFFFC
:103FD000F862002387F83F300023BB638FE000BF07
:103FE000E41301086C000024FC1301080C14010800
:103FF00010140108141401081C14010820140108ED
:104000007B6B596ABA6B13465B001344DB000B44AD
:104010005B68F96A1846FCF763F90346002B6BD11D
:10402000012387F83F304649F868FFF74AFC7B6B6D
:10403000596ABA6B13465B001344DB000B445B68A0
:104040001946F868FFF73DFC3E4B1B681946F868B7
:10405000FFF737FC3C49F868FFF733FC7B6B596A84
:10406000BA6B13465B001344DB000B441B68002B48
:1040700009D07B6B596ABA6B13465B001344DB00B3
:104080000B441B6800E0314B1946F868FFF719FC38
:104090002C4B1B681946F868FFF713FC7B6B596AB9
:1040A000BA6B13465B001344DB000B449B68002B88
:1040B00017D02749F868FFF704FC7B6B596ABA6B85
:1040C00013465B001344DB000B449B681946F868F9
:1040D000FFF7F7FB1B4B1B681946F868FFF7F1FB6E
:1040E00014E01C49F868FFF7ECFB164B1B681946F7
:1040F000F868FFF7E6FB09E0BB6B0133BB637B6B42
:104100009B8D1A46BB6B9342FFF67AAF97F83F3010
:1041100083F00103DBB2002B0ED0F96AF86800F0DF
:104120001DF809E00C49F868FFF7CBFB054B1B684D
:104130001946F868FFF7C5FB5437BD46BDE8F08364
:104140002C1401086C00002438140108FC13010829
:1041500044140108201401084C14010880B582B0F1
:1041600000AF786039600B497868FFF7AAFB3968BF
:104170007868FFF7A6FB08497868FFF7A2FB074BB2
:104180001B6819467868FFF79CFB00BF0837BD46DF
:1041900080BD00BF7C140108901401086C0000244D
:1041A00080B483B000AF78607B6803F108027B685D
:1041B0005A607B684FF0FF329A607B6803F1080217
:1041C0007B68DA607B6803F108027B681A617B68B0
:1041D00000221A6000BF0C37BD465DF8047B7047B3
:1041E00080B483B000AF78607B6800221A6100BFA2
:1041F0000C37BD465DF8047B704780B485B000AFD6
:10420000786039603B681B68BB60BB68B3F1FF3FF7
:1042100003D17B681B69FB600CE07B680833FB60A3
:1042200002E0FB685B68FB60FB685B681B68BA6860
:104230009A42F6D2FB685A683B685A603B685B68F2
:104240003A689A603B68FA689A60FB683A685A6014
:104250003B687A681A617B681B685A1C7B681A6025
:1042600000BF1437BD465DF8047B704780B485B04D
:1042700000AF78607B681B69FB607B685B687A686D
:1042800092689A607B689B687A6852685A60FB689B
:104290005B687A689A4203D17B689A68FB685A60C7
:1042A0007B6800221A61FB681B685A1EFB681A6053
:1042B000FB681B6818461437BD465DF8047B7047E1
:1042C00080B586B000AF7860396001237B617B6880
:1042D0003B613B69002B0DD14FF0500372B683F365
:1042E0001188BFF36F8FBFF34F8F62B6FB6000BFC3
:1042F00000BFFDE73B69002B5DD03B69DB6B002B0A
:1043000059D03B691A6C3B69DB6B0021A3FB02238C
:10431000002B00D001210B46002B4CD102F01AFFDC
:104320003B691A683B69DB6B3969096C01FB03F374
:104330001A443B699A603B6900229A633B691A6898
:104340003B695A603B691A683B69DB6B013B396921
:10435000096C01FB03F31A443B69DA603B69FF22F5
:1043600083F844203B69FF2283F845203B68002BFB
:1043700014D13B691B69002B1AD03B6910331846D6
:1043800001F0D4FD0346002B12D0174B4FF08052A2
:104390001A60BFF34F8FBFF36F8F09E03B69103393
:1043A0001846FFF7FDFE3B6924331846FFF7F8FE79
:1043B00002F006FF01E000237B617B69002B0DD139
:1043C0004FF0500372B683F31188BFF36F8FBFF3C2
:1043D0004F8F62B6BB6000BF00BFFDE77B69184628
:1043E0001837BD4680BD00BF04ED00E080B58CB03D
:1043F00002AFF860B9607A603B6000237B623B6883
:10440000002B0DD14FF0500372B683F31188BFF328
:104410006F8FBFF34F8F62B63B6200BF00BFFDE7F7
:10442000FB68002B33D03B68002B30D07B68002B1F
:1044300002D0BB68002B2AD07B68002B02D1BB685E
:10444000002B24D150237B617B69502B0DD04FF082
:10445000500372B683F31188BFF36F8FBFF34F8F92
:1044600062B6FB6100BF00BFFDE77B693B687B6212
:104470007B6A012283F8462097F830207B6A0093FC
:1044800013467A68B968F86800F06CF810E07B6A47
:10449000002B0DD14FF0500372B683F31188BFF398
:1044A0006F8FBFF34F8F62B6BB6100BF00BFFDE7E8
:1044B0007B6A18462837BD4680BD80B58AB002AFFA
:1044C000F860B9601346FB710023FB61FB68002BA9
:1044D00032D00021BA68FB68A3FB0223002B00D076
:1044E00001210B46002B27D1FB68BA6802FB03F3BE
:1044F00013F1510F20D8FB68BA6802FB03F3BB61CC
:10450000BB695033184602F059FFF861FB69002B74
:1045100023D0FB697B617B6950337B61FB6900229F
:1045200083F84620FA79FB69009313467A69B968E3
:10453000F86800F017F810E0FB69002B0DD14FF080
:10454000500372B683F31188BFF36F8FBFF34F8FA1
:1045500062B63B6100BF00BFFDE7FB69184620372C
:10456000BD4680BD80B584B000AFF860B9607A60A8
:10457000FB70BB68002B03D1BB69BA691A6002E00B
:10458000BB697A681A60BB69FA68DA63BB69BA68A2
:104590001A640121B869FFF793FEBB69FA7883F8C2
:1045A0004C2000BF1037BD4680BD000080B58EB0E6
:1045B00000AFF860B9607A603B6000237B63FB6802
:1045C0003B633B6B002B0DD14FF0500372B683F36E
:1045D0001188BFF36F8FBFF34F8F62B6BB6200BF0E
:1045E00000BFFDE7BB68002B03D13B6B1B6C002BAE
:1045F00001D1012300E00023002B0DD14FF0500327
:1046000072B683F31188BFF36F8FBFF34F8F62B61B
:104610007B6200BF00BFFDE73B68022B03D13B6B11
:10462000DB6B012B01D1012300E00023002B0DD116
:104630004FF0500372B683F31188BFF36F8FBFF34F
:104640004F8F62B63B6200BF00BFFDE701F09EFEE8
:104650000346002B02D17B68002B01D1012300E02F
:104660000023002B0DD14FF0500372B683F3118855
:10467000BFF36F8FBFF34F8F62B6FB6100BF00BF08
:10468000FDE702F067FD3B6B9A6B3B6BDB6B9A427D
:1046900002D33B68022B29D13A68B968386B00F025
:1046A0003EFCF8623B6B5B6A002B10D03B6B243303
:1046B000184601F03BFC0346002B13D03F4B4FF054
:1046C00080521A60BFF34F8FBFF36F8F0AE0FB6A0F
:1046D000002B07D0394B4FF080521A60BFF34F8F39
:1046E000BFF36F8F02F06CFD012363E07B68002B4A
:1046F00003D102F065FD00235CE07B6B002B06D14B
:1047000007F11403184601F0EDFC01237B6302F06E
:1047100057FD01F0D9F802F01DFD3B6B93F84430D2
:104720005BB2B3F1FF3F03D13B6B002283F844201F
:104730003B6B93F845305BB2B3F1FF3F03D13B6B6A
:10474000002283F8452002F03BFD3A1D07F11403D7
:104750001146184601F0DCFC0346002B24D1386BCF
:1047600000F0D5FC0346002B18D03B6B10337A6861
:104770001146184601F06AFB386B00F060FC01F04E
:10478000B1F80346002B7FF47CAF0C4B4FF0805206
:104790001A60BFF34F8FBFF36F8F72E7386B00F073
:1047A0004EFC01F09FF86CE7386B00F048FC01F01C
:1047B00099F8002318463837BD4680BD04ED00E067
:1047C00080B592B000AFF860B9607A603B60FB687A
:1047D0003B643B6C002B0DD14FF0500372B683F35A
:1047E0001188BFF36F8FBFF34F8F62B6FB6200BFBC
:1047F00000BFFDE7BB68002B03D13B6C1B6C002B9B
:1048000001D1012300E00023002B0DD14FF0500314
:1048100072B683F31188BFF36F8FBFF34F8F62B609
:10482000BB6200BF00BFFDE73B68022B03D13B6CBE
:10483000DB6B012B01D1012300E00023002B0DD104
:104840004FF0500372B683F31188BFF36F8FBFF33D
:104850004F8F62B67B6200BF00BFFDE702F068FDCC
:10486000EFF311824FF0500372B683F31188BFF358
:104870006F8FBFF34F8F62B63A62FB613B6AFB6397
:104880003B6C9A6B3B6CDB6B9A4202D33B68022B0E
:1048900049D13B6C93F8453087F83B303B6C9B6BC0
:1048A0007B633A68B968386C00F039FB97F93B30A4
:1048B000B3F1FF3F12D13B6C5B6A002B30D03B6CF5
:1048C0002433184601F032FB0346002B28D07B68C6
:1048D000002B25D07B6801221A6021E001F02EF91F
:1048E000386397F93B303A6B9A4219D997F93B30C4
:1048F0007F2B0DD14FF0500372B683F31188BFF3B5
:104900006F8FBFF34F8F62B6BB6100BF00BFFDE783
:1049100097F83B300133DBB25AB23B6C83F8452049
:1049200001237B6401E000237B64FB6B7B617B697B
:1049300083F3118800BF7B6C18464837BD4680BDA5
:1049400080B58CB000AFF860B9607A600023FB627C
:10495000FB68BB62BB6A002B0DD14FF0500372B6EF
:1049600083F31188BFF36F8FBFF34F8F62B63B6243
:1049700000BF00BFFDE7BB68002B03D1BB6A1B6C07
:10498000002B01D1012300E00023002B0DD14FF0BB
:10499000500372B683F31188BFF36F8FBFF34F8F4D
:1049A00062B6FB6100BF00BFFDE701F0EFFC03460C
:1049B000002B02D17B68002B01D1012300E00023F2
:1049C000002B0DD14FF0500372B683F31188BFF363
:1049D0006F8FBFF34F8F62B6BB6100BF00BFFDE7B3
:1049E00002F0B8FBBB6A9B6B7B627B6A002B1FD01B
:1049F000B968B86A00F0FDFA7B6A5A1EBB6A9A630E
:104A0000BB6A1B69002B0FD0BB6A1033184601F03C
:104A10008DFA0346002B07D03C4B4FF080521A60B2
:104A2000BFF34F8FBFF36F8F02F0CAFB012369E022
:104A30007B68002B03D102F0C3FB002362E0FB6A1A
:104A4000002B06D107F11003184601F04BFB0123A0
:104A5000FB6202F0B5FB00F037FF02F07BFBBB6AA4
:104A600093F844305BB2B3F1FF3F03D1BB6A00223D
:104A700083F84420BB6A93F845305BB2B3F1FF3F43
:104A800003D1BB6A002283F8452002F099FB3A1D4E
:104A900007F110031146184601F03AFB0346002BBC
:104AA00023D1B86A00F01DFB0346002B17D0BB6A68
:104AB00024337A681146184601F0C8F9B86A00F044
:104AC000BEFA00F00FFF0346002B89D10F4B4FF0C9
:104AD00080521A60BFF34F8FBFF36F8F80E7B86AC1
:104AE00000F0ADFA00F0FEFE7AE7B86A00F0A7FA2F
:104AF00000F0F8FEB86A00F0F4FA0346002B3FF429
:104B00006FAF002318463037BD4680BD04ED00E08E
:104B100080B58CB000AF786039600023FB627B68A1
:104B20007B620023BB627B6A002B0DD14FF05003E8
:104B300072B683F31188BFF36F8FBFF34F8F62B6E6
:104B4000BB6100BF00BFFDE77B6A1B6C002B0DD073
:104B50004FF0500372B683F31188BFF36F8FBFF32A
:104B60004F8F62B67B6100BF00BFFDE701F00EFC16
:104B70000346002B02D13B68002B01D1012300E04A
:104B80000023002B0DD14FF0500372B683F3118830
:104B9000BFF36F8FBFF34F8F62B63B6100BF00BFA3
:104BA000FDE702F0D7FA7B6A9B6B3B623B6A002B06
:104BB00024D03B6A5A1E7B6A9A637B6A1B68002B6F
:104BC00004D101F00FFE02467B6A9A607B6A1B6982
:104BD000002B0FD07B6A1033184601F0A7F903466B
:104BE000002B07D04C4B4FF080521A60BFF34F8F11
:104BF000BFF36F8F02F0E4FA012389E03B68002BDA
:104C000003D102F0DDFA002382E0FB6A002B06D11B
:104C100007F10803184601F065FA0123FB6202F070
:104C2000CFFA00F051FE02F095FA7B6A93F8443017
:104C30005BB2B3F1FF3F03D17B6A002283F84420CB
:104C40007B6A93F845305BB2B3F1FF3F03D17B6AD7
:104C5000002283F8452002F0B3FA3A4607F1080330
:104C60001146184601F054FA0346002B32D1786AF7
:104C700000F037FA0346002B26D07B6A1B68002B16
:104C800009D102F067FA7B6A9B68184601F09CFB29
:104C9000B86202F095FA7B6A24333A6811461846E6
:104CA00001F0D4F8786A00F0CAF900F01BFE034660
:104CB000002B7FF476AF184B4FF080521A60BFF391
:104CC0004F8FBFF36F8F6CE7786A00F0B8F900F090
:104CD00009FE66E7786A00F0B2F900F003FE786A30
:104CE00000F0FFF90346002B3FF45BAFBB6A002BDB
:104CF0000DD002F02FFA786A00F0F9F8F8617B6ABB
:104D00009B68F969184601F0ABFC02F059FA0023E0
:104D100018463037BD4680BD04ED00E080B590B048
:104D200000AFF860B9607A60FB68BB63BB6B002BB7
:104D30000DD14FF0500372B683F31188BFF36F8F1C
:104D4000BFF34F8F62B67B6200BF00BFFDE7BB6859
:104D5000002B03D1BB6B1B6C002B01D1012300E0A6
:104D60000023002B0DD14FF0500372B683F311884E
:104D7000BFF36F8FBFF34F8F62B63B6200BF00BFC0
:104D8000FDE702F0D5FAEFF311824FF0500372B64F
:104D900083F31188BFF36F8FBFF34F8F62B6FA6151
:104DA000BB61FB697B63BB6B9B6B3B633B6B002B0A
:104DB00049D0BB6B93F8443087F82F30B968B86B93
:104DC00000F017F93B6B5A1EBB6B9A6397F92F30B3
:104DD000B3F1FF3F12D1BB6B1B69002B30D0BB6B13
:104DE0001033184601F0A2F80346002B28D07B6848
:104DF000002B25D07B6801221A6021E000F09EFE86
:104E0000B86297F92F30BA6A9A4219D997F92F30B8
:104E10007F2B0DD14FF0500372B683F31188BFF38F
:104E20006F8FBFF34F8F62B67B6100BF00BFFDE79E
:104E300097F82F300133DBB25AB2BB6B83F84420B2
:104E40000123FB6301E00023FB637B6B3B613B6958
:104E500083F3118800BFFB6B18464037BD4680BD09
:104E600080B584B000AF78607B68002B0DD14FF027
:104E7000500372B683F31188BFF36F8FBFF34F8F68
:104E800062B6BB6000BF00BFFDE702F063F97B685C
:104E90009B6BFB6002F094F9FB6818461037BD4627
:104EA00080BD80B584B000AF78607B68FB60FB6834
:104EB000002B0DD14FF0500372B683F31188BFF36E
:104EC0006F8FBFF34F8F62B6BB6000BF00BFFDE7BF
:104ED000F86800F087F9FB6893F84630002B02D1A0
:104EE000F86802F0A9FB00BF1037BD4680BD80B452
:104EF00085B000AF78607B685B6A002B06D07B686A
:104F00001B6B1B68C3F10703FB6001E00023FB6020
:104F1000FB6818461437BD465DF8047B704780B5C2
:104F200086B000AFF860B9607A6000237B61FB68EF
:104F30009B6B3B61FB681B6C002B0DD1FB681B68F6
:104F4000002B4DD1FB689B68184601F0DDFA7861B3
:104F5000FB6800229A6043E07B68002B19D1FB6854
:104F60005868FB681B6C1A46B9680BF0D6F8FB68EA
:104F70005A68FB681B6C1A44FB685A60FB685A68E5
:104F8000FB689B689A422BD3FB681A68FB685A60DF
:104F900026E0FB68D868FB681B6C1A46B9680BF002
:104FA000BCF8FB68DA68FB681B6C5B421A44FB6860
:104FB000DA60FB68DA68FB681B689A4207D2FB6814
:104FC0009A68FB681B6C5B421A44FB68DA607B687A
:104FD000022B05D13B69002B02D03B69013B3B61B1
:104FE0003B695A1CFB689A637B6918461837BD46B3
:104FF00080BD80B582B000AF786039607B681B6C83
:10500000002B18D07B68DA687B681B6C1A447B68BD
:10501000DA607B68DA687B689B689A4203D37B68B6
:105020001A687B68DA607B68D9687B681B6C1A46F3
:1050300038680BF072F800BF0837BD4680BD80B5F8
:1050400084B000AF786002F085F87B6893F8453053
:10505000FB7311E07B685B6A002B12D07B68243302
:10506000184600F063FF0346002B01D001F0B4F8AE
:10507000FB7B013BDBB2FB7397F90F30002BE9DCC4
:1050800000E000BF7B68FF2283F8452002F098F81B
:1050900002F060F87B6893F84430BB7311E07B68E2
:1050A0001B69002B12D07B681033184600F03EFFBE
:1050B0000346002B01D001F08FF8BB7B013BDBB234
:1050C000BB7397F90E30002BE9DC00E000BF7B6872
:1050D000FF2283F8442002F073F800BF1037BD466A
:1050E00080BD80B584B000AF786002F033F87B6893
:1050F0009B6B002B02D10123FB6001E00023FB60CE
:1051000002F05EF8FB6818461037BD4680BD80B5DA
:1051100084B000AF786002F01DF87B689A6B7B6802
:10512000DB6B9A4202D10123FB6001E00023FB60AC
:1051300002F046F8FB6818461037BD4680BD0000F7
:1051400080B487B000AF7860396000233B617B6832
:10515000002B0DD14FF0500372B683F31188BFF3CB
:105160006F8FBFF34F8F62B6FB6000BF00BFFDE7DC
:105170003B68002B24D000237B611EE0184A7B692A
:10518000DB0013445B687A689A4205D17B69DB00D7
:10519000134A13443B6113E03B69002B0AD1104AC8
:1051A0007B6952F83330002B04D17B69DB000C4A59
:1051B00013443B617B6901337B617B69072BDDD93C
:1051C0003B69002B05D03B693A681A603B697A68F5
:1051D0005A6000BF1C37BD465DF8047B704700BFB6
:1051E0008C22002480B485B000AF78607B68002BEF
:1051F0000DD14FF0500372B683F31188BFF36F8F58
:10520000BFF34F8F62B6BB6000BF00BFFDE7002356
:10521000FB6016E0104AFB68DB0013445B687A68A9
:105220009A420BD10C4AFB68002142F833100A4A1B
:10523000FB68DB00134400225A6006E0FB68013380
:10524000FB60FB68072BE5D900BF00BF1437BD46E4
:105250005DF8047B704700BF8C22002480B586B0C7
:1052600000AFF860B9607A60FB687B6101F072FFA3
:105270007B6993F844305BB2B3F1FF3F03D17B69A4
:10528000002283F844207B6993F845305BB2B3F188
:10529000FF3F03D17B69002283F8452001F090FF96
:1052A0007B699B6B002B06D17B6924337A68B968D4
:1052B000184600F0F3FD7869FFF7C1FE00BF18370C
:1052C000BD4680BD80B58EB004AFF860B9607A602D
:1052D0003B607B6B002B0DD14FF0500372B683F314
:1052E0001188BFF36F8FBFF34F8F62B63B6200BF71
:1052F00000BFFDE7BB6B002B0DD14FF0500372B622
:1053000083F31188BFF36F8FBFF34F8F62B6FB61DA
:1053100000BF00BFFDE75C237B617B695C2B0DD088
:105320004FF0500372B683F31188BFF36F8FBFF352
:105330004F8F62B6BB6100BF00BFFDE77B69BB6BEF
:10534000002B1FD07B6B002B1CD0BB6B7B625C22C5
:105350000021786A0AF024FE7B6A7A6B1A637B6A02
:10536000022283F85920002303937B6A0293FB6B8C
:1053700001933B6B00933B687A68B968F86800F06A
:105380008FF801E000237B627B6A18462837BD4610
:1053900080BD80B58AB004AFF860B9607A603B60C8
:1053A00000233B6107F110030393BB6A02937B6AFE
:1053B00001933B6A00933B687A68B968F868FFF725
:1053C00081FF78617B69002B02D0786900F0FCF8DE
:1053D0003B6918461837BD4680BD80B58AB004AF1A
:1053E000F860B9607A603B607B689B00184601F00A
:1053F000E5FF38613B69002B13D05C2001F0DEFF34
:1054000078617B69002B08D05C22002178690AF062
:10541000C7FD7B693A691A6305E0386902F00CF947
:1054200001E000237B617B69002B11D07B690022A6
:1054300083F85920002303937B6902937B6A0193CD
:105440003B6A00933B687A68B968F86800F028F80E
:105450007B6918461837BD4680BD80B588B002AF5D
:10546000F860B9607A603B607B6A01933B6A0093A5
:105470003B687A68B968F868FFF7AFFF38613B6945
:10548000002B05D0386900F09FF801237B6102E012
:105490004FF0FF337B617B6918461837BD4680BDEE
:1054A00080B588B000AFF860B9607A603B603B6B54
:1054B000186B7B689B001A46A5210AF071FD3B6BB7
:1054C0001A6B79686FF040430B449B001344BB6137
:1054D000BB6923F00703BB61BB6903F00703002B23
:1054E0000DD04FF0500372B683F31188BFF36F8F66
:1054F000BFF34F8F62B67B6100BF00BFFDE7BB68A3
:10550000002B1ED00023FB6112E0BA68FB69134434
:1055100019783A6BFB69134434330A461A70BA6837
:10552000FB6913441B78002B06D0FB690133FB6138
:10553000FB690F2BE9D900E000BF3B6B002283F829
:105540004320BB6A062B0DD94FF0500372B683F38C
:105550001188BFF36F8FBFF34F8F62B63B6100BFFF
:1055600000BFFDE7BB6A062B01D90623BB623B6B7C
:10557000BA6ADA623B6BBA6ADA643B6B0433184688
:10558000FEF72EFE3B6B18331846FEF729FE3B6BE9
:105590003A6B1A61BB6AC3F107023B6B9A613B6BC2
:1055A0003A6B5A623A68F968B86901F073FC0246CE
:1055B0003B6B1A60FB6A002B02D0FB6A3A6B1A60E5
:1055C00000BF2037BD4680BD80B584B000AF786095
:1055D00001F0C0FD414B1B680133404A1360404B52
:1055E0001B68002B09D13E4A7B6813603B4B1B684C
:1055F000012B10D100F014FE0DE03A4B1B68002B7C
:1056000009D1374B1B68DA6A7B68DB6A9A4202D899
:10561000334A7B681360344B1B680133324A136092
:10562000314B1A687B685A647B68DB6A01229A40B6
:105630002E4B1B6813432D4A13607B68DA6A2C4992
:1056400013469B0013449B000B4404331B68FB6010
:105650007B68FA689A60FB689A687B68DA60FB6826
:105660009B687A6804325A607B681A1DFB689A60EE
:105670007B68DA6A13469B0013449B001C4A1A4459
:105680007B685A617B68DA6A194913469B001344A8
:105690009B000B441B687A68D26A591C1448134655
:1056A0009B0013449B000344196001F089FD0D4BDE
:1056B0001B68002B0ED00A4B1B68DA6A7B68DB6A1A
:1056C0009A4207D20B4B4FF080521A60BFF34F8FB4
:1056D000BFF36F8F00BF1037BD4680BDB8230024D5
:1056E000CC220024C4230024D4230024C02300247B
:1056F000D022002404ED00E080B584B000AF7860D3
:105700000023FB607B68002B1AD000F0DDF8144BFF
:105710001B68012B0DD04FF0500372B683F3118834
:10572000BFF36F8FBFF34F8F62B6BB6000BF00BF88
:10573000FDE70021786801F06DF800F0D3F8F8601B
:10574000FB68002B07D1074B4FF080521A60BFF364
:105750004F8FBFF36F8F00BF1037BD4680BD00BFB6
:10576000E023002404ED00E080B590B004AF0123F5
:10577000FB6200233B6200237B6213E02B4A7B6ABF
:105780001344197807F110027B6A13440A461A7011
:1057900007F110027B6A13441B78002B06D07B6A4A
:1057A00001337B627B6A0F2BE8DD00E000BF002342
:1057B000BB6231E01E4B3B620023FB600023BB60F9
:1057C0003A1D07F1080107F10C03184601F078F8BB
:1057D0007868BB68FA6807F1100102920193002310
:1057E000009300230246386AFFF7D3FD02461149B1
:1057F000BB6A41F823200F4ABB6A52F82330002BC2
:1058000002D00123FB6201E00023FB62FB6A002B54
:1058100006D0BB6A0133BB62BB6A002BCADD00E065
:1058200000BFFB6A18463037BD4680BDC41401086E
:10583000F1610008DC23002480B584B000AFFFF7DD
:1058400093FFF860FB68012B02D101F06DF8F8605E
:10585000FB68012B18D14FF0500372B683F3118807
:10586000BFF36F8FBFF34F8F62B6BB6000BF124BA9
:105870004FF0FF321A60114B01221A60104B0022C8
:105880001A6001F097FB11E0FB68B3F1FF3F0DD107
:105890004FF0500372B683F31188BFF36F8FBFF3DD
:1058A0004F8F62B67B6000BF00BFFDE7054B1B68F2
:1058B00000BF1037BD4680BDD8230024C423002478
:1058C000BC2300247423010880B400AF044B1B6880
:1058D0000133034A136000BFBD465DF8047B704787
:1058E000E023002480B588B000AF0023FB610023D3
:1058F000BB6101F02FFC00233B61764B1B68002B42
:105900000DD14FF0500372B683F31188BFF36F8F40
:10591000BFF34F8F62B63B6000BF00BFFDE76D4B2A
:105920001B68013B6B4A13606A4B1B68002B40F0FD
:10593000CA80694B1B68002B00F0C5808EE0674B66
:10594000DB68DB68FB61FB699B6AFB60FB69DB6909
:10595000FA69126A9A60FB691B6AFA69D2695A602D
:10596000FB685A68FB6918339A4203D1FB691A6ACB
:10597000FB685A60FB6900229A62FB681B685A1E2A
:10598000FB681A60FB695B69BB60FB699B68FA692D
:10599000D2689A60FB69DB68FA6992685A60BB68F2
:1059A0005A68FB6904339A4203D1FB69DA68BB6821
:1059B0005A60FB6900225A61BB681B685A1EBB68AB
:1059C0001A60FB69DB6A01229A40454B1B6813434E
:1059D000434A1360FB69DA6A424913469B00134449
:1059E0009B000B4404331B687B60FB697A689A60F8
:1059F0007B689A68FB69DA607B689B68FA690432A5
:105A00005A60FB691A1D7B689A60FB69DA6A134663
:105A10009B0013449B00334A1A44FB695A61FB699B
:105A2000DA6A304913469B0013449B000B441B6801
:105A3000FA69D26A591C2B4813469B0013449B00F9
:105A400003441960FB69DA6A274B1B68DB6A9A42D8
:105A500004D9264A3B69012142F823101F4B1B68D9
:105A6000002B7FF46CAFFB69002B01D000F072FCBF
:105A70001F4B1B687B617B69002B12D000F06AF81A
:105A80000346002B04D0194A3B69012142F8231038
:105A90007B69013B7B617B69002BEFD1144B0022BA
:105AA0001A60124A3B6952F82330002B0BD00123B5
:105AB000BB610D4B1B680F4B4FF080521A60BFF358
:105AC0004F8FBFF36F8F01F07BFBBB691846203708
:105AD000BD4680BDE0230024B82300248C2300248D
